:020000040800F2
:1000000038580120651C0008456700086167000832
:100010007D67000899670008B567000800000000C8
:10002000000000000000000000000000D167000890
:10003000ED6700080000000009680008811B000847
:10004000C11C0008C11C0008C11C0008C11C00081C
:10005000C11C0008C11C0008C11C0008C11C00080C
:10006000C11C0008C11C0008C11C0008C11C0008FC
:10007000C11C0008C11C0008C11C0008C11C0008EC
:10008000C11C0008C11C0008C11C0008C11C0008DC
:10009000C11C0008C11C0008C11C0008C11C0008CC
:1000A000C11C00080D130008C11C0008C11C000879
:1000B00055130008A1130008E9130008C11C00082B
:1000C000C11C0008C11C0008C11C0008C11C00089C
:1000D000C11C0008C11C0008F9520008C11C00081E
:1000E000C11C0008C11C00084D180008C1140008FC
:1000F00079140008C11C0008C11C0008C11C0008BC
:10010000C11C0008F969000831140008C11C00086E
:10011000C11C0008C11C0008C11C0008C11C00084B
:10012000C11C0008C11C0008C11C0008056A0008A9
:10013000C11C0008C11C0008C11C0008C11C00082B
:10014000C11C0008C11C0008C11C00083D180008A3
:10015000C11C0008C11C0008C11C0008C11C00080B
:10016000C11C0008C11C0008C11C0008C11C0008FB
:10017000C11C0008C11C0008C11C0008C11C0008EB
:10018000C11C0008C11C000810B5054C237833B908
:10019000044B13B10448AFF300800123237010BD5A
:1001A0001009002000000000F01F0208084B10B5E5
:1001B0001BB108480849AFF300800848036803B939
:1001C00010BD074B002BFBD0BDE81040184700BF07
:1001D00000000000F01F0208140900200809002098
:1001E0000000000080B584B000AFF8600B467A6074
:1001F000FB72FB7A013B032B52D801A252F823F089
:100200001102000835020008590200087D020008AA
:10021000FB68DB6A18460CF077FD034618467968E0
:100220000CF0CAFD034618460CF0B2FF0246FB680C
:100230005A6336E0FB68DB6A18460CF065FD03463E
:10024000184679680CF0B8FD034618460CF0A0FF7C
:100250000246FB689A6324E0FB68DB6A18460CF0F0
:1002600053FD0346184679680CF0A6FD0346184670
:100270000CF08EFF0246FB68DA6312E0FB68DB6A73
:1002800018460CF041FD0346184679680CF094FDC1
:10029000034618460CF07CFF0246FB681A6400E037
:1002A00000BF1037BD4680BD80B582B000AF78601A
:1002B0000B46FB70FB78012B06D17B685B6B184605
:1002C0000CF022FD03461FE0FB78022B06D17B6871
:1002D0009B6B18460CF018FD034615E0FB78032BCA
:1002E00006D17B68DB6B18460CF00EFD03460BE075
:1002F000FB78042B06D17B681B6C18460CF004FDC0
:10030000034601E04FF0000318460837BD4680BDA4
:1003100090B5ADB002AFF860B9603B601346FB80AA
:100320000023C7F8A4300023C7F8A0300023C7F883
:100330009C300123C7F898300023A7F8963006F0C8
:10034000D3FC07F14403184605F03EFDFB68B3F10A
:10035000804F03D3FB68944A934207D9FB68934AC2
:10036000934211D9FB68924A93420DD8FB6C914A93
:10037000D2F88C20120E02F00102013202FB03F3CC
:100380005B00C7F8A4300CE03B6D8A4AD2F88C20A1
:10039000120E02F00102013202FB03F35B00C7F808
:1003A000A4303B68002B0ADDD7F8A430824A82FBD8
:1003B00003125211DB17D21A3B689A4201DA012369
:1003C000EEE01FE0D7F8A0300133C7F8A030D7F82F
:1003D000A420D7F8A03092FBF3F23B6892FBF3F332
:1003E000C7F89C30D7F89C30B3F5803F02DA002381
:1003F000C7F89830D7F8A0304FF6FE72934201DD6F
:100400000123CDE0D7F89830002BDBD1D7F8A4201A
:10041000D7F8A03092FBF3F2D7F89C3092FBF3F3BD
:100420003B60F86808F0A8FAFA88002300930220DD
:10043000B968002300F0C8FDD7F89C30013BFB638E
:10044000D7F8A0309BB2013B9BB23B870023A7F8B3
:10045000403000237B87002387F8423007F13803C0
:10046000F868194609F028F86023BB8400233B860E
:100470000123FB8404233B8508237B864FF4807390
:10048000BB864FF40073FB8607F12403F868194616
:1004900009F0EAF8F868002109F0D4FA07F124031A
:1004A000F868194609F05AF9F868002109F0E6FAE7
:1004B00007F12403F868194609F0D8F9F868002113
:1004C00009F0FAFA07F12403F868194609F054FA1A
:1004D000F868002109F00CFBFB68384A934203D00E
:1004E000FB68374A934211D107F11403184609F00B
:1004F00045FB4FF480433B8407F11403F868194629
:1005000009F014FBF868012109F056FBFA8807F19D
:1005100054031046194608F0ADF80023A7F89630AA
:1005200025E0B7F896305B0007F1A802134433F8D2
:10053000543C012B16D1B7F8963010335B0007F10D
:10054000A802134433F8523C184608F099FB0346BE
:100550009CB2F86808F00AFC0346B86821461A46BF
:1005600006F04EFBB7F896300133A7F89630B7F88F
:1005700096300F2BD5D9FB6800225A63FB68002206
:100580009A63FB680022DA63FB6800221A64F86849
:10059000012109F029F8F868012109F045F8002344
:1005A0001846AC37BD4690BD00140040FF17004010
:1005B00000200040003802401F85EB510000014040
:1005C0000004014080B489B000AFF860B960114602
:1005D0001A460B46FB711346BB800023FB76FB6873
:1005E000DB78002B22D100237B610023FB61BB88D9
:1005F0000333002B00DA03339B107B61FB79FA682D
:1006000032339B0013449B683B610023FB6109E08C
:10061000BB681A683B691A60FB690133FB61BB6800
:100620000433BB60FA697B699A42F1D3FB7E1846BA
:100630002437BD465DF8047B704700BF80B489B0A5
:1006400000AFF860B9601346FB800023FB61FB88B4
:100650000333002B00DA03339B10BB61FB68D3F834
:10066000D0307B610023FB6109E07B691A68BB68BD
:100670001A60FB690133FB61BB680433BB60FA6934
:10068000BB699A42F1D3BB6818462437BD465DF872
:10069000047B704780B586B000AF78603960002376
:1006A000FB7400237B610023FB60FB6843F02003A5
:1006B000FB603B68DBB203F01F03DBB203F01F03F8
:1006C0009B01FA6822F4F8621343FB607B68DB68E5
:1006D000FA681A617B68DB681B69FB607B69013320
:1006E0007B617B69094A934200D906E0FB685B099C
:1006F00003F00103DBB2012BECD0032006F016FE61
:10070000FB7C18461837BD4680BD00BF400D030076
:1007100080B483B000AF78607B68DB685B6903F00E
:10072000010318460C37BD465DF8047B704700BFD7
:1007300080B582B000AF78607868FFF7E9FF0346C4
:10074000012B14BF01230023DBB218460837BD4636
:1007500080BD00BF80B485B000AF78600023FB602F
:100760007B68DB685B69FB607B68DB689B69FA68B8
:100770001340FB60FB6818461437BD465DF8047BE8
:10078000704700BF80B485B000AF78600023FB7372
:100790007B681B699B68BB603B7AC3F34103DBB298
:1007A000022B09D0032B04D0012B02D00323FB73AF
:1007B00005E00223FB7302E00123FB7300BFFB7B18
:1007C00018461437BD465DF8047B704780B487B087
:1007D00000AF78600023FB750023BB607B681B695A
:1007E0009B683B617B689B691B68FB603B7CC3F338
:1007F0004103DBB2022B04D0BB896FF30A03BB8138
:1008000005E0BB89032262F30A03BB8100BF7B685A
:100810009B69FA681A607B7A43F001037B727B68FC
:100820001B697A6812695168BA68D2431140BA6884
:100830000A435A60FB7D18461C37BD465DF8047BB1
:10084000704700BF80B487B000AF78603960002384
:10085000FB740023FB600023BB603B685B78012BCB
:100860000FD13B681B787A6804339B0013449B6864
:100870007B613B681B781A46012393409BB23B8106
:100880000EE03B681B787A6814339B0013445B6866
:100890007B613B681B781A46012393409BB27B81A6
:1008A0007B691B68FB607B7B23F07F03DBB2002B43
:1008B00027D13B689B689BB2C3F30A039AB2BB89FA
:1008C00062F30A03BB813B68DB7803F00303DAB20F
:1008D000BB7B62F38303BB733B68DB88DBB203F053
:1008E0000F03DAB2FB8962F38913FB81FB7B43F0D0
:1008F0001003FB737B7B43F080037B73FA687B6997
:100900001A607B681B697A681269D169BA680A4300
:10091000DA61FB7C18461C37BD465DF8047B7047E6
:1009200080B588B000AF786039600023FB77002382
:10093000BB6100237B6100233B613B685B78012B3B
:1009400040F0AB803B681B787A6804339B0013440B
:100950009B681B687B613B681B787A6804339B004B
:1009600013449B681B693B613B685B69002B09D1A1
:100970003B696FF312033B617B8A012262F3CC0374
:100980007B8222E03B685B69C3F312023B6962F33E
:1009900012033B613B685A693B689B6813445A1ECB
:1009A0003B689B68B2FBF3F39BB2C3F309039AB2B3
:1009B0007B8A62F3CC037B823B68DB78012B04D11A
:1009C000FB7C012262F34613FB743B681B787A6858
:1009D00004339B0013449B683A691A617B68DB7897
:1009E000012B0AD13B681B787A6804339B001344BF
:1009F0009B683A6812695A6115E03B68DB78012B05
:100A000011D03B685B69002B0DD03B681B781A4600
:100A100001239340BB617B681B697A681269516B43
:100A2000BA690A435A633B68DB78012B14D17B68AF
:100A30001B699B68FB60FB68C3F30D239BB203F04B
:100A40000103002B04D1FB7D43F02003FB7503E081
:100A5000FB7D43F01003FB75FB7D43F00403FB7546
:100A6000FB7D43F08003FB753B681B787A68043399
:100A70009B0013449B687A691A603B68DB78012B02
:100A800040F089803B68D9683B681A783B685B69AD
:100A90009BB27868FFF796FD7DE03B681B787A682B
:100AA00014339B0013445B681B687B613B681B78B5
:100AB0007A6814339B0013445B681B693B613B6895
:100AC0005B69002B0DD13B689B68C3F312023B6945
:100AD00062F312033B617B8A012262F3CC037B82C7
:100AE00020E03B685A693B689B6813445A1E3B6888
:100AF0009B68B2FBF3F39BB2C3F309039AB27B8A00
:100B000062F3CC037B827B8AC3F3C9039BB21A4690
:100B10003B689B6803FB02F3C3F312023B6962F379
:100B200012033B613B681B787A6814339B001344C3
:100B30005B683A691A617B68DB78012B09D13B68F5
:100B40001B787A6814339B0013445B683A68126917
:100B50005A613B68DB78012B0CD13B685B79002B39
:100B600004D0FB7D43F02003FB7503E0FB7D43F0E5
:100B70001003FB75FB7D43F00403FB75FB7D43F025
:100B80008003FB753B681B787A6814339B00134421
:100B90005B687A691A60FB7F18462037BD4680BDC6
:100BA00080B489B000AF786039600023FB77002300
:100BB000BB6100233B610023BB603B685B78012B7A
:100BC00070D17B689B697B617B691B683B617B693A
:100BD0001B69BB603B685B69002B09D13B7A6FF3F3
:100BE00006033B72BB7A012262F3C403BB7223E0AB
:100BF0003B685A693B689B689A420ED93B689A6881
:100C00003B685A613B689B68DBB203F07F03DAB252
:100C10003B7A62F306033B7209E03B685B69DBB237
:100C200003F07F03DAB23B7A62F306033B72BB7ACE
:100C3000012262F3C403BB72BA687B691A617B68E4
:100C4000DB78012B09D13B681B787A6804339B0061
:100C500013449B683A6812695A61FB7C43F00403B1
:100C6000FB74FB7C43F08003FB743A697B691A6078
:100C70007B68DB78002B76D13B685B69002B72D0F8
:100C80003B681B781A46012393401A46BB691343FD
:100C9000BB617B681B697A681269516BBA690A4348
:100CA0005A6360E03B681B787A6814339B001344F6
:100CB0005B681B683B613B681B787A6814339B0058
:100CC00013445B681B69BB603B685B69002B0FD1F9
:100CD0003B689B68DBB203F07F03DAB23B7A62F3D6
:100CE00006033B72BB7A012262F3C403BB7212E0BB
:100CF0003B689A683B685A613B689B68DBB203F0CB
:100D00007F03DAB23B7A62F306033B72BB7A0122BD
:100D100062F3C403BB723B681B787A6814339B0090
:100D200013445B68BA681A617B68DB78012B09D1D0
:100D30003B681B787A6814339B0013445B683A68FD
:100D400012695A61FB7C43F00403FB74FB7C43F0A3
:100D50008003FB743B681B787A6814339B00134450
:100D60005B683A691A60FB7F18462437BD465DF818
:100D7000047B704780B487B000AF7860396000238F
:100D8000FB750023FB603B685B78012B1CD13B6843
:100D90001B787A6804339B0013449B683B613B6972
:100DA0001B68FB60FB7B23F07F03DBB2002B03D0CF
:100DB000FB7B43F04003FB73BB7B43F02003BB731F
:100DC000FA683B691A6011E03B681B787A68143353
:100DD0009B0013445B683B613B691B68FB60BB7B0A
:100DE00043F02003BB73FA683B691A60FB7D184629
:100DF0001C37BD465DF8047B704700BF80B487B0E8
:100E000000AF786039600023FB740023FB603B680F
:100E10005B78012B08D13B681B787A6804339B0010
:100E200013449B687B6107E03B681B787A68143346
:100E30009B0013445B687B617B691B68FB60BB7B29
:100E40006FF34513BB733B68DB78032B03D03B6820
:100E5000DB78022B03D1FB7B43F01003FB73FA68B2
:100E60007B691A60FB7C18461C37BD465DF8047B25
:100E7000704700BF80B485B000AF78607B681B69A5
:100E80009B69FB607B681B69DB69FA681340FB6048
:100E9000FB681B0C18461437BD465DF8047B704791
:100EA00080B485B000AF78600B46FB70FB787A6841
:100EB00014339B0013445B689B68FB607B681B6971
:100EC0005B69FA681340FB60FB6818461437BD463F
:100ED0005DF8047B704700BF80B485B000AF7860D8
:100EE0007B681B699B69FB607B681B69DB69FA682F
:100EF0001340FB60FB689BB218461437BD465DF893
:100F0000047B704780B487B000AF786000233B61FA
:100F1000FB7C43F0C003FB74BB7C012262F3C4037F
:100F2000BB743B7C182262F306033B747B685B6DE9
:100F30003A691A617B68DB78012B16D10023FB60CC
:100F40007B685B6D7A6802F5B9625A617B685B6D9C
:100F50001B68FB60FB7B43F08003FB734FF0802337
:100F6000FB607B685B6DFA681A601C37BD465DF8F4
:100F7000047B704780B485B000AF78607B689B7A53
:100F8000002B1BD07B681B699B68FB603B7B03F0DD
:100F90000103DBB2002B11D07B6803F586731B685D
:100FA000BB603B7A6FF341033B723B7A6FF3000304
:100FB0003B727B68D3F80C31BA681A601437BD46AF
:100FC0005DF8047B704700BF80B584B000AF396026
:100FD00011461A460346FB710B46BB801346BB7194
:100FE0003B68254A934204D10120012104F096FF79
:100FF00022E03B68214A934204D10220012104F0FF
:101000008DFF19E03B681E4A934204D10420012160
:1010100004F084FF10E03B681A4A934204D1082090
:10102000012104F07BFF07E03B68174A934203D19C
:101030001020012104F072FF07F10803184605F0A3
:1010400075FDBB88BB60FB793B733B7EBB73BB7993
:10105000FB7303237B7307F108033868194605F017
:10106000D7FCFB79012B04D1BB883868194605F001
:10107000B9FD1037BD4680BD0000024000040240AB
:1010800000080240000C02400010024080B483B00F
:1010900000AF78600B46FB70FB78002B06D0094947
:1010A000084BDA6B7B681343CB6306E00549054BBD
:1010B000DA6B7B68DB431340CB630C37BD465DF8CE
:1010C000047B7047002C014080B485B000AF78608D
:1010D0000023FB73084B5A6B7B681340002B02D034
:1010E0000123FB7301E00023FB73FB7B18461437DD
:1010F000BD465DF8047B7047002C014080B483B08E
:1011000000AF7860034A7B6893630C37BD465DF897
:10111000047B7047002C014080B485B000AFF860BC
:10112000B9607A603B60FB68BA681A60FB687A68ED
:101130005A60FB683A689A60FB6818461437BD46E7
:101140005DF8047B704700BF80B584B000AF786065
:1011500039600023FB607B681B681B6820331B68B9
:101160007A681268104698470346002B14BF012383
:101170000023DBB2002B02D0FB680133FB607B68ED
:101180005B681B6820331B687A6852681046984772
:101190000346002B14BF01230023DBB2002B02D037
:1011A000FB680133FB607B689B681B680C331B6822
:1011B0007A689268104639684FF07E529847034625
:1011C000002B14BF01230023DBB2002B02D0FB68ED
:1011D0000133FB60FB6818461037BD4680BD00BF79
:1011E00080B582B000AF78603960386805494FF04B
:1011F0007E5200F0A7FC02467B68DA600837BD46E5
:1012000080BD00BF000080BFB0B582B000AF786085
:101210007B68DB6818464FF000010BF089FF03463E
:10122000002B24D07B681B681B6834331B687A68EA
:101230001268104698477B685B681B6838331B68E8
:101240007A685268104698477B689B681B68103321
:101250001C687B689D687B68DB684FF07E50194690
:101260000BF0A0FC034628461946A0474BE07B68DC
:10127000DB6818464FF000010BF03CFF0346002BE3
:1012800024D07B681B681B6838331B687A68126837
:10129000104698477B685B681B6834331B687A6824
:1012A0005268104698477B689B681B6810331C681F
:1012B0007B689D687B68DB6818464FF07E510BF0B9
:1012C00073FC034628461946A0471CE07B681B6850
:1012D0001B6834331B687A681268104698477B682D
:1012E0005B681B6834331B687A68526810469847FD
:1012F0007B689B681B6810331B687A68926810468D
:101300004FF07E5198470837BD46B0BD80B500AF5D
:101310000E4B1B889BB21B099BB2002B05D00C4BBC
:101320001B68013B0A4A13600BE0084B1B889BB209
:101330001B099BB2002B04D1054B1B680133044AE7
:1013400013600248012108F081FC80BD00000140CB
:101350002C09002080B500AF4FF080431B889BB262
:101360001B099BB2002B05D00C4B1B68013B0B4AA1
:1013700013600CE04FF080431B889BB21B099BB2AB
:10138000002B04D1054B1B680133044A13604FF056
:101390008040012108F05AFC80BD00BF30090020C8
:1013A00080B500AF0E4B1B889BB21B099BB2002B74
:1013B00005D00C4B1B68013B0A4A13600BE0084B3D
:1013C0001B889BB21B099BB2002B04D1054B1B68E9
:1013D0000133044A13600248012108F037FC80BD44
:1013E000000400403409002080B500AF0E4B1B887C
:1013F0009BB21B099BB2002B05D00C4B1B68013B19
:101400000A4A13600BE0084B1B889BB21B099BB276
:10141000002B04D1054B1B680133044A13600248BA
:10142000012108F013FC80BD0008004038090020AD
:1014300080B500AF0E4B1B889BB21B099BB2002BE3
:1014400005D00C4B1B68013B0A4A13600BE0084BAC
:101450001B889BB21B099BB2002B04D1054B1B6858
:101460000133044A13600248012108F0EFFB80BDFC
:10147000000C00403C09002080B500AF0E4B1B88DB
:101480009BB21B099BB2002B05D00C4B1B68013B88
:101490000A4A13600BE0084B1B889BB21B099BB2E6
:1014A000002B04D1054B1B680133044A136002482A
:1014B000012108F0CBFB80BD000401404009002061
:1014C00080B500AF0E4B1B889BB21B099BB2002B53
:1014D00005D00C4B1B68013B0A4A13600BE0084B1C
:1014E0001B889BB21B099BB2002B04D1054B1B68C8
:1014F0000133044A13600248012108F0A7FB80BDB4
:10150000001800404409002080B500AF044808F0EE
:101510005FF80246034B1B681B041344184680BD4A
:10152000000001402C09002080B500AF4FF0804042
:1015300008F04EF80246034B1B681B041344184680
:1015400080BD00BF3009002080B500AF044808F01E
:101550003FF80246034B1B681B041344184680BD2A
:10156000000400403409002080B500AF044808F0B2
:101570002FF80246034B1B681B041344184680BD1A
:10158000000800403809002080B500AF044808F08A
:101590001FF80246034B1B681B041344184680BD0A
:1015A000000C00403C09002080B500AF044808F062
:1015B0000FF80246034B1B681B041344184680BDFA
:1015C000000401404009002080B500AF044807F046
:1015D000FFFF0246034B1B681B041344184680BDE3
:1015E000001800404409002090B59DB002AFF8609B
:1015F000B9601346FB800023A7F866300023A7F8E4
:101600006430F86807F0B8F9FA88002300930220E4
:10161000B9680123FFF7D8FCFA8807F120031046C8
:10162000194607F027F80023A7F8663025E0B7F839
:1016300066305B0007F16802134433F8483C012B25
:1016400016D1B7F8663010335B0007F16802134417
:1016500033F8463C184607F013FB03469CB2F86883
:1016600007F084FB0346B86821461A4605F0C8FA1D
:10167000B7F866300133A7F86630B7F866300F2B3D
:10168000D5D91D4B1B681D4AA2FB03235B0E9BB2E1
:10169000013BA7F864304FF6FE73BB610023BB82A9
:1016A0000023BB830023FB8207F11403F86819466B
:1016B00007F002FFB7F86430F8681946012207F016
:1016C00065FFF86803210022002308F0CFFAF868CC
:1016D0000121012208F096FAF868012107F0A4FF21
:1016E000F86807F0FFF80346184607F0B3FA00F071
:1016F00055F86C37BD4690BD4000002029D94266A0
:1017000080B582B000AF78607B681E4A934203D1F7
:10171000FFF7FAFE034630E07B68B3F1804F03D158
:10172000FFF702FF034628E07B68174A934203D184
:10173000FFF70AFF034620E07B68144A934203D177
:10174000FFF712FF034618E07B68114A934203D16A
:10175000FFF71AFF034610E07B680E4A934203D15D
:10176000FFF722FF034608E07B680B4A934203D150
:10177000FFF72AFF034600E0002318460837BD465E
:1017800080BD00BF00000140000400400008004090
:10179000000C0040000401400018004080B500AF7C
:1017A000194B00221A60194B00221A60184B0022B4
:1017B0001A60184B00221A60174B00221A60174B50
:1017C00000221A60164B00221A601648002107F00A
:1017D000F1FE4FF08040002107F0ECFE124800219E
:1017E00007F0E8FE1148002107F0E4FE1048002150
:1017F00007F0E0FE0F48002107F0DCFE0E48002154
:1018000007F0D8FE80BD00BF2C0900203009002061
:1018100034090020380900203C090020400900203C
:10182000440900200000014000040040000800407E
:10183000000C0040000401400018004080B500AFDB
:10184000014806F0D9F980BD4012002080B500AFF4
:10185000094B9B7A002B0AD0084A084B1B6823F0DF
:101860000603136005F014FA0348FFF783FB4FF4F7
:10187000802006F0F1FE80BD4012002010ED00E057
:1018800080B58AB000AF7860396000237B620023A6
:101890003B620023FB610023BB617B681B8A9BB218
:1018A0007B627B6A23F440537B623B68DB881A4689
:1018B0007B6A13437B627B6A9AB27B681A827B687D
:1018C0009B899BB27B627B6A23F4B05323F00C03A9
:1018D0007B623B689A883B681B8913439AB23B68DA
:1018E0005B8913439BB21A467B6A13437B627B6A14
:1018F0009AB27B689A817B689B8A9BB27B627B6A87
:1019000023F440737B623B689B891A467B6A1343CE
:101910007B627B6A9AB27B689A8207F10803184659
:1019200004F052FA7B68314A934203D07B68304A14
:10193000934202D17B693B6201E03B693B627B6879
:101940009B899BB29BB21BB2002B0CDA3A6A1346FE
:101950009B0013449A001A443B681B685B00B2FB6F
:10196000F3F3FB610BE03A6A13469B0013449A00C1
:101970001A443B681B689B00B2FBF3F3FB61FB69F5
:101980001C4AA2FB03235B091B017B627B6A1B09C8
:10199000642202FB03F3FA69D31ABB617B689B895B
:1019A0009BB29BB21BB2002B0CDABB69DB0032335B
:1019B000104AA2FB03235B0903F007037A6A13436F
:1019C0007B620BE0BB691B0132330A4AA2FB032393
:1019D0005B0903F00F037A6A13437B627B6A9AB256
:1019E0007B681A812837BD4680BD00BF00100140CA
:1019F000001401401F85EB5180B483B000AF7860C4
:101A00000B46FB70FB78002B08D07B689B899BB250
:101A100043F400539AB27B689A8107E07B689B8904
:101A20009BB223F400539AB27B689A810C37BD466F
:101A30005DF8047B704700BF80B483B000AF78606E
:101A40000B467B807B88C3F308039AB27B689A803D
:101A50000C37BD465DF8047B704700BF80B483B08F
:101A600000AF78607B689B889BB2C3F308039BB28E
:101A700018460C37BD465DF8047B704780B487B0CC
:101A800000AF78600B467B8013467B7000233B6180
:101A90000023FB600023BB6000237B617B687B61CC
:101AA0007B88DBB25B09DBB23B617B8803F01F0301
:101AB000FB60FB68012202FA03F3BB603B69012B68
:101AC00003D17B690C337B6109E03B69022B03D1B5
:101AD0007B6910337B6102E07B6914337B617B7827
:101AE000002B06D07B697A691168BA680A431A60CC
:101AF00006E07B697A691168BA68D2430A401A60C5
:101B00001C37BD465DF8047B704700BF80B485B0CC
:101B100000AF78600B467B800023FB737B681B88DB
:101B20009AB27B8813409BB2002B02D00123FB7337
:101B300001E00023FB73FB7B18461437BD465DF8BC
:101B4000047B704780B584B000AFF860B9607A60FC
:101B5000F868B9680BF0CEFA0346002B01D0BB68D9
:101B600009E07868F9680BF0C5FA0346002B01D04C
:101B70007B6800E0FB6818461037BD4680BD00BF9B
:101B800080B400AF064BD3E90023013243F10003D8
:101B90000349C1E90023BD465DF8047B704700BFDF
:101BA0004809002080B500AF00F010F802460B464F
:101BB000104619464FF47A724FF000030BF008FB01
:101BC00002460B461046194680BD00BF80B400AFE8
:101BD000094BD3E90023921843EB0303990041EA30
:101BE00092719000121843EB010310461946BD464E
:101BF0005DF8047B704700BF4809002080B500AF46
:101C0000014804F05BFE80BDACC5273780B584B0C9
:101C100000AFC7E900010023FB60FFF7C3FF0246E6
:101C20000B461346FB6000BFFFF7BCFFFB681A467C
:101C30004FEAE273821A61EB0303D7E90001904295
:101C400071EB0303F0DA1037BD4680BD80B582B07A
:101C500000AFC7E90001D7E90001FFF7D7FF083758
:101C6000BD4680BD80B582B000AF104B7B60104B8D
:101C70003B6007E03B681A1D3A607A68111D796085
:101C800012681A603B680B4A9342F3D30A480B4927
:101C90004FF000028842B8BF40F8042BFADB04F092
:101CA000B5F903F0BDFD0837BD4680BD102D020813
:101CB000000000200C09002010090020341800202A
:101CC00080B400AFFEE700BF80B584B000AF78609D
:101CD00007F108037868194605F022FF3B7A03F004
:101CE0001F03012B0AD0022B0FD0002B14D107F1B8
:101CF00008037868194605F03DFB16E007F1080374
:101D00007868194605F086FB0FE007F1080378684C
:101D1000194605F0B3FB08E03B7A23F07F03DBB202
:101D20007868194607F0C2F900BF0023184610373B
:101D3000BD4680BD80B584B000AF78600B46FB70B7
:101D4000FB78002B44D17B6803F55C73FB607B68F8
:101D500093F81131032B4ED1FB68DA69FB689B685D
:101D60009A4220D9FB68DA69FB689B68D21AFB6843
:101D7000DA617B68DB78012B06D1FB68DA68FB68E7
:101D80009B681A44FB68DA60FB68D968FB689A684C
:101D9000FB68DB69934228BF13469BB278681A46FA
:101DA00007F0D8FA27E07B68D3F8E0351B69002BF1
:101DB0000AD07B6893F81231032B05D17B68D3F8E6
:101DC000E0351B6978689847786807F0D7FA12E021
:101DD0007B68D3F8E0359B69002B0CD07B6893F8C7
:101DE0001231032B07D17B68D3F8E0359B69FA7871
:101DF000786811469847002318461037BD4680BDC5
:101E000080B584B000AF78600B46FB70FB78002B88
:101E100060D17B6803F58C73FB607B6893F81131AC
:101E2000022B6AD1FB68DA69FB689B689A421CD96D
:101E3000FB68DA69FB689B68D21AFB68DA617B6829
:101E4000DB78012B06D1FB68DA68FB689B681A44D3
:101E5000FB68DA60FB68DA68FB68DB699BB278686C
:101E600011461A4607F062FA47E0FB681B6AFA68F7
:101E70009268B3FBF2F102FB01F29B1A002B14D122
:101E8000FB681A6AFB689B689A420ED3FB681A6A61
:101E9000FB685B6A9A4208D278680021002207F04A
:101EA00045FAFB6800225A6227E07B68D3F8E035E8
:101EB000DB68002B0AD07B6893F81231032B05D125
:101EC0007B68D3F8E035DB6878689847786807F076
:101ED0006DFA12E07B68D3F8E0355B69002B0CD01B
:101EE0007B6893F81231032B07D17B68D3F8E03578
:101EF0005B69FA78786811469847002318461037CE
:101F0000BD4680BD80B582B000AF786078680021A2
:101F10004022002306F0F8FF786880214022002349
:101F200006F0F2FF7B68012283F812217B68D3F868
:101F3000E4355B687A689278104698470023184623
:101F40000837BD4680BD00BF80B582B000AF786065
:101F50007B68D3F8E4351B6998477B68032283F8D4
:101F60001221002318460837BD4680BD80B582B0D7
:101F700000AF78607B68042283F812217B68D3F875
:101F8000E435DB689847002318460837BD4680BD16
:101F900080B582B000AF78607B68D3F8E035DB694C
:101FA000002B05D07B68D3F8E035DB69786898476B
:101FB000002318460837BD4680BD00BF80B582B0FB
:101FC00000AF78600B46FB707B68D3F8E0351B6888
:101FD000FA787868114698477B68D3F8E4359B68AF
:101FE0009847002318460837BD4680BD80B582B0AB
:101FF00000AF78600B46FB707B68D3F8E0355B6818
:10200000FA78786811469847002318460837BD4685
:1020100080BD00BF80B582B000AF78607B68D3F828
:10202000E0351B6A78689847002318460837BD4694
:1020300080BD00BF80B582B000AF78607B68D3F808
:10204000E0355B6A78689847002318460837BD4634
:1020500080BD00BF80B483B000AF786039600C37BA
:10206000BD465DF8047B704780B582B000AF7860F4
:102070007B68064A1A607B681033184603F0D6F96D
:102080007B6818460837BD4680BD00BFA8F8010828
:1020900080B582B000AF786039607B681846FFF782
:1020A000E3FF7B68074A1A607B683A68C3F820211F
:1020B0007B680022C3F81C217B6818460837BD46A0
:1020C00080BD00BFB0F6010880B582B000AF786077
:1020D0000B46FB707B6803F11002FB781046194633
:1020E00003F0B8F90346002B0CBF01230023DBB239
:1020F000002B0AD0FB780D2B13D17B68D3F81C3151
:102100005A1C7B68C3F81C210BE07B68D3F81C3198
:10211000002B06D1FB780D2B03D17B680122C3F87D
:102120001C210837BD4680BD80B582B000AF786005
:102130007B681033184603F0BDF90346002B0CBF33
:1021400001230023DBB218460837BD4680BD00BF1F
:1021500080B483B000AF78607B68D3F81C31184638
:102160000C37BD465DF8047B704700BF80B582B078
:1021700000AF78607B681033184603F0B1F903466E
:1021800018460837BD4680BD90B585B000AF786071
:1021900039607B681033184603F08CF90346002B36
:1021A00014BF01230023DBB2002B08D03B680022C0
:1021B0001A707B680022C3F81C21002354E000231E
:1021C000FB604DE0FB683A68D4187B681033184612
:1021D00003F086F903462370FB683A6813441B78C2
:1021E0000D2B02D0FB68FE2B1FDDFB683A68134401
:1021F00000221A707B681033184603F05BF903461F
:10220000002B14BF01230023DBB2002B04D07B681A
:102210000022C3F81C2106E07B68D3F81C315A1E4B
:102220007B68C3F81C21FB681EE07B6810331846EE
:1022300003F040F90346002B14BF01230023DBB257
:10224000002B0AD0FB683A68134400221A707B689E
:102250000022C3F81C21FB6806E0FB680133FB6029
:10226000FB68FF2BAEDD002318461437BD4690BD3A
:1022700080B582B000AF78607B689B68012B06D187
:102280007B685B681846FFF763FF034600E00023A6
:1022900018460837BD4680BD80B582B000AF786073
:1022A00039603B6800221A707B689B68012B07D15C
:1022B0007B685B6818463968FFF766FF034600E0F5
:1022C000002318460837BD4680BD00BF80B582B0E8
:1022D00000AF78607B689B68012B06D17B685B68E8
:1022E0001846FFF721FF034600E000231846083791
:1022F000BD4680BD80B582B000AF78607B689B68CA
:10230000012B06D17B685B681846FFF72FFF034659
:1023100000E0002318460837BD4680BD80B584B074
:1023200000AF786039600023FB600DE07B681B68BC
:1023300004331B68FA6839680A44127878681146D1
:102340009847FB680133FB60FB683A6813441B78CD
:10235000002BEBD11037BD4680BD00BF90B587B0D4
:1023600002AFF860B9607A603B60FB6802229A6055
:10237000FB681B681C683B680093F868B9687A685A
:102380003B6AA047034618461437BD4690BD00BFC0
:1023900090B587B002AFF860B9607A603B60FB68C7
:1023A00001229A604FF4927012F00EFA0446204611
:1023B000F968FFF76DFEFB685C60FB681B681C68D2
:1023C000FB685B681A467B680093F868B9683B68ED
:1023D000A047034618461437BD4690BD80B584B06B
:1023E00000AF78607B681B680C331B68786898477F
:1023F0000346FB60FB68002B01D0FB6803E07B68B1
:1024000001225A60002318461037BD4680BD00BF28
:1024100080B584B000AF78607B681B6810331B68A0
:10242000786898470346FB60FB68002B01D0FB6887
:1024300003E07B6802225A60002318461037BD462D
:1024400080BD00BF80B584B000AF78607B681B683A
:1024500014331B68786898470346FB60FB68002BC1
:1024600001D0FB6803E07B6803225A600023184612
:102470001037BD4680BD00BF80B584B000AF786026
:102480007B681B6818331B68786898470346FB60B5
:10249000FB68002B01D0FB6803E07B6804225A60D4
:1024A000002318461037BD4680BD00BF80B582B0FE
:1024B00000AF786039607B685B68002B00D125E055
:1024C0007B685B68022B07D17B681B6804331B6841
:1024D00078683968984719E03B68012B06D17B681A
:1024E0001B6824331B68786898470FE03B68002B13
:1024F00006D17B681B6828331B687868984705E01D
:102500007B681B681C331B68786898470837BD4692
:1025100080BD00BF80B582B000AF78607B685B682B
:10252000002B01D1002311E07B685B68012B07D1F0
:102530007B681B6808331B6878689847034605E08A
:102540007B681B681B6878689847034618460837FD
:10255000BD4680BD80B582B000AF78607B681B68E7
:102560002C331B687868012198470837BD4680BD29
:1025700080B582B000AF78607B681B682C331B6825
:102580007868002198470837BD4680BD90B583B074
:1025900000AF78607B681B682C331C687B681B6805
:1025A00030331B68786898470346002B0CBF012323
:1025B0000023DBB278681946A0470C37BD4690BDB2
:1025C00080B582B000AF78607B681B681B68786854
:1025D0009847034618460837BD4680BD80B582B08F
:1025E00000AF78607B681B6804331B687868984785
:1025F000034618460837BD4680BD00BF80B584B08D
:1026000000AFF860B9607A60FB681B681B68F86807
:10261000B9687A689847034618461037BD4680BDAA
:1026200080B582B000AF786039607B681B68043386
:102630001B687868396898470837BD4680BD00BF79
:1026400080B582B000AF78607B681B6808331B6878
:1026500078689847034618460837BD4680BD00BFD6
:1026600080B483B000AF786040F6FF7318460C3733
:10267000BD465DF8047B7047A0F10800F0E700BF9D
:1026800080B483B000AF7860034B18460C37BD466A
:102690005DF8047B704700BF33335340A0F108005E
:1026A000EEE700BF80B483B000AF786040F6FF7300
:1026B00018460C37BD465DF8047B7047A0F1080052
:1026C000F0E700BF80B483B000AF7860034B1846DA
:1026D0000C37BD465DF8047B704700BF3333534071
:1026E000A0F10800EEE700BF80B483B000AF7860CF
:1026F00040F6FF7318460C37BD465DF8047B704703
:10270000A0F10800F0E700BF80B483B000AF7860AC
:10271000034B18460C37BD465DF8047B704700BF7D
:1027200033335340A0F10800EEE700BF80B483B01C
:1027300000AF786040F6FF7318460C37BD465DF871
:10274000047B7047A0F10800F0E700BF80B483B0BD
:1027500000AF7860034B18460C37BD465DF8047B2C
:10276000704700BF33335340A0F10800EEE700BFCD
:1027700080B483B000AF786040F6FF7318460C3722
:10278000BD465DF8047B7047A0F10800F0E700BF8C
:1027900080B483B000AF7860034B18460C37BD4659
:1027A0005DF8047B704700BF33335340A0F108004D
:1027B000EEE700BF80B582B000AF786004484FF408
:1027C000805104F0E7F9034618460837BD4680BD3E
:1027D0000004024080B582B000AF786039603B6889
:1027E000002B05D106484FF4805104F0FBF904E0BA
:1027F00003484FF4805104F0E7F90837BD4680BD27
:102800000004024080B582B000AF786004484FF405
:10281000805104F0A5F9034618460837BD4680BD2F
:102820000004024080B584B002AF786000230093BA
:10283000002005494FF480520023FEF7C5FB00231A
:1028400018460837BD4680BD0004024080B584B0FC
:1028500002AF786000230093012005494FF48052B5
:102860000023FEF7B1FB002318460837BD4680BDA4
:102870000004024080B584B002AF7860002300936A
:10288000002005494FF480520123FEF79DFB0023F1
:1028900018460837BD4680BD0004024080B584B0AC
:1028A00002AF786000230093002005494FF4805266
:1028B0000223FEF789FB002318460837BD4680BD7A
:1028C0000004024080B582B000AF786004484FF445
:1028D000004104F05FF9034618460837BD4680BD45
:1028E0000010024080B582B000AF786039603B686C
:1028F000002B05D106484FF4004104F073F904E0C1
:1029000003484FF4004104F05FF90837BD4680BD2D
:102910000010024080B582B000AF786004484FF4E8
:10292000004104F01DF9034618460837BD4680BD36
:102930000010024080B584B002AF7860002300939D
:10294000002005494FF400420023FEF73DFB012320
:1029500018460837BD4680BD0010024080B584B0DF
:1029600002AF786000230093012005494FF4004234
:102970000023FEF729FB002318460837BD4680BD1B
:102980000010024080B584B002AF7860002300934D
:10299000002005494FF400420123FEF715FB0123F7
:1029A00018460837BD4680BD0010024080B584B08F
:1029B00002AF786000230093002005494FF40042E5
:1029C0000223FEF701FB002318460837BD4680BDF1
:1029D0000010024080B582B000AF786004484FF428
:1029E000804104F0D7F8034618460837BD4680BD3D
:1029F0000004024080B582B000AF786039603B6867
:102A0000002B05D106484FF4804104F0EBF804E0B8
:102A100003484FF4804104F0D7F80837BD4680BD25
:102A20000004024080B582B000AF786004484FF4E3
:102A3000804104F095F8034618460837BD4680BD2E
:102A40000004024080B584B002AF78600023009398
:102A5000002005494FF480420023FEF7B5FA002319
:102A600018460837BD4680BD0004024080B584B0DA
:102A700002AF786000230093012005494FF48042A3
:102A80000023FEF7A1FA002318460837BD4680BD93
:102A90000004024080B584B002AF78600023009348
:102AA000002005494FF480420123FEF78DFA0023F0
:102AB00018460837BD4680BD0004024080B584B08A
:102AC00002AF786000230093002005494FF4804254
:102AD0000223FEF779FA002318460837BD4680BD69
:102AE0000004024080B582B000AF786004484FF423
:102AF000004104F04FF8034618460837BD4680BD34
:102B00000004024080B582B000AF786039603B6855
:102B1000002B05D106484FF4004104F063F804E0AF
:102B200003484FF4004104F04FF80837BD4680BD1C
:102B30000004024080B582B000AF786004484FF4D2
:102B4000004104F00DF8034618460837BD4680BD25
:102B50000004024080B584B002AF78600023009387
:102B6000002005494FF400420023FEF72DFA002310
:102B700018460837BD4680BD0004024080B584B0C9
:102B800002AF786000230093012005494FF4004212
:102B90000023FEF719FA002318460837BD4680BD0A
:102BA0000004024080B584B002AF78600023009337
:102BB000002005494FF400420123FEF705FA0023E7
:102BC00018460837BD4680BD0004024080B584B079
:102BD00002AF786000230093002005494FF40042C3
:102BE0000223FEF7F1F9002318460837BD4680BDE1
:102BF0000004024080B582B000AF786004484FF412
:102C0000004103F0C7FF034618460837BD4680BDA4
:102C10000000024080B582B000AF786039603B6848
:102C2000002B05D106484FF4004103F0DBFF04E020
:102C300003484FF4004103F0C7FF0837BD4680BD8D
:102C40000000024080B582B000AF786004484FF4C5
:102C5000004103F085FF034618460837BD4680BD96
:102C60000000024080B584B002AF7860002300937A
:102C7000002005494FF400420023FEF7A5F9002388
:102C800018460837BD4680BD0000024080B483B0BE
:102C900000AF7860012318460C37BD465DF8047B11
:102CA000704700BF80B584B002AF78600023009306
:102CB000002005494FF400420123FEF785F9002367
:102CC00018460837BD4680BD0000024080B584B07C
:102CD00002AF786000230093002005494FF40042C2
:102CE0000223FEF771F9002318460837BD4680BD60
:102CF0000000024080B582B000AF786004484FF415
:102D0000005103F047FF034618460837BD4680BD13
:102D10000004024080B582B000AF786039603B6843
:102D2000002B05D106484FF4005103F05BFF04E08F
:102D300003484FF4005103F047FF0837BD4680BDFC
:102D40000004024080B582B000AF786004484FF4C0
:102D5000005103F005FF034618460837BD4680BD05
:102D60000004024080B584B002AF78600023009375
:102D7000002005494FF400520023FEF725F90023F7
:102D800018460837BD4680BD0004024080B483B0B9
:102D900000AF7860012318460C37BD465DF8047B10
:102DA000704700BF80B584B002AF78600023009305
:102DB000002005494FF400520123FEF705F90023D6
:102DC00018460837BD4680BD0004024080B584B077
:102DD00002AF786000230093002005494FF40052B1
:102DE0000223FEF7F1F8002318460837BD4680BDE0
:102DF0000004024080B582B000AF786004484FF410
:102E0000006103F0C7FE034618460837BD4680BD83
:102E1000000C024080B582B000AF786039603B683A
:102E2000002B05D106484FF4006103F0DBFE04E0FF
:102E300003484FF4006103F0C7FE0837BD4680BD6C
:102E4000000C024080B582B000AF786004484FF4B7
:102E5000006103F085FE034618460837BD4680BD75
:102E6000000C024080B584B002AF7860002300936C
:102E7000002005494FF400620023FEF7A5F8002367
:102E800018460837BD4680BD000C024080B483B0B0
:102E900000AF7860012318460C37BD465DF8047B0F
:102EA000704700BF80B584B002AF78600023009304
:102EB000002005494FF400620123FEF785F8002346
:102EC00018460837BD4680BD000C024080B584B06E
:102ED00002AF786000230093002005494FF40062A0
:102EE0000223FEF771F8002318460837BD4680BD5F
:102EF000000C024080B582B000AF786004484FF407
:102F0000806103F047FE034618460837BD4680BD82
:102F1000000C024080B582B000AF786039603B6839
:102F2000002B05D106484FF4806103F05BFE04E0FE
:102F300003484FF4806103F047FE0837BD4680BD6B
:102F4000000C024080B582B000AF786004484FF4B6
:102F5000806103F005FE034618460837BD4680BD74
:102F6000000C024080B584B002AF7860002300936B
:102F7000002005494FF480620023FEF725F8002366
:102F800018460837BD4680BD000C024080B483B0AF
:102F900000AF7860012318460C37BD465DF8047B0E
:102FA000704700BF80B584B002AF78600023009303
:102FB000002005494FF480620123FEF705F8002345
:102FC00018460837BD4680BD000C024080B584B06D
:102FD00002AF786000230093002005494FF480621F
:102FE0000223FDF7F1FF002318460837BD4680BDD8
:102FF000000C024080B582B000AF78600448022126
:1030000003F0C8FD034618460837BD4680BD00BF23
:103010000004024080B582B000AF786039603B6840
:10302000002B04D10548022103F0DCFD03E0034836
:10303000022103F0C9FD0837BD4680BD00040240EF
:1030400080B582B000AF78600448022103F088FDAB
:10305000034618460837BD4680BD00BF0004024045
:1030600080B584B002AF786000230093002005494A
:1030700002220023FDF7A8FF002318460837BD46AB
:1030800080BD00BF0004024080B584B002AF78600C
:10309000002300930120054902220023FDF794FF3D
:1030A000002318460837BD4680BD00BF000402401B
:1030B00080B584B002AF78600023009300200549FA
:1030C00002220123FDF780FF002318460837BD4682
:1030D00080BD00BF0004024080B584B002AF7860BC
:1030E000002300930020054902220223FDF76CFF14
:1030F000002318460837BD4680BD00BF00040240CB
:1031000080B582B000AF78600448102103F042FD22
:10311000034618460837BD4680BD00BF0000024088
:1031200080B582B000AF786039603B68002B04D175
:103130000548102103F056FD03E00348102103F079
:1031400043FD0837BD4680BD0000024080B582B017
:1031500000AF78600448102103F002FD03461846D2
:103160000837BD4680BD00BF0000024080B584B076
:1031700002AF78600023009300200549102200234D
:10318000FDF722FF002318460837BD4680BD00BF6B
:103190000000024080B584B002AF78600023009345
:1031A0000120054910220023FDF70EFF00231846D9
:1031B0000837BD4680BD00BF0000024080B584B026
:1031C00002AF7860002300930020054910220123FC
:1031D000FDF7FAFE002318460837BD4680BD00BF44
:1031E0000000024080B584B002AF786000230093F5
:1031F0000020054910220223FDF7E6FE00231846B1
:103200000837BD4680BD00BF0000024080B582B0D7
:1032100000AF78600448012103F0BCFC0346184667
:103220000837BD4680BD00BF0008024080B582B0AF
:1032300000AF786039603B68002B04D1054801215C
:1032400003F0D0FC03E00348012103F0BDFC083784
:10325000BD4680BD0008024080B582B000AF7860F6
:103260000448012103F07CFC034618460837BD469C
:1032700080BD00BF0008024080B584B002AF786016
:10328000002300930020054901220023FDF79CFE46
:10329000002318460837BD4680BD00BF0008024025
:1032A00080B584B002AF7860002300930120054907
:1032B00001220023FDF788FE002318460837BD468B
:1032C00080BD00BF0008024080B584B002AF7860C6
:1032D000002300930020054901220123FDF774FE1D
:1032E000002318460837BD4680BD00BF00080240D5
:1032F00080B584B002AF78600023009300200549B8
:1033000001220223FDF760FE002318460837BD4660
:1033100080BD00BF0008024080B582B000AF786079
:1033200004484FF4805103F035FC03461846083733
:10333000BD4680BD0010024080B582B000AF78600D
:1033400039603B68002B05D106484FF4805103F0EB
:1033500049FC04E003484FF4805103F035FC083782
:10336000BD4680BD0010024080B582B000AF7860DD
:1033700004484FF4805103F0F3FB03461846083726
:10338000BD4680BD0010024080B584B002AF7860B9
:1033900000230093002005494FF480520023FDF7DD
:1033A00013FE002318460837BD4680BD00100240BA
:1033B00080B584B002AF78600023009301200549F6
:1033C0004FF480520023FDF7FFFD00231846083715
:1033D000BD4680BD0010024080B584B002AF786069
:1033E00000230093002005494FF480520123FDF78C
:1033F000EBFD002318460837BD4680BD0010024093
:1034000080B584B002AF78600023009300200549A6
:103410004FF480520223FDF7D7FD002318460837EA
:10342000BD4680BD0010024080B582B000AF78601C
:103430000448202103F0AEFB034618460837BD467A
:1034400080BD00BF0000024080B582B000AF786050
:1034500039603B68002B04D10548202103F0C2FBF2
:1034600003E00348202103F0AFFB0837BD4680BDD1
:103470000000024080B582B000AF7860044820218F
:1034800003F06EFB034618460837BD4680BD00BFFB
:103490000000024080B584B002AF78600023009342
:1034A0000020054920220023FDF78EFD0023184649
:1034B0000837BD4680BD00BF0000024080B584B023
:1034C00002AF7860002300930120054920220023E9
:1034D000FDF77AFD002318460837BD4680BD00BFC2
:1034E0000000024080B584B002AF786000230093F2
:1034F0000020054920220123FDF766FD0023184620
:103500000837BD4680BD00BF0000024080B584B0D2
:1035100002AF786000230093002005492022022397
:10352000FDF752FD002318460837BD4680BD00BF99
:103530000000024080B582B000AF786004480421EA
:1035400003F028FB034618460837BD4680BD00BF80
:103550000004024080B582B000AF786039603B68FB
:10356000002B04D10548042103F03CFB03E0034891
:10357000042103F029FB0837BD4680BD000402404A
:1035800080B582B000AF78600448042103F0E8FA07
:10359000034618460837BD4680BD00BF0004024000
:1035A00080B584B002AF7860002300930020054905
:1035B00004220023FDF708FD002318460837BD4606
:1035C00080BD00BF0004024080B584B002AF7860C7
:1035D000002300930120054904220023FDF7F4FC99
:1035E000002318460837BD4680BD00BF00040240D6
:1035F00080B584B002AF78600023009300200549B5
:1036000004220123FDF7E0FC002318460837BD46DD
:1036100080BD00BF0004024080B584B002AF786076
:10362000002300930020054904220223FDF7CCFC6F
:10363000002318460837BD4680BD00BF0004024085
:1036400080B582B000AF78600448802103F0A2FA10
:10365000034618460837BD4680BD00BF0010024033
:1036600080B582B000AF786039603B68002B04D130
:103670000548802103F0B6FA03E00348802103F0F7
:10368000A3FA0837BD4680BD0010024080B582B065
:1036900000AF78600448802103F062FA03461846C0
:1036A0000837BD4680BD00BF0010024080B584B021
:1036B00002AF786000230093002005498022002398
:1036C000FDF782FC002318460837BD4680BD00BFC9
:1036D0000010024080B584B002AF786000230093F0
:1036E0000120054980220023FDF76EFC00231846C7
:1036F0000837BD4680BD00BF0010024080B584B0D1
:1037000002AF786000230093002005498022012346
:10371000FDF75AFC002318460837BD4680BD00BFA0
:103720000010024080B584B002AF7860002300939F
:103730000020054980220223FDF746FC002318469D
:103740000837BD4680BD00BF0010024080B582B082
:1037500000AF786004484FF4806103F01BFA034621
:1037600018460837BD4680BD0010024080B582B0C3
:1037700000AF786039603B68002B05D106484FF4F4
:10378000806103F02FFA04E003484FF4806103F0F6
:103790001BFA0837BD4680BD0010024080B582B0DC
:1037A00000AF786004484FF4806103F0D9F9034614
:1037B00018460837BD4680BD0010024080B584B071
:1037C00002AF786000230093002005494FF4806227
:1037D0000023FDF7F9FB002318460837BD4680BDDE
:1037E0000010024080B584B002AF786000230093DF
:1037F000012005494FF480620023FDF7E5FB00231B
:1038000018460837BD4680BD0010024080B584B020
:1038100002AF786000230093002005494FF48062D6
:103820000123FDF7D1FB002318460837BD4680BDB4
:103830000010024080B584B002AF7860002300938E
:10384000002005494FF480620223FDF7BDFB0023F1
:1038500018460837BD4680BD0010024080B582B0D2
:1038600000AF78600448012103F094F9034618463C
:103870000837BD4680BD00BF0004024080B582B05D
:1038800000AF786039603B68002B04D10548012106
:1038900003F0A8F903E00348012103F095F9083784
:1038A000BD4680BD0004024080B582B000AF7860A4
:1038B0000448012103F054F9034618460837BD4671
:1038C00080BD00BF0004024080B584B002AF7860C4
:1038D000002300930020054901220023FDF774FB1B
:1038E000002318460837BD4680BD00BF00040240D3
:1038F00080B584B002AF78600023009301200549B1
:1039000001220023FDF760FB002318460837BD465F
:1039100080BD00BF0004024080B584B002AF786073
:10392000002300930020054901220123FDF74CFBF1
:10393000002318460837BD4680BD00BF0004024082
:1039400080B584B002AF7860002300930020054961
:1039500001220223FDF738FB002318460837BD4635
:1039600080BD00BF0004024080B582B000AF786027
:103970000448102103F00EF9034618460837BD46E7
:1039800080BD00BF0010024080B582B000AF7860FB
:1039900039603B68002B04D10548102103F022F95F
:1039A00003E00348102103F00FF90837BD4680BD3E
:1039B0000010024080B582B000AF7860044810214A
:1039C00003F0CEF8034618460837BD4680BD00BF59
:1039D0000010024080B584B002AF786000230093ED
:1039E0000020054910220023FDF7EEFA00231846B7
:1039F0000837BD4680BD00BF0010024080B584B0CE
:103A000002AF7860002300930120054910220023B3
:103A1000FDF7DAFA002318460837BD4680BD00BF1F
:103A20000010024080B584B002AF7860002300939C
:103A30000020054910220123FDF7C6FA002318468D
:103A40000837BD4680BD00BF0010024080B584B07D
:103A500002AF786000230093002005491022022362
:103A6000FDF7B2FA002318460837BD4680BD00BFF7
:103A70000010024080B582B000AF78600448042195
:103A800003F088F8034618460837BD4680BD00BFDE
:103A90000010024080B582B000AF786039603B68AA
:103AA000002B04D10548042103F09CF803E00348EF
:103AB000042103F089F80837BD4680BD001002409C
:103AC00080B582B000AF78600448042103F048F864
:103AD000034618460837BD4680BD00BF00100240AF
:103AE00080B584B002AF78600023009300200549C0
:103AF00004220023FDF768FA002318460837BD4664
:103B000080BD00BF0010024080B584B002AF786075
:103B1000002300930120054904220023FDF754FAF5
:103B2000002318460837BD4680BD00BF0010024084
:103B300080B584B002AF786000230093002005496F
:103B400004220123FDF740FA002318460837BD463A
:103B500080BD00BF0010024080B584B002AF786025
:103B6000002300930020054904220223FDF72CFACC
:103B7000002318460837BD4680BD00BF0010024034
:103B800080B582B000AF786004484FF4807103F0D4
:103B900001F8034618460837BD4680BD00100240B4
:103BA00080B582B000AF786039603B68002B05D1EA
:103BB00006484FF4807103F015F804E003484FF411
:103BC000807103F001F80837BD4680BD0010024047
:103BD00080B582B000AF786004484FF4807102F085
:103BE000BFFF034618460837BD4680BD001002409F
:103BF00080B584B002AF78600023009300200549AF
:103C00004FF480720023FDF7DFF9002318460837D0
:103C1000BD4680BD0010024080B584B002AF786020
:103C200000230093012005494FF480720023FDF723
:103C3000CBF9002318460837BD4680BD001002406E
:103C400080B584B002AF786000230093002005495E
:103C50004FF480720123FDF7B7F9002318460837A7
:103C6000BD4680BD0010024080B584B002AF7860D0
:103C700000230093002005494FF480720223FDF7D2
:103C8000A3F9002318460837BD4680BD0010024046
:103C900080B582B000AF78600448082102F07AFF56
:103CA000034618460837BD4680BD00BF00100240DD
:103CB00080B582B000AF786039603B68002B04D1DA
:103CC0000548082102F08EFF03E00348082102F0B6
:103CD0007BFF0837BD4680BD0010024080B582B032
:103CE00000AF78600448082102F03AFF0346184606
:103CF0000837BD4680BD00BF0010024080B584B0CB
:103D000002AF7860002300930020054908220023B9
:103D1000FDF75AF9002318460837BD4680BD00BF9D
:103D20000010024080B584B002AF78600023009399
:103D30000120054908220023FDF746F90023184613
:103D40000837BD4680BD00BF0010024080B584B07A
:103D500002AF786000230093002005490822012368
:103D6000FDF732F9002318460837BD4680BD00BF75
:103D70000010024080B584B002AF78600023009349
:103D80000020054908220223FDF71EF900231846EA
:103D90000837BD4680BD00BF0010024080B582B02C
:103DA00000AF78600448202102F0F4FE0346184674
:103DB0000837BD4680BD00BF0008024080B582B014
:103DC00000AF786039603B68002B04D105482021A2
:103DD00002F008FF03E00348202102F0F5FE083757
:103DE000BD4680BD0008024080B582B000AF78605B
:103DF0000448202102F0B4FE034618460837BD46A9
:103E000080BD00BF0008024080B584B002AF78607A
:103E1000002300930020054920220023FDF7D4F859
:103E2000002318460837BD4680BD00BF0008024089
:103E300080B584B002AF78607B680222DA6000232C
:103E400000930120044920220023FDF7BDF8002340
:103E500018460837BD4680BD0008024080B584B0D2
:103E600002AF78600023009300200549202201233F
:103E7000FDF7AAF8002318460837BD4680BD00BFED
:103E80000008024080B584B002AF78600023009340
:103E90000020054920220223FDF796F8002318464A
:103EA0000837BD4680BD00BF0008024080B582B023
:103EB00000AF78600448022102F06CFE0346184609
:103EC0000837BD4680BD00BF0008024080B582B003
:103ED00000AF786039603B68002B04D105480221AF
:103EE00002F080FE03E00348022102F06DFE083775
:103EF000BD4680BD0008024080B582B000AF78604A
:103F00000448022102F02CFE034618460837BD463D
:103F100080BD00BF0008024080B584B002AF786069
:103F2000002300930020054902220023FDF74CF8EE
:103F3000002318460837BD4680BD00BF0008024078
:103F400080B584B002AF78607B680222DA6000231B
:103F500000930120044902220023FDF735F80023D5
:103F600018460837BD4680BD0008024080B584B0C1
:103F700002AF78600023009300200549022201234C
:103F8000FDF722F8002318460837BD4680BD00BF64
:103F90000008024080B584B002AF7860002300932F
:103FA0000020054902220223FDF70EF800231846DF
:103FB0000837BD4680BD00BF0008024080B582B012
:103FC00000AF78600448042102F0E4FD034618467F
:103FD0000837BD4680BD00BF0008024080B582B0F2
:103FE00000AF786039603B68002B04D1054804219C
:103FF00002F0F8FD03E00348042102F0E5FD083774
:10400000BD4680BD0008024080B582B000AF786038
:104010000448042102F0A4FD034618460837BD46B3
:1040200080BD00BF0008024080B584B002AF786058
:10403000002300930020054904220023FCF7C4FF5D
:10404000002318460837BD4680BD00BF0008024067
:1040500080B584B002AF78607B680222DA6000230A
:1040600000930120044904220023FCF7ADFF002344
:1040700018460837BD4680BD0008024080B584B0B0
:1040800002AF786000230093002005490422012339
:10409000FCF79AFF002318460837BD4680BD00BFD5
:1040A0000008024080B584B002AF7860002300931E
:1040B0000020054904220223FCF786FF002318464E
:1040C0000837BD4680BD00BF0008024080B582B001
:1040D00000AF78600448082102F05CFD03461846F2
:1040E0000837BD4680BD00BF0008024080B582B0E1
:1040F00000AF786039603B68002B04D10548082187
:1041000002F070FD03E00348082102F05DFD08376E
:10411000BD4680BD0008024080B582B000AF786027
:104120000448082102F01CFD034618460837BD4626
:1041300080BD00BF0008024080B584B002AF786047
:10414000002300930020054908220023FCF73CFFD0
:10415000002318460837BD4680BD00BF0008024056
:1041600080B584B002AF78607B680222DA600023F9
:1041700000930120044908220023FCF725FF0023B7
:1041800018460837BD4680BD0008024080B584B09F
:1041900002AF786000230093002005490822012324
:1041A000FCF712FF002318460837BD4680BD00BF4C
:1041B0000008024080B584B002AF7860002300930D
:1041C0000020054908220223FCF7FEFE00231846C2
:1041D0000837BD4680BD00BF0008024080B582B0F0
:1041E00000AF78600448102102F0D4FC0346184662
:1041F0000837BD4680BD00BF0008024080B582B0D0
:1042000000AF786039603B68002B04D1054810216D
:1042100002F0E8FC03E00348102102F0D5FC083767
:10422000BD4680BD0008024080B582B000AF786016
:104230000448102102F094FC034618460837BD4696
:1042400080BD00BF0008024080B584B002AF786036
:10425000002300930020054910220023FCF7B4FE40
:10426000002318460837BD4680BD00BF0008024045
:1042700080B584B002AF78607B680222DA600023E8
:1042800000930120044910220023FCF79DFE002327
:1042900018460837BD4680BD0008024080B584B08E
:1042A00002AF78600023009300200549102201230B
:1042B000FCF78AFE002318460837BD4680BD00BFC4
:1042C0000008024080B584B002AF786000230093FC
:1042D0000020054910220223FCF776FE0023184631
:1042E0000837BD4680BD00BF0008024080B582B0DF
:1042F00000AF786004484FF4006102F04BFC0346C5
:1043000018460837BD4680BD0010024080B582B017
:1043100000AF786039603B68002B05D106484FF448
:10432000006102F05FFC04E003484FF4006102F01A
:104330004BFC0837BD4680BD0010024080B582B0FE
:1043400000AF786004484FF4006102F009FC0346B6
:1043500018460837BD4680BD0010024080B584B0C5
:1043600002AF786000230093002005494FF40062FB
:104370000023FCF729FE002318460837BD4680BD00
:104380000010024080B584B002AF78607B680222E2
:10439000DA6000230093012005494FF400620023F6
:1043A000FCF712FE002318460837BD4680BD00BF4B
:1043B0000010024080B584B002AF78600023009303
:1043C000002005494FF400620123FCF7FDFD0023A6
:1043D00018460837BD4680BD0010024080B584B045
:1043E00002AF786000230093002005494FF400627B
:1043F0000223FCF7E9FD002318460837BD4680BDBF
:104400000010024080B582B000AF786004484021BF
:1044100002F0C0FB034618460837BD4680BD00BF0A
:104420000010024080B582B000AF786039603B6810
:10443000002B04D10548402102F0D4FB03E00348DF
:10444000402102F0C1FB0837BD4680BD001002408C
:1044500080B582B000AF78600448402102F080FB54
:10446000034618460837BD4680BD00BF0010024015
:1044700080B584B002AF7860002300930020054926
:1044800040220023FCF7A0FD002318460837BD4654
:1044900080BD00BF0010024080B584B002AF7860DC
:1044A0007B680222DA600023009301200449402245
:1044B0000023FCF789FD002318460837BD4680BD60
:1044C0000010024080B584B002AF786000230093F2
:1044D0000020054940220123FCF776FD0023184601
:1044E0000837BD4680BD00BF0010024080B584B0D3
:1044F00002AF786000230093002005494022022388
:10450000FCF762FD002318460837BD4680BD00BF9A
:104510000010024080B582B000AF786004482021CE
:1045200002F038FB034618460837BD4680BD00BF81
:104530000010024080B582B000AF786039603B68FF
:10454000002B04D10548202102F04CFB03E0034876
:10455000202102F039FB0837BD4680BD0010024023
:1045600080B582B000AF78600448202102F0F8FAEC
:10457000034618460837BD4680BD00BF0010024004
:1045800080B584B002AF7860002300930020054915
:1045900020220023FCF718FD002318460837BD46EB
:1045A00080BD00BF0010024080B584B002AF7860CB
:1045B0007B680222DA600023009301200449202254
:1045C0000023FCF701FD002318460837BD4680BDD7
:1045D0000010024080B584B002AF786000230093E1
:1045E0000020054920220123FCF7EEFC0023184699
:1045F0000837BD4680BD00BF0010024080B584B0C2
:1046000002AF786000230093002005492022022396
:10461000FCF7DAFC002318460837BD4680BD00BF12
:104620000010024080B582B000AF786004484FF4BB
:10463000007102F0AFFA034618460837BD4680BD48
:104640000010024080B582B000AF786039603B68EE
:10465000002B05D106484FF4007102F0C3FA04E0C4
:1046600003484FF4007102F0AFFA0837BD4680BD31
:104670000010024080B582B000AF786004484FF46B
:10468000007102F06DFA034618460837BD4680BD3A
:104690000010024080B584B002AF78600023009320
:1046A000002005494FF400720023FCF78DFC002325
:1046B00018460837BD4680BD0010024080B584B062
:1046C00002AF78607B680222DA6000230093012049
:1046D00005494FF400720023FCF776FC00231846CE
:1046E0000837BD4680BD00BF0010024080B584B0D1
:1046F00002AF786000230093002005494FF4007258
:104700000123FCF761FC002318460837BD4680BD35
:104710000010024080B584B002AF7860002300939F
:10472000002005494FF400720223FCF74DFC0023E2
:1047300018460837BD4680BD0010024080B582B0E3
:1047400000AF786004484FF4804102F023FA03463A
:1047500018460837BD4680BD0010024080B582B0C3
:1047600000AF786039603B68002B05D106484FF4F4
:10477000804102F037FA04E003484FF4804102F030
:1047800023FA0837BD4680BD0010024080B582B0D4
:1047900000AF786004484FF4804102F0E1F903462D
:1047A00018460837BD4680BD0010024080B584B071
:1047B00002AF786000230093002005494FF4804247
:1047C0000023FCF701FC002318460837BD4680BDD6
:1047D0000010024080B584B002AF78607B6802228E
:1047E000DA6000230093012005494FF48042002342
:1047F000FCF7EAFB002318460837BD4680BD00BF22
:104800000010024080B584B002AF786000230093AE
:10481000002005494FF480420123FCF7D5FB00231B
:1048200018460837BD4680BD0010024080B584B0F0
:1048300002AF786000230093002005494FF48042C6
:104840000223FCF7C1FB002318460837BD4680BD94
:104850000010024080B582B000AF786004484FF489
:10486000005102F097F9034618460837BD4680BD4F
:104870000010024080B582B000AF786039603B68BC
:10488000002B05D106484FF4005102F0ABF904E0CB
:1048900003484FF4005102F097F90837BD4680BD38
:1048A0000010024080B582B000AF786004484FF439
:1048B000005102F055F9034618460837BD4680BD41
:1048C0000010024080B584B002AF786000230093EE
:1048D000002005494FF400520023FCF775FB00232C
:1048E00018460837BD4680BD0010024080B584B030
:1048F00002AF78607B680222DA6000230093012017
:1049000005494FF400520023FCF75EFB00231846D4
:104910000837BD4680BD00BF0010024080B584B09E
:1049200002AF786000230093002005494FF4005245
:104930000123FCF749FB002318460837BD4680BD1C
:104940000010024080B584B002AF7860002300936D
:10495000002005494FF400520223FCF735FB0023E9
:1049600018460837BD4680BD0010024080B582B0B1
:1049700000AF78607B680122DA600448202101F0F2
:10498000C7FD002318460837BD4680BD0008024019
:10499000A0F10800FFF7EABF90B583B000AF7860E0
:1049A0000C48202101F09CFE04467B681B684833BC
:1049B0001B68786898470346184608F0A9F903462B
:1049C0002046194608F0ACFA034618460C37BD4697
:1049D00090BD00BF00080240A0F10800FFF7DCBF57
:1049E00080B582B000AF78607B680122DA6004484D
:1049F000022101F08DFD002318460837BD4680BD19
:104A000000080240A0F10800FFF7EABF90B583B0AC
:104A100000AF78600C48022101F062FE04467B681A
:104A20001B6848331B68786898470346184608F0A7
:104A30006FF903462046194608F072FA03461846F5
:104A40000C37BD4690BD00BF00080240A0F1080031
:104A5000FFF7DCBF80B582B000AF78607B680122D1
:104A6000DA600448042101F053FD0023184608379A
:104A7000BD4680BD00080240A0F10800FFF7EABF74
:104A800090B583B000AF78600C48042101F028FE97
:104A900004467B681B6848331B6878689847034660
:104AA000184608F035F903462046194608F038FA4A
:104AB000034618460C37BD4690BD00BF00080240B3
:104AC000A0F10800FFF7DCBF80B582B000AF7860CE
:104AD0007B680122DA600448082101F019FD0023F7
:104AE00018460837BD4680BD00080240A0F1080006
:104AF000FFF7EABF90B583B000AF78600C4808219B
:104B000001F0EEFD04467B681B6848331B6878683B
:104B100098470346184608F0FBF803462046194616
:104B200008F0FEF9034618460C37BD4690BD00BF9D
:104B300000080240A0F10800FFF7DCBF80B582B09A
:104B400000AF78607B680122DA600448102101F030
:104B5000DFFC002318460837BD4680BD0008024030
:104B6000A0F10800FFF7EABF90B583B000AF78600E
:104B70000C48102101F0B4FD04467B681B684833E3
:104B80001B68786898470346184608F0C1F8034642
:104B90002046194608F0C4F9034618460C37BD46AE
:104BA00090BD00BF00080240A0F10800FFF7DCBF85
:104BB00080B582B000AF7860054806494FF4405296
:104BC000FCF712FD002318460837BD4680BD00BF24
:104BD00000080040000C024080B582B000AF786051
:104BE0007B681B7A002B05D00648FCF789FD03463D
:104BF0005B4203E00348FCF783FD03461846083791
:104C0000BD4680BD0008004080B582B000AF78602E
:104C100004480549C022FCF7E7FC00231846083782
:104C2000BD4680BD000400400000024080B582B057
:104C300000AF78607B681B7A002B05D00648FCF734
:104C40005FFD03465B4203E00348FCF759FD034662
:104C500018460837BD4680BD0004004080B582B0CC
:104C600000AF7860044805490322FCF7BDFC00232F
:104C700018460837BD4680BD000C004000000240C9
:104C800080B582B000AF78607B681B7A002B05D0BE
:104C90000648FCF735FD03465B4203E00348FCF79A
:104CA0002FFD034618460837BD4680BD000C004066
:104CB00080B586B000AFF860B9607A60FB68012209
:104CC000DA60B86808F03EFA0346094809494FF42B
:104CD0000062FBF71DFB03467B61054802217A68F1
:104CE000FBF780FA7B6918461837BD4680BD00BFC8
:104CF0000000014000100240A0F10800FFF7D8BFFB
:104D000080B582B000AF78603960044802213A680B
:104D1000FBF768FA0837BD4680BD00BF00000140C0
:104D2000A0F10800FFF7ECBF80B582B000AF78605B
:104D300004480221FBF7B8FA034618460837BD4677
:104D400080BD00BF00000140A0F10800FFF7ECBFEC
:104D500080B586B000AFF860B9607A60FB68012268
:104D6000DA60B86808F0EEF90346084808494022BE
:104D7000FBF7CEFA03467B61044802217A68FBF711
:104D800031FA7B6918461837BD4680BD00400140A6
:104D900000100240A0F10800FFF7DABF80B582B032
:104DA00000AF78603960044802213A68FBF71AFACC
:104DB0000837BD4680BD00BF00400140A0F108009B
:104DC000FFF7ECBF80B582B000AF786004480221E5
:104DD000FBF76AFA034618460837BD4680BD00BF98
:104DE00000400140A0F10800FFF7ECBF80B586B09D
:104DF00000AFF860B9607A60FB680122DA60B868D9
:104E000008F0A0F90346084808492022FBF780FA79
:104E100003467B61044801217A68FBF7E3F97B696B
:104E200018461837BD4680BD0040014000100240C2
:104E3000A0F10800FFF7DABF80B582B000AF78605C
:104E40003960044801213A68FBF7CCF90837BD46C0
:104E500080BD00BF00400140A0F10800FFF7ECBF9B
:104E600080B582B000AF786004480121FBF71CFADE
:104E7000034618460837BD4680BD00BF00400140CC
:104E8000A0F10800FFF7ECBF80B586B000AFF86076
:104E9000B9607A60FB680122DA60B86808F052F9FC
:104EA0000346094809494FF40072FBF731FA0346FB
:104EB0007B61054801217A68FBF794F97B69184604
:104EC0001837BD4680BD00BF000001400010024001
:104ED000A0F10800FFF7D8BF80B582B000AF7860BE
:104EE0003960044801213A68FBF77CF90837BD4670
:104EF00080BD00BF00000140A0F10800FFF7ECBF3B
:104F000080B582B000AF786004480121FBF7CCF98E
:104F1000034618460837BD4680BD00BF000001406B
:104F2000A0F10800FFF7ECBF80B586B000AFF860D5
:104F3000B9607A60FB680122DA60B86808F002F9AB
:104F40000346094809494FF48042FBF7E1F903465B
:104F50007B61054804217A68FBF744F97B691846B0
:104F60001837BD4680BD00BF000001400010024060
:104F7000A0F10800FFF7D8BF80B582B000AF78601D
:104F80003960044804213A68FBF72CF90837BD461C
:104F900080BD00BF00000140A0F10800FFF7ECBF9A
:104FA00080B582B000AF786004480421FBF77CF93B
:104FB000034618460837BD4680BD00BF00000140CB
:104FC000A0F10800FFF7ECBF80B586B000AFF86035
:104FD000B9607A60FB680122DA60B86808F0B2F85C
:104FE0000346094809494FF40052FBF791F903467B
:104FF0007B61054803217A68FBF7F4F87B69184662
:105000001837BD4680BD00BF0000014000100240BF
:10501000A0F10800FFF7D8BF80B582B000AF78607C
:105020003960044803213A68FBF7DCF80837BD46CD
:1050300080BD00BF00000140A0F10800FFF7ECBFF9
:1050400080B582B000AF786004480321FBF72CF9EB
:10505000034618460837BD4680BD00BF000001402A
:10506000A0F10800FFF7ECBF80B586B000AFF86094
:10507000B9607A60FB680122DA60B86808F062F80B
:105080000346094809494FF48042FBF741F90346BA
:105090007B61054802217A68FBF7A4F87B69184612
:1050A0001837BD4680BD00BF000401400004024027
:1050B000A0F10800FFF7D8BF80B582B000AF7860DC
:1050C0003960044802213A68FBF78CF80837BD467E
:1050D00080BD00BF00040140A0F10800FFF7ECBF55
:1050E00080B582B000AF786004480221FBF7DCF89D
:1050F000034618460837BD4680BD00BF0004014086
:10510000A0F10800FFF7ECBF80B586B000AFF860F3
:10511000B9607A60FB680122DA60B86808F012F8BA
:105120000346094809494FF40042FBF7F1F80346EA
:105130007B61054803217A68FBF754F87B691846C0
:105140001837BD4680BD00BF000401400004024086
:10515000A0F10800FFF7D8BF80B582B000AF78603B
:105160003960044803213A68FBF73CF80837BD462C
:1051700080BD00BF00040140A0F10800FFF7ECBFB4
:1051800080B582B000AF786004480321FBF78CF84B
:10519000034618460837BD4680BD00BF00040140E5
:1051A000A0F10800FFF7ECBF80B586B000AFF86053
:1051B000B9607A60FB680122DA60B86807F0C2FF64
:1051C0000346084808490222FBF7A2F803467B6120
:1051D000044803217A68FBF705F87B6918461837FD
:1051E000BD4680BD0004014000040240A0F108005B
:1051F000FFF7DABF80B582B000AF7860396004484D
:1052000003213A68FAF7EEFF0837BD4680BD00BFBC
:1052100000040140A0F10800FFF7ECBF80B582B0A8
:1052200000AF786004480321FBF73EF803461846B8
:105230000837BD4680BD00BF00040140A0F1080052
:10524000FFF7ECBF90B589B004AFF860B9607A6041
:105250003B60BC683B689AB23B6A9BB209490091CB
:10526000082101910292039307482146054A04232D
:1052700004F0B4F8054A7B6813600023184614371D
:10528000BD4690BD0000024000440040500900208F
:1052900080B582B000AF78600B46FB7000BF0A4853
:1052A0008021FCF733FC0346002B0CBF01230023B5
:1052B000DBB2002BF3D1FB789BB203481946FCF715
:1052C000BBFB0837BD4680BD00440040B0B500AF11
:1052D000074B1B681B681C68054B1D680548FCF7DD
:1052E000BDFB0346DBB228461946A047B0BD00BF50
:1052F000500900200044004080B500AFFFF7E6FFF2
:1053000080BD00BF90B589B004AFF860B9607A6025
:105310003B60BC683B689AB23B6A9BB20A49009109
:105320004FF4006101910292039308482146064A16
:105330004FF4806304F052F8054A7B681360002341
:1053400018461437BD4690BD000402400048004096
:105350005409002080B582B000AF78600B46FB7026
:1053600000BF0A488021FCF7D1FB0346002B0CBF8D
:1053700001230023DBB2002BF3D1FB789BB203485F
:105380001946FCF759FB0837BD4680BD0048004070
:1053900080B582B000AF0346FB7100BF0A48802190
:1053A000FCF7B4FB0346002B0CBF01230023DBB248
:1053B000002BF3D1FB799BB203481946FCF73CFB69
:1053C0000837BD4680BD00BF0044004090B585B0A1
:1053D00004AF4FF48E700FF0F7F9044622464FF4F5
:1053E0008E73104600211A4609F020FA2046FCF779
:1053F0003BFE0B4B1C600B4B0093082301930023D7
:1054000002930823039308484FF41651054A0423D6
:1054100003F0E4FF002318460437BD4690BD00BFEB
:1054200050090020000002400044004080B483B0D6
:1054300000AF78607B680022C3F804217B680022FB
:10544000C3F808217B6818460C37BD465DF8047B1D
:10545000704700BF80B485B000AF78600B46FB702A
:105460007B68D3F808315A1C114B83FB0213D91106
:10547000D317C91A0B461B020B44D31AFB607B6877
:10548000D3F80421FB689A4201D101230AE07B682A
:10549000D3F808317A68F978D1547B68FA68C3F890
:1054A0000821002318461437BD465DF8047B704779
:1054B000817F807F80B483B000AF78607B68D3F851
:1054C00004217B68D3F808319A4201D1012300E01E
:1054D000002318460C37BD465DF8047B704700BFBB
:1054E00080B485B000AF78607B68D3F804217B6816
:1054F000D3F808319A4201D1002317E07B68D3F832
:1055000004317A68D35CFB737B68D3F80431591C8F
:10551000094B83FB0123DA11CB17D21A13461B0266
:105520001344CA1A7B68C3F80421FB7B184614375E
:10553000BD465DF8047B7047817F807F80B483B077
:1055400000AF78607B68094A1A607B6801225A6064
:105550007B6800221A727B684FF07E52DA607B68AB
:1055600018460C37BD465DF8047B704760F70108AC
:1055700080B483B000AF78607B68044A1A607B68AF
:1055800018460C37BD465DF8047B704770F701087C
:1055900080B483B000AF78607B68044A1A607B688F
:1055A00018460C37BD465DF8047B704740F701088C
:1055B00080B582B000AF78607B681846FFF7D8FFEF
:1055C0007B6808331846FFF7E3FF7B68064A1A60DA
:1055D0007B68064A9A607B680022DA607B6818461E
:1055E0000837BD4680BD00BF78E90108CCE9010855
:1055F00080B582B000AF78607B681846FFF7B8FFCF
:105600007B6808331846FFF7C3FF7B68064A1A60B9
:105610007B68064A9A607B680022DA607B681846DD
:105620000837BD4680BD00BF00E9010854E9010804
:1056300080B582B000AF78607B681846FFF798FFAE
:105640007B6808331846FFF7A3FF7B68064A1A6099
:105650007B68064A9A607B680022DA607B6818469D
:105660000837BD4680BD00BF88E80108DCE80108B6
:1056700080B582B000AF78607B681846FFF778FF8E
:105680007B68034A1A607B6818460837BD4680BDB0
:1056900060EF010880B582B000AF78607B68184683
:1056A000FFF766FF7B68034A1A607B681846083775
:1056B000BD4680BD18EF010880B582B000AF7860AC
:1056C0007B681846FFF754FF7B68034A1A607B68C3
:1056D00018460837BD4680BDD0EE010880B582B0BF
:1056E00000AF78607B681846FFF742FF7B68034A8B
:1056F0001A607B6818460837BD4680BD88EE0108F1
:1057000080B582B000AF78607B681846FFF730FF45
:105710007B68034A1A607B6818460837BD4680BD1F
:1057200040EE010880B582B000AF78607B68184613
:10573000FFF71EFF7B68034A1A607B68184608372C
:10574000BD4680BDF8ED010880B582B000AF78603D
:105750007B681846FFF7F2FE7B68034A1A607B6895
:1057600018460837BD4680BD10E7010880B582B0F5
:1057700000AF78607B681846FFF7E0FE7B68034A5D
:105780001A607B6818460837BD4680BD00E70108EF
:1057900080B582B000AF78607B681846FFF7CEFE18
:1057A0007B68034A1A607B6818460837BD4680BD8F
:1057B000F0E6010880B582B000AF78607B681846DB
:1057C000FFF7D6FE7B68034A1A607B6818460837E5
:1057D000BD4680BDF8F0010880B483B000AF7860AA
:1057E0007B68044A1A607B6818460C37BD465DF832
:1057F000047B704778F8010880B582B000AF78600C
:105800007B681846FFF7E8FF7B68034A1A607B68ED
:1058100018460837BD4680BDC0E6010800000000FC
:105820002DE9B04FD2B008AF0023C7F824310023D0
:10583000C7F81C31E44BC7F81831D7F8180104F049
:1058400097FA0346184606F023FE02460B4610461A
:1058500019464FF000024FF0804304F0C9FA0246A7
:105860000B461046194607F049F90346C7F81431AC
:1058700007F1D4031846FFF7FBFE07F1CC031846E7
:10588000FFF708FF07F1BC031846FFF791FE07F189
:10589000AC0007F1D40107F1CC0207F1BC030833D7
:1058A000FBF73AFC07F1A4031846FFF705FF07F1E1
:1058B0009C031846FFF712FF07F18C031846FFF709
:1058C00097FE07F17C0007F1A40107F19C0207F1A4
:1058D0008C030833FBF720FC07F174031846FFF72D
:1058E0000FFF07F16C031846FFF71CFF07F15C037D
:1058F0001846FFF79DFE07F14C0007F1740107F110
:105900006C0207F15C030833FBF706FC07F13C036C
:105910001846FFF719FF07F13C031846FFF748F94F
:1059200007F12C031846FFF721FF07F12C03184657
:10593000FFF76AF907F11C031846FFF729FF07F183
:105940001C031846FFF78AF907F114031846FFF7FE
:1059500031FF07F114031846FCF75AFD07F108035D
:105960001846FFF749FF07F1080318464FF4E131E5
:1059700000220823FCF70CFD07F17C03184693492D
:10598000FBF7E2FB07F17C0318469149FBF728FC83
:1059900007F17C031846FBF737FC07F1AC03184608
:1059A0008A49FBF7D1FB07F1AC0318464FF07E5153
:1059B000FBF716FC07F1AC031846FBF725FC07F1D3
:1059C0004C0318468149FBF7BFFB07F14C0318460F
:1059D0004FF00001FBF704FC07F14C031846FBF7FE
:1059E00013FC07F13C031846FFF7F6F80346184688
:1059F00006F03CFD02460B46104619466EA3D3E95D
:105A0000002306F099FD02460B461046194607F0A2
:105A100075F80346C7F8103107F12C031846FFF755
:105A200005F90346184606F021FD02460B461046CE
:105A3000194661A3D3E9002306F07EFD02460B461A
:105A40001046194607F05AF80346C7F80C3107F11B
:105A50001C031846FFF714F90346184606F006FD26
:105A600002460B461046194653A3D3E9002306F01D
:105A700063FD02460B461046194607F03FF8034601
:105A8000C7F80831D7F8100106F002FD02460B46B0
:105A9000104619464AA3D3E9002304F0A7F90246A9
:105AA0000B461046194607F029F80346C7F804319B
:105AB000D7F80C0106F0ECFC02460B4610461946DE
:105AC0003FA3D3E9002304F091F902460B461046A8
:105AD000194607F013F80346C7F80031D7F8080154
