:020000040800F2
:10000000C858012061280008AD7C0008C97C0008A0
:10001000E57C0008017D00081D7D0008000000004F
:10002000000000000000000000000000397D000812
:10003000557D000800000000717D00085D25000866
:10004000BD280008BD280008BD280008BD280008FC
:10005000BD280008BD280008BD280008BD280008EC
:10006000BD280008BD280008BD280008BD280008DC
:10007000BD280008BD280008BD280008BD280008CC
:10008000BD280008BD280008BD280008BD280008BC
:10009000CD640008BD280008BD280008BD28000860
:1000A000BD2800080D130008BD280008BD28000861
:1000B00055130008A1130008E9130008BD28000823
:1000C000BD280008BD280008BD280008BD2800087C
:1000D000BD280008BD280008455F0008DD5F000856
:1000E000BD280008BD2800084D180008C1140008EC
:1000F00079140008BD280008BD280008BD280008A4
:10010000BD280008617F000831140008BD280008E0
:10011000BD280008BD280008BD280008BD2800082B
:10012000BD280008BD280008BD2800086D7F000814
:10013000BD280008BD280008BD280008BD2800080B
:10014000BD280008BD280008BD2800083D1800088B
:10015000BD280008BD280008BD280008BD280008EB
:10016000BD280008BD280008BD280008BD280008DB
:10017000BD280008BD280008BD280008BD280008CB
:10018000BD280008BD28000810B5054C237833B9F8
:10019000044B13B10448AFF300800123237010BD5A
:1001A0001009002000000000483C0208084B10B570
:1001B0001BB108480849AFF300800848036803B939
:1001C00010BD074B002BFBD0BDE81040184700BF07
:1001D00000000000483C0208140900200809002023
:1001E0000000000080B584B000AFF8600B467A6074
:1001F000FB72FB7A013B032B52D801A252F823F089
:100200001102000835020008590200087D020008AA
:10021000FB68DB6A18460EF057FB03461846796800
:100220000EF0AAFB034618460EF092FD0246FB684C
:100230005A6336E0FB68DB6A18460EF045FB03465E
:10024000184679680EF098FB034618460EF080FDBC
:100250000246FB689A6324E0FB68DB6A18460EF0EE
:1002600033FB0346184679680EF086FB03461846B2
:100270000EF06EFD0246FB68DA6312E0FB68DB6A93
:1002800018460EF021FB0346184679680EF074FB01
:10029000034618460EF05CFD0246FB681A6400E057
:1002A00000BF1037BD4680BD80B582B000AF78601A
:1002B0000B46FB70FB78012B06D17B685B6B184605
:1002C0000EF002FB03461FE0FB78022B06D17B6891
:1002D0009B6B18460EF0F8FA034615E0FB78032BEB
:1002E00006D17B68DB6B18460EF0EEFA03460BE096
:1002F000FB78042B06D17B681B6C18460EF0E4FAE1
:10030000034601E04FF0000318460837BD4680BDA4
:1003100090B5ADB002AFF860B9603B601346FB80AA
:100320000023C7F8A4300023C7F8A0300023C7F883
:100330009C300123C7F898300023A7F8963007F0C7
:1003400087FF07F14403184606F086FFFB68B3F108
:10035000804F03D3FB68944A934207D9FB68934AC2
:10036000934211D9FB68924A93420DD8FB6C914A93
:10037000D2F88C20120E02F00102013202FB03F3CC
:100380005B00C7F8A4300CE03B6D8A4AD2F88C20A1
:10039000120E02F00102013202FB03F35B00C7F808
:1003A000A4303B68002B0ADDD7F8A430824A82FBD8
:1003B00003125211DB17D21A3B689A4201DA012369
:1003C000EEE01FE0D7F8A0300133C7F8A030D7F82F
:1003D000A420D7F8A03092FBF3F23B6892FBF3F332
:1003E000C7F89C30D7F89C30B3F5803F02DA002381
:1003F000C7F89830D7F8A0304FF6FE72934201DD6F
:100400000123CDE0D7F89830002BDBD1D7F8A4201A
:10041000D7F8A03092FBF3F2D7F89C3092FBF3F3BD
:100420003B60F86809F05CFDFA8800230093022025
:10043000B968002300F0C8FDD7F89C30013BFB638E
:10044000D7F8A0309BB2013B9BB23B870023A7F8B3
:10045000403000237B87002387F8423007F13803C0
:10046000F86819460AF0E8FB6023BB8400233B864A
:100470000123FB8404233B8508237B864FF4807390
:10048000BB864FF40073FB8607F12403F868194616
:100490000AF0AAFCF86800210AF094FE07F1240390
:1004A000F86819460AF01AFDF86800210AF0A6FE5D
:1004B00007F12403F86819460AF098FDF86800214E
:1004C0000AF0BAFE07F12403F86819460AF014FE90
:1004D000F86800210AF0CCFEFB68384A934203D04A
:1004E000FB68374A934211D107F1140318460AF00A
:1004F00005FF4FF480433B8407F11403F868194665
:100500000AF0D4FEF86801210AF016FFFA8807F114
:1005100054031046194609F061FB0023A7F89630F2
:1005200025E0B7F896305B0007F1A802134433F8D2
:10053000543C012B16D1B7F8963010335B0007F10D
:10054000A802134433F8523C184609F04DFE034606
:100550009CB2F86809F0BEFE0346B86821461A4608
:1005600007F002FEB7F896300133A7F89630B7F8D7
:1005700096300F2BD5D9FB6800225A63FB68002206
:100580009A63FB680022DA63FB6800221A64F86849
:1005900001210AF0E9FBF86801210AF005FC0023BB
:1005A0001846AC37BD4690BD00140040FF17004010
:1005B00000200040003802401F85EB510000014040
:1005C0000004014080B489B000AFF860B960114602
:1005D0001A460B46FB711346BB800023FB76FB6873
:1005E000DB78002B22D100237B610023FB61BB88D9
:1005F0000333002B00DA03339B107B61FB79FA682D
:1006000032339B0013449B683B610023FB6109E08C
:10061000BB681A683B691A60FB690133FB61BB6800
:100620000433BB60FA697B699A42F1D3FB7E1846BA
:100630002437BD465DF8047B704700BF80B489B0A5
:1006400000AFF860B9601346FB800023FB61FB88B4
:100650000333002B00DA03339B10BB61FB68D3F834
:10066000D0307B610023FB6109E07B691A68BB68BD
:100670001A60FB690133FB61BB680433BB60FA6934
:10068000BB699A42F1D3BB6818462437BD465DF872
:10069000047B704780B586B000AF78603960002376
:1006A000FB7400237B610023FB60FB6843F02003A5
:1006B000FB603B68DBB203F01F03DBB203F01F03F8
:1006C0009B01FA6822F4F8621343FB607B68DB68E5
:1006D000FA681A617B68DB681B69FB607B69013320
:1006E0007B617B69094A934200D906E0FB685B099C
:1006F00003F00103DBB2012BECD0032008F0CAF8B1
:10070000FB7C18461837BD4680BD00BF400D030076
:1007100080B483B000AF78607B68DB685B6903F00E
:10072000010318460C37BD465DF8047B704700BFD7
:1007300080B582B000AF78607868FFF7E9FF0346C4
:10074000012B14BF01230023DBB218460837BD4636
:1007500080BD00BF80B485B000AF78600023FB602F
:100760007B68DB685B69FB607B68DB689B69FA68B8
:100770001340FB60FB6818461437BD465DF8047BE8
:10078000704700BF80B485B000AF78600023FB7372
:100790007B681B699B68BB603B7AC3F34103DBB298
:1007A000022B09D0032B04D0012B02D00323FB73AF
:1007B00005E00223FB7302E00123FB7300BFFB7B18
:1007C00018461437BD465DF8047B704780B487B087
:1007D00000AF78600023FB750023BB607B681B695A
:1007E0009B683B617B689B691B68FB603B7CC3F338
:1007F0004103DBB2022B04D0BB896FF30A03BB8138
:1008000005E0BB89032262F30A03BB8100BF7B685A
:100810009B69FA681A607B7A43F001037B727B68FC
:100820001B697A6812695168BA68D2431140BA6884
:100830000A435A60FB7D18461C37BD465DF8047BB1
:10084000704700BF80B487B000AF78603960002384
:10085000FB740023FB600023BB603B685B78012BCB
:100860000FD13B681B787A6804339B0013449B6864
:100870007B613B681B781A46012393409BB23B8106
:100880000EE03B681B787A6814339B0013445B6866
:100890007B613B681B781A46012393409BB27B81A6
:1008A0007B691B68FB607B7B23F07F03DBB2002B43
:1008B00027D13B689B689BB2C3F30A039AB2BB89FA
:1008C00062F30A03BB813B68DB7803F00303DAB20F
:1008D000BB7B62F38303BB733B68DB88DBB203F053
:1008E0000F03DAB2FB8962F38913FB81FB7B43F0D0
:1008F0001003FB737B7B43F080037B73FA687B6997
:100900001A607B681B697A681269D169BA680A4300
:10091000DA61FB7C18461C37BD465DF8047B7047E6
:1009200080B588B000AF786039600023FB77002382
:10093000BB6100237B6100233B613B685B78012B3B
:1009400040F0AB803B681B787A6804339B0013440B
:100950009B681B687B613B681B787A6804339B004B
:1009600013449B681B693B613B685B69002B09D1A1
:100970003B696FF312033B617B8A012262F3CC0374
:100980007B8222E03B685B69C3F312023B6962F33E
:1009900012033B613B685A693B689B6813445A1ECB
:1009A0003B689B68B2FBF3F39BB2C3F309039AB2B3
:1009B0007B8A62F3CC037B823B68DB78012B04D11A
:1009C000FB7C012262F34613FB743B681B787A6858
:1009D00004339B0013449B683A691A617B68DB7897
:1009E000012B0AD13B681B787A6804339B001344BF
:1009F0009B683A6812695A6115E03B68DB78012B05
:100A000011D03B685B69002B0DD03B681B781A4600
:100A100001239340BB617B681B697A681269516B43
:100A2000BA690A435A633B68DB78012B14D17B68AF
:100A30001B699B68FB60FB68C3F30D239BB203F04B
:100A40000103002B04D1FB7D43F02003FB7503E081
:100A5000FB7D43F01003FB75FB7D43F00403FB7546
:100A6000FB7D43F08003FB753B681B787A68043399
:100A70009B0013449B687A691A603B68DB78012B02
:100A800040F089803B68D9683B681A783B685B69AD
:100A90009BB27868FFF796FD7DE03B681B787A682B
:100AA00014339B0013445B681B687B613B681B78B5
:100AB0007A6814339B0013445B681B693B613B6895
:100AC0005B69002B0DD13B689B68C3F312023B6945
:100AD00062F312033B617B8A012262F3CC037B82C7
:100AE00020E03B685A693B689B6813445A1E3B6888
:100AF0009B68B2FBF3F39BB2C3F309039AB27B8A00
:100B000062F3CC037B827B8AC3F3C9039BB21A4690
:100B10003B689B6803FB02F3C3F312023B6962F379
:100B200012033B613B681B787A6814339B001344C3
:100B30005B683A691A617B68DB78012B09D13B68F5
:100B40001B787A6814339B0013445B683A68126917
:100B50005A613B68DB78012B0CD13B685B79002B39
:100B600004D0FB7D43F02003FB7503E0FB7D43F0E5
:100B70001003FB75FB7D43F00403FB75FB7D43F025
:100B80008003FB753B681B787A6814339B00134421
:100B90005B687A691A60FB7F18462037BD4680BDC6
:100BA00080B489B000AF786039600023FB77002300
:100BB000BB6100233B610023BB603B685B78012B7A
:100BC00070D17B689B697B617B691B683B617B693A
:100BD0001B69BB603B685B69002B09D13B7A6FF3F3
:100BE00006033B72BB7A012262F3C403BB7223E0AB
:100BF0003B685A693B689B689A420ED93B689A6881
:100C00003B685A613B689B68DBB203F07F03DAB252
:100C10003B7A62F306033B7209E03B685B69DBB237
:100C200003F07F03DAB23B7A62F306033B72BB7ACE
:100C3000012262F3C403BB72BA687B691A617B68E4
:100C4000DB78012B09D13B681B787A6804339B0061
:100C500013449B683A6812695A61FB7C43F00403B1
:100C6000FB74FB7C43F08003FB743A697B691A6078
:100C70007B68DB78002B76D13B685B69002B72D0F8
:100C80003B681B781A46012393401A46BB691343FD
:100C9000BB617B681B697A681269516BBA690A4348
:100CA0005A6360E03B681B787A6814339B001344F6
:100CB0005B681B683B613B681B787A6814339B0058
:100CC00013445B681B69BB603B685B69002B0FD1F9
:100CD0003B689B68DBB203F07F03DAB23B7A62F3D6
:100CE00006033B72BB7A012262F3C403BB7212E0BB
:100CF0003B689A683B685A613B689B68DBB203F0CB
:100D00007F03DAB23B7A62F306033B72BB7A0122BD
:100D100062F3C403BB723B681B787A6814339B0090
:100D200013445B68BA681A617B68DB78012B09D1D0
:100D30003B681B787A6814339B0013445B683A68FD
:100D400012695A61FB7C43F00403FB74FB7C43F0A3
:100D50008003FB743B681B787A6814339B00134450
:100D60005B683A691A60FB7F18462437BD465DF818
:100D7000047B704780B487B000AF7860396000238F
:100D8000FB750023FB603B685B78012B1CD13B6843
:100D90001B787A6804339B0013449B683B613B6972
:100DA0001B68FB60FB7B23F07F03DBB2002B03D0CF
:100DB000FB7B43F04003FB73BB7B43F02003BB731F
:100DC000FA683B691A6011E03B681B787A68143353
:100DD0009B0013445B683B613B691B68FB60BB7B0A
:100DE00043F02003BB73FA683B691A60FB7D184629
:100DF0001C37BD465DF8047B704700BF80B487B0E8
:100E000000AF786039600023FB740023FB603B680F
:100E10005B78012B08D13B681B787A6804339B0010
:100E200013449B687B6107E03B681B787A68143346
:100E30009B0013445B687B617B691B68FB60BB7B29
:100E40006FF34513BB733B68DB78032B03D03B6820
:100E5000DB78022B03D1FB7B43F01003FB73FA68B2
:100E60007B691A60FB7C18461C37BD465DF8047B25
:100E7000704700BF80B485B000AF78607B681B69A5
:100E80009B69FB607B681B69DB69FA681340FB6048
:100E9000FB681B0C18461437BD465DF8047B704791
:100EA00080B485B000AF78600B46FB70FB787A6841
:100EB00014339B0013445B689B68FB607B681B6971
:100EC0005B69FA681340FB60FB6818461437BD463F
:100ED0005DF8047B704700BF80B485B000AF7860D8
:100EE0007B681B699B69FB607B681B69DB69FA682F
:100EF0001340FB60FB689BB218461437BD465DF893
:100F0000047B704780B487B000AF786000233B61FA
:100F1000FB7C43F0C003FB74BB7C012262F3C4037F
:100F2000BB743B7C182262F306033B747B685B6DE9
:100F30003A691A617B68DB78012B16D10023FB60CC
:100F40007B685B6D7A6802F5B9625A617B685B6D9C
:100F50001B68FB60FB7B43F08003FB734FF0802337
:100F6000FB607B685B6DFA681A601C37BD465DF8F4
:100F7000047B704780B485B000AF78607B689B7A53
:100F8000002B1BD07B681B699B68FB603B7B03F0DD
:100F90000103DBB2002B11D07B6803F586731B685D
:100FA000BB603B7A6FF341033B723B7A6FF3000304
:100FB0003B727B68D3F80C31BA681A601437BD46AF
:100FC0005DF8047B704700BF80B584B000AF396026
:100FD00011461A460346FB710B46BB801346BB7194
:100FE0003B68254A934204D10120012106F0DEF935
:100FF00022E03B68214A934204D10220012106F0FD
:10100000D5F919E03B681E4A934204D1042001211E
:1010100006F0CCF910E03B681A4A934204D108204C
:10102000012106F0C3F907E03B68174A934203D158
:101030001020012106F0BAF907F10803184607F05D
:1010400029F8BB88BB60FB793B733B7EBB73BB79E4
:10105000FB7303237B7307F108033868194606F016
:101060008BFFFB79012B04D1BB883868194607F048
:101070006DF81037BD4680BD0000024000040240FC
:1010800000080240000C02400010024080B483B00F
:1010900000AF78600B46FB70FB78002B06D0094947
:1010A000084BDA6B7B681343CB6306E00549054BBD
:1010B000DA6B7B68DB431340CB630C37BD465DF8CE
:1010C000047B7047002C014080B485B000AF78608D
:1010D0000023FB73084B5A6B7B681340002B02D034
:1010E0000123FB7301E00023FB73FB7B18461437DD
:1010F000BD465DF8047B7047002C014080B483B08E
:1011000000AF7860034A7B6893630C37BD465DF897
:10111000047B7047002C014080B485B000AFF860BC
:10112000B9607A603B60FB68BA681A60FB687A68ED
:101130005A60FB683A689A60FB6818461437BD46E7
:101140005DF8047B704700BF80B584B000AF786065
:1011500039600023FB607B681B681B6820331B68B9
:101160007A681268104698470346002B14BF012383
:101170000023DBB2002B02D0FB680133FB607B68ED
:101180005B681B6820331B687A6852681046984772
:101190000346002B14BF01230023DBB2002B02D037
:1011A000FB680133FB607B689B681B680C331B6822
:1011B0007A689268104639684FF07E529847034625
:1011C000002B14BF01230023DBB2002B02D0FB68ED
:1011D0000133FB60FB6818461037BD4680BD00BF79
:1011E00080B582B000AF78603960386805494FF04B
:1011F0007E5200F0A7FC02467B68DA600837BD46E5
:1012000080BD00BF000080BFB0B582B000AF786085
:101210007B68DB6818464FF000010DF069FD03465E
:10122000002B24D07B681B681B6834331B687A68EA
:101230001268104698477B685B681B6838331B68E8
:101240007A685268104698477B689B681B68103321
:101250001C687B689D687B68DB684FF07E50194690
:101260000DF080FA034628461946A0474BE07B68FC
:10127000DB6818464FF000010DF01CFD0346002B03
:1012800024D07B681B681B6838331B687A68126837
:10129000104698477B685B681B6834331B687A6824
:1012A0005268104698477B689B681B6810331C681F
:1012B0007B689D687B68DB6818464FF07E510DF0B7
:1012C00053FA034628461946A0471CE07B681B6872
:1012D0001B6834331B687A681268104698477B682D
:1012E0005B681B6834331B687A68526810469847FD
:1012F0007B689B681B6810331B687A68926810468D
:101300004FF07E5198470837BD46B0BD80B500AF5D
:101310000E4B1B889BB21B099BB2002B05D00C4BBC
:101320001B68013B0A4A13600BE0084B1B889BB209
:101330001B099BB2002B04D1054B1B680133044AE7
:101340001360024801210AF041F880BD000001400D
:101350002C09002080B500AF4FF080431B889BB262
:101360001B099BB2002B05D00C4B1B68013B0B4AA1
:1013700013600CE04FF080431B889BB21B099BB2AB
:10138000002B04D1054B1B680133044A13604FF056
:10139000804001210AF01AF880BD00BF300900200A
:1013A00080B500AF0E4B1B889BB21B099BB2002B74
:1013B00005D00C4B1B68013B0A4A13600BE0084B3D
:1013C0001B889BB21B099BB2002B04D1054B1B68E9
:1013D0000133044A13600248012109F0F7FF80BD80
:1013E000000400403409002080B500AF0E4B1B887C
:1013F0009BB21B099BB2002B05D00C4B1B68013B19
:101400000A4A13600BE0084B1B889BB21B099BB276
:10141000002B04D1054B1B680133044A13600248BA
:10142000012109F0D3FF80BD0008004038090020E9
:1014300080B500AF0E4B1B889BB21B099BB2002BE3
:1014400005D00C4B1B68013B0A4A13600BE0084BAC
:101450001B889BB21B099BB2002B04D1054B1B6858
:101460000133044A13600248012109F0AFFF80BD37
:10147000000C00403C09002080B500AF0E4B1B88DB
:101480009BB21B099BB2002B05D00C4B1B68013B88
:101490000A4A13600BE0084B1B889BB21B099BB2E6
:1014A000002B04D1054B1B680133044A136002482A
:1014B000012109F08BFF80BD00040140400900209C
:1014C00080B500AF0E4B1B889BB21B099BB2002B53
:1014D00005D00C4B1B68013B0A4A13600BE0084B1C
:1014E0001B889BB21B099BB2002B04D1054B1B68C8
:1014F0000133044A13600248012109F067FF80BDEF
:10150000001800404409002080B500AF044809F0ED
:101510001FFC0246034B1B681B041344184680BD86
:10152000000001402C09002080B500AF4FF0804042
:1015300009F00EFC0246034B1B681B0413441846BB
:1015400080BD00BF3009002080B500AF044809F01D
:10155000FFFB0246034B1B681B041344184680BD67
:10156000000400403409002080B500AF044809F0B1
:10157000EFFB0246034B1B681B041344184680BD57
:10158000000800403809002080B500AF044809F089
:10159000DFFB0246034B1B681B041344184680BD47
:1015A000000C00403C09002080B500AF044809F061
:1015B000CFFB0246034B1B681B041344184680BD37
:1015C000000401404009002080B500AF044809F044
:1015D000BFFB0246034B1B681B041344184680BD27
:1015E000001800404409002090B59DB002AFF8609B
:1015F000B9601346FB800023A7F866300023A7F8E4
:101600006430F86808F06CFCFA880023009302202C
:10161000B9680123FFF7D8FCFA8807F120031046C8
:10162000194608F0DBFA0023A7F8663025E0B7F882
:1016300066305B0007F16802134433F8483C012B25
:1016400016D1B7F8663010335B0007F16802134417
:1016500033F8463C184608F0C7FD03469CB2F868CC
:1016600008F038FE0346B86821461A4606F07CFDAD
:10167000B7F866300133A7F86630B7F866300F2B3D
:10168000D5D91D4B1B681D4AA2FB03235B0E9BB2E1
:10169000013BA7F864304FF6FE73BB610023BB82A9
:1016A0000023BB830023FB8207F11403F86819466B
:1016B00009F0C2FAB7F86430F8681946012209F057
:1016C00025FBF86803210022002309F08FFEF8684B
:1016D0000121012209F056FEF868012109F064FB9E
:1016E000F86808F0B3FB0346184608F067FD00F001
:1016F00055F86C37BD4690BD4000002029D94266A0
:1017000080B582B000AF78607B681E4A934203D1F7
:10171000FFF7FAFE034630E07B68B3F1804F03D158
:10172000FFF702FF034628E07B68174A934203D184
:10173000FFF70AFF034620E07B68144A934203D177
:10174000FFF712FF034618E07B68114A934203D16A
:10175000FFF71AFF034610E07B680E4A934203D15D
:10176000FFF722FF034608E07B680B4A934203D150
:10177000FFF72AFF034600E0002318460837BD465E
:1017800080BD00BF00000140000400400008004090
:10179000000C0040000401400018004080B500AF7C
:1017A000194B00221A60194B00221A60184B0022B4
:1017B0001A60184B00221A60174B00221A60174B50
:1017C00000221A60164B00221A601648002109F008
:1017D000B1FA4FF08040002109F0ACFA1248002124
:1017E00009F0A8FA1148002109F0A4FA10480021D4
:1017F00009F0A0FA0F48002109F09CFA0E480021D8
:1018000009F098FA80BD00BF2C09002030090020A3
:1018100034090020380900203C090020400900203C
:10182000440900200000014000040040000800407E
:10183000000C0040000401400018004080B500AFDB
:10184000014807F08DFC80BDD012002080B500AFAC
:10185000094B9B7A002B0AD0084A084B1B6823F0DF
:101860000603136006F0C8FC0348FFF783FB4FF440
:10187000802008F0A5F980BDD012002010ED00E016
:1018800080B58AB000AF7860396000237B620023A6
:101890003B620023FB610023BB617B681B8A9BB218
:1018A0007B627B6A23F440537B623B68DB881A4689
:1018B0007B6A13437B627B6A9AB27B681A827B687D
:1018C0009B899BB27B627B6A23F4B05323F00C03A9
:1018D0007B623B689A883B681B8913439AB23B68DA
:1018E0005B8913439BB21A467B6A13437B627B6A14
:1018F0009AB27B689A817B689B8A9BB27B627B6A87
:1019000023F440737B623B689B891A467B6A1343CE
:101910007B627B6A9AB27B689A8207F10803184659
:1019200005F09AFC7B68314A934203D07B68304AC9
:10193000934202D17B693B6201E03B693B627B6879
:101940009B899BB29BB21BB2002B0CDA3A6A1346FE
:101950009B0013449A001A443B681B685B00B2FB6F
:10196000F3F3FB610BE03A6A13469B0013449A00C1
:101970001A443B681B689B00B2FBF3F3FB61FB69F5
:101980001C4AA2FB03235B091B017B627B6A1B09C8
:10199000642202FB03F3FA69D31ABB617B689B895B
:1019A0009BB29BB21BB2002B0CDABB69DB0032335B
:1019B000104AA2FB03235B0903F007037A6A13436F
:1019C0007B620BE0BB691B0132330A4AA2FB032393
:1019D0005B0903F00F037A6A13437B627B6A9AB256
:1019E0007B681A812837BD4680BD00BF00100140CA
:1019F000001401401F85EB5180B483B000AF7860C4
:101A00000B46FB70FB78002B08D07B689B899BB250
:101A100043F400539AB27B689A8107E07B689B8904
:101A20009BB223F400539AB27B689A810C37BD466F
:101A30005DF8047B704700BF80B483B000AF78606E
:101A40000B467B807B88C3F308039AB27B689A803D
:101A50000C37BD465DF8047B704700BF80B483B08F
:101A600000AF78607B689B889BB2C3F308039BB28E
:101A700018460C37BD465DF8047B704780B487B0CC
:101A800000AF78600B467B8013467B7000233B6180
:101A90000023FB600023BB6000237B617B687B61CC
:101AA0007B88DBB25B09DBB23B617B8803F01F0301
:101AB000FB60FB68012202FA03F3BB603B69012B68
:101AC00003D17B690C337B6109E03B69022B03D1B5
:101AD0007B6910337B6102E07B6914337B617B7827
:101AE000002B06D07B697A691168BA680A431A60CC
:101AF00006E07B697A691168BA68D2430A401A60C5
:101B00001C37BD465DF8047B704700BF80B485B0CC
:101B100000AF78600B467B800023FB737B681B88DB
:101B20009AB27B8813409BB2002B02D00123FB7337
:101B300001E00023FB73FB7B18461437BD465DF8BC
:101B4000047B704780B584B000AFF860B9607A60FC
:101B5000F868B9680DF0AEF80346002B01D0BB68F9
:101B600009E07868F9680DF0A5F80346002B01D06C
:101B70007B6800E0FB6818461037BD4680BD00BF9B
:101B800080B485B000AF78607B681B783B737B685E
:101B90005B787B737B689B78BB737B68DB78FB73BC
:101BA000FB6818461437BD465DF8047B704700BFDC
:101BB00080B485B000AF78600B467B807B88BB81AA
:101BC0003A7B7B681A707B6801337A7B1A70143712
:101BD000BD465DF8047B704780B582B000AF786089
:101BE0007B680D4A93420AD14FF00070012105F045
:101BF00037FC4FF00070002105F032FC09E04FF097
:101C00008060012105F02CFC4FF08060002105F080
:101C100027FC0837BD4680BD0064004080B485B015
:101C200000AF786039600023FB730023BB607B68E2
:101C30001B6823F002027B681A607B681B6843F014
:101C400001027B681A6002E0BB680133BB607B68FD
:101C50005B6803F00103002B04D1BB684FF6FF72F1
:101C60009342F1D17B685B6803F00103002B02D142
:101C70000023FB739CE03B689B79012B06D17B68BA
:101C80001B6843F080027B681A6005E07B681B6874
:101C900023F080027B681A603B68DB79012B06D158
:101CA0007B681B6843F040027B681A6005E07B6834
:101CB0001B6823F040027B681A603B681B7A012B8B
:101CC00006D17B681B6843F020027B681A6005E040
:101CD0007B681B6823F020027B681A603B685B7A94
:101CE000012B06D17B681B6843F010027B681A60E9
:101CF00005E07B681B6823F010027B681A603B6874
:101D00009B7A012B06D17B681B6843F008027B6835
:101D10001A6005E07B681B6823F008027B681A6084
:101D20003B68DB7A012B06D17B681B6843F0040219
:101D30007B681A6005E07B681B6823F004027B68FF
:101D40001A603B689B789A073B68DB781B061A434E
:101D50003B681B791B041A433B685B791B051A43DC
:101D60003B681B88013B1A437B68DA617B681B6810
:101D700023F001027B681A600023BB6002E0BB68AD
:101D80000133BB607B685B6803F00103002B04D068
:101D9000BB684FF6FF729342F1D17B685B6803F03A
:101DA0000103002B02D00023FB7301E00123FB732E
:101DB000FB7B18461437BD465DF8047B704700BFB7
:101DC00080B485B000AF78600023FB607B689B7AAD
:101DD0001A4601239340FB60554A554BD3F8003215
:101DE00043F00103C2F800325149514BD3F81C2291
:101DF000FB68DB431340C1F81C327B681B7B002B64
:101E000025D14B494A4BD3F80C22FB68DB431340E6
:101E1000C1F80C3246497B689B7A18467B68DB88A0
:101E20001B047A6852881A4300F1480341F83320B2
:101E30003F497B689B7A18467B689B881B047A68BD
:101E400012881A4300F14803DB000B445A607B6898
:101E50001B7B012B24D13649354BD3F80C22FB6870
:101E60001343C1F80C3232497B689B7A18467B6871
:101E70001B881B047A6852881A4300F1480341F812
:101E800033202B497B689B7A18467B689B881B0410
:101E90007A68D2881A4300F14803DB000B445A6089
:101EA0007B68DB7A002B09D12149214BD3F804222E
:101EB000FB68DB431340C1F8043207E01C491C4BAC
:101EC000D3F80422FB681343C1F804327B681B89F2
:101ED000002B08D11649164BD3F81422FB68DB43BC
:101EE0001340C1F814327B681B89012B07D11049BC
:101EF0000F4BD3F81422FB681343C1F814327B68EC
:101F00005B7B012B07D10A49094BD3F81C22FB68E4
:101F10001343C1F81C32064A054BD3F8003223F0B4
:101F20000103C2F800321437BD465DF8047B7047E8
:101F30000064004080B483B000AF78607B6800220A
:101F40009A717B680022DA717B6800221A727B68C2
:101F500000225A727B6800229A727B680022DA7231
:101F60007B6800229A707B680022DA707B6803220B
:101F70001A717B6802225A717B6801221A800C3721
:101F8000BD465DF8047B704780B485B000AF7860D3
:101F900039600023FB737B689B6803F08063002B30
:101FA00002D00023FB7313E07B689B6803F000639F
:101FB000002B02D00123FB730AE07B689B6803F0CF
:101FC0008053002B02D00223FB7301E00423FB7338
:101FD000FB7B042B00F09880FB7BFA7B796818323E
:101FE00012010A44126802F00102796818331B01D9
:101FF0000B441A603B681B7A002B13D1FB7BFA7BE6
:102000007968183212010A4411683A681268520558
:102010003868407A02430A43796818331B010B443D
:102020001A6015E0FB7BFA7B7968183212010A44CA
:1020300011683A685268D2003868007A02433868FA
:10204000407A02430A43796818331B010B441A6033
:102050003B689B7A03F00F03DAB23B689A72FB7B12
:10206000FA7B7968183212010A44526822F00F0292
:10207000796818331B010B445A60FB7BFA7B796843
:10208000183212010A4452683968897A0A43796819
:1020900018331B010B445A60FB7B3A68927B110694
:1020A0003A68527B120411433A68127B12020A43C7
:1020B0003968C97A0A4379681B010B4403F5C47374
:1020C0001A60FB7B3A68927C11063A68527C1204D3
:1020D00011433A68127C12020A433968C97B0A43E9
:1020E00079681B010B4403F5C4735A60FB7BFA7BD0
:1020F0007968183212010A44126842F001027968C4
:1021000018331B010B441A60FB7B18461437BD467D
:102110005DF8047B704700BF80B485B000AF786085
:102120000B46FB700023FB60FB78012B09D0022BD0
:102130000DD0002B11D17B689A68264B1340FB60B1
:102140000EE07B689A68244B1340FB6008E07B68D4
:102150009A68224B1340FB6002E00023FB6000BF43
:10216000FB681F4A93421BD01D4A934208D81D4A60
:10217000934212D0174A934218D0002B0AD01EE087
:10218000194A93420FD0154A934215D0124A9342EE
:102190000FD014E00223FB6014E00023FB6011E089
:1021A0000023FB600EE00023FB600BE00123FB60DB
:1021B00008E00123FB6005E00123FB6002E000234F
:1021C000FB6000BFFB68DBB218461437BD465DF804
:1021D000047B7047030000040003000800000310A4
:1021E00000010008010000040000011080B485B067
:1021F00000AFF8600B467A60FB72FB7AFA681B331B
:102200001B0113441B68DBB203F00403DAB27B68E2
:102210001A727B681B7A002B09D1FB7AFA681B3390
:102220001B0113441B685A0D7B681A6008E0FB7A97
:10223000FA681B331B0113441B68DA087B685A6079
:10224000FB7AFA681B331B0113441B68DBB203F0F3
:102250000203DAB27B685A72FB7AFA681B331B01FD
:1022600013445B68DBB203F00F03DAB27B689A7247
:10227000FB7AFA681B331B0113445B681B0ADAB252
:102280007B68DA74FB7AFA681B01134403F5DC738C
:102290001B68DAB27B68DA72FB7AFA681B011344B6
:1022A00003F5DC731B681B0ADAB27B681A73FB7ACE
:1022B000FA681B01134403F5DC731B681B0CDAB2CC
:1022C0007B685A73FB7AFA681B01134403F5DC73CD
:1022D0001B681B0EDAB27B689A73FB7AFA681B01E3
:1022E000134403F5DC735B68DAB27B68DA73FB7A5C
:1022F000FA681B01134403F5DC735B681B0ADAB24E
:102300007B681A74FB7AFA681B01134403F5DC73CB
:102310005B681B0CDAB27B685A74FB7AFA681B01A3
:10232000134403F5DC735B681B0EDAB27B689A74A6
:10233000FB7A002B06D1FB68DB6843F02002FB68C8
:10234000DA6005E0FB681B6943F02002FB681A6154
:102350001437BD465DF8047B704700BF80B485B07C
:1023600000AFF860B9601346FB71FB79002B06D013
:10237000FB685A69BB681A43FB685A6106E0FB6850
:102380005A69BB68DB431A40FB685A611437BD4683
:102390005DF8047B704700BF80B584B000AF786003
:1023A00039600023FB737B685A693B681340002B3C
:1023B00000F0B2803B68402B62D0402B0FD8042B3A
:1023C0003AD0042B04D8012B24D0022B2BD09FE031
:1023D000102B43D0202B4AD0082B36D098E0B3F5F1
:1023E000006F00F08380B3F5006F09D8B3F5007F6C
:1023F0006AD0B3F5806F70D0B3F5807F5BD087E093
:10240000B3F5803F45D0B3F5003F4BD0B3F5004F57
:1024100075D07DE07B689B681846434900F086F8DC
:102420000346FB7377E07B68DB681846032100F006
:102430007DF80346FB736EE07B68DB681846082175
:1024400000F074F80346FB7365E07B68DB681846B0
:10245000102100F06BF80346FB735CE07B681B699E
:102460001846032100F062F80346FB7353E07B68D3
:102470001B691846082100F059F80346FB734AE02F
:102480007B681B691846102100F050F80346FB7367
:1024900041E07B685B681846082100F047F8034676
:1024A000FB7338E07B685B681846102100F03EF84B
:1024B0000346FB732FE07B689B691846012100F0FF
:1024C00035F80346FB7326E07B689B6918460221BA
:1024D00000F02CF80346FB731DE07B689B691846EF
:1024E000042100F023F80346FB7314E07B689B692A
:1024F0001846702100F01AF80346FB730BE07B6866
:102500005B681846042100F011F80346FB7302E0F3
:102510000023FB7300BF01E00023FB73FB7B184625
:102520001037BD4680BD00BF0101010080B485B0F9
:1025300000AF786039600023FB737A683B68134012
:10254000002B02D00123FB7301E00023FB73FB7B14
:1025500018461437BD465DF8047B704780B400AF61
:10256000064BD3E90023013243F100030349C1E9DB
:102570000023BD465DF8047B704700BF480900207A
:1025800080B500AF00F010F802460B461046194621
:102590004FF47A724FF000030CF0FAFB02460B4640
:1025A0001046194680BD00BF80B400AF094BD3E987
:1025B0000023921843EB0303990041EA92719000C3
:1025C000121843EB010310461946BD465DF8047B23
:1025D000704700BF4809002080B500AF014805F0F2
:1025E00021FC80BDACC5273780B58AB002AFF8604A
:1025F0007A601A460B46FB7213463B8107F11403BF
:102600001846FFF797FCFB68012B08D14E48FFF7EF
:10261000E3FA4FF00070012104F0E6FE0AE0FB68E7
:10262000022B07D14948FFF7D7FA4FF0806001210C
:1026300004F0DAFE3A89002300930220796801232E
:10264000FEF7C2FCBA8D002300930220B96A012371
:10265000FEF7BAFCFB68012B16D13B89184607F040
:10266000C3FD03469BB278681946092205F07CFD3C
:10267000BB8D184607F0B8FD03469BB2B86A1946F1
:10268000092205F071FD18E0FB68022B15D13B898A
:10269000184607F0A9FD03469BB27868194609223F
:1026A00005F062FDBB8D184607F09EFD03469BB208
:1026B000B86A1946092205F057FD0123BB760023AD
:1026C000FB7600233B7700237B770023BB77002337
:1026D000FB77FB7ABB750023FB7505233B7606234E
:1026E0007B760323BB82FB68012B06D107F1140321
:1026F00015481946FFF792FA08E0FB68022B05D14E
:1027000007F1140311481946FFF788FA4FF4E06007
:1027100007F03CFEFB68012B08D1142007F04EFDAA
:10272000094802210122FFF719FE0AE0FB68022B8B
:1027300007D1402007F042FD044802210122FFF7A3
:102740000DFE2037BD4680BD00640040006800409B
:1027500080B586B000AF7860084611461A46034639
:10276000FB700B463B801346BB700023FB820023AB
:10277000FB8210E0FB8ADBB2BB7400233B820023A8
:102780007B7507F108031846FFF71AFBFB8A9BB21B
:1027900001339BB2FB82B7F916300D2BEADD7B6863
:1027A000DBB2BB7400233B8201237B75FB78002BDB
:1027B00002D10023FB7404E0FB78012B01D101233B
:1027C000FB7400233B75B7F900305B019AB2BB780C
:1027D0001B019BB213439BB29BB27B81B7F92030A4
:1027E0005B019AB297F824301B019BB213439BB252
:1027F0009BB2FB81B7F928305B019AB297F82C3075
:102800001B019BB213439BB29BB23B81B7F93030A3
:102810005B019AB297F834301B019BB213439BB211
:102820009BB2BB8107F108031846FFF7C9FA1837B6
:10283000BD4680BD80B582B000AF7860074879683A
:10284000FFF7A2FB00BF05480021FFF765FC034628
:10285000012BF8D10837BD4680BD00BF00640040A1
:1028600080B582B000AF104B7B60104B3B6007E03F
:102870003B681A1D3A607A68111D796012681A6007
:102880003B680B4A9342F3D30A480B494FF00002CE
:102890008842B8BF40F8042BFADB04F01DFE04F0B8
:1028A00003F80837BD4680BD384A02080000002002
:1028B0000C09002010090020C418002080B400AFCB
:1028C000FEE700BF80B584B000AF786007F1080371
:1028D0007868194606F0D8FB3B7A03F01F03012BFA
:1028E0000AD0022B0FD0002B14D107F1080378680F
:1028F000194605F0F3FF16E007F10803786819465A
:1029000006F03CF80FE007F108037868194606F076
:1029100069F808E03B7A23F07F03DBB27868194658
:1029200007F078FE00BF002318461037BD4680BD73
:1029300080B584B000AF78600B46FB70FB78002B4D
:1029400044D17B6803F55C73FB607B6893F81131BD
:10295000032B4ED1FB68DA69FB689B689A4220D949
:10296000FB68DA69FB689B68D21AFB68DA617B68EE
:10297000DB78012B06D1FB68DA68FB689B681A4498
:10298000FB68DA60FB68D968FB689A68FB68DB69FA
:10299000934228BF13469BB278681A4608F09AF80B
:1029A00027E07B68D3F8E0351B69002B0AD07B68F1
:1029B00093F81231032B05D17B68D3F8E0351B69FE
:1029C00078689847786808F099F812E07B68D3F83F
:1029D000E0359B69002B0CD07B6893F81231032BF8
:1029E00007D17B68D3F8E0359B69FA78786811469F
:1029F0009847002318461037BD4680BD80B584B087
:102A000000AF78600B46FB70FB78002B60D17B68D1
:102A100003F58C73FB607B6893F81131022B6AD14C
:102A2000FB68DA69FB689B689A421CD9FB68DA6923
:102A3000FB689B68D21AFB68DA617B68DB78012B44
:102A400006D1FB68DA68FB689B681A44FB68DA60A9
:102A5000FB68DA68FB68DB699BB2786811461A4646
:102A600008F024F847E0FB681B6AFA689268B3FB39
:102A7000F2F102FB01F29B1A002B14D1FB681A6AD7
:102A8000FB689B689A420ED3FB681A6AFB685B6A14
:102A90009A4208D278680021002208F007F8FB6803
:102AA00000225A6227E07B68D3F8E035DB68002B10
:102AB0000AD07B6893F81231032B05D17B68D3F8D9
:102AC000E035DB6878689847786808F02FF812E0FE
:102AD0007B68D3F8E0355B69002B0CD07B6893F8FA
:102AE0001231032B07D17B68D3F8E0355B69FA78A4
:102AF000786811469847002318461037BD4680BDB8
:102B000080B582B000AF7860786800214022002351
:102B100007F0AEFC786880214022002307F0A8FC73
:102B20007B68012283F812217B68D3F8E4355B6867
:102B30007A68927810469847002318460837BD46B1
:102B400080BD00BF80B582B000AF78607B68D3F8ED
:102B5000E4351B6998477B68032283F81221002320
:102B600018460837BD4680BD80B582B000AF78609A
:102B70007B68042283F812217B68D3F8E435DB6894
:102B80009847002318460837BD4680BD80B582B0FF
:102B900000AF78607B68D3F8E035DB69002B05D0A7
:102BA0007B68D3F8E035DB697868984700231846DE
:102BB0000837BD4680BD00BF80B582B000AF7860E9
:102BC0000B46FB707B68D3F8E0351B68FA787868B1
:102BD000114698477B68D3F8E4359B6898470023F3
:102BE00018460837BD4680BD80B582B000AF78601A
:102BF0000B46FB707B68D3F8E0355B68FA78786841
:102C000011469847002318460837BD4680BD00BFCF
:102C100080B582B000AF78607B68D3F8E0351B6A7E
:102C200078689847002318460837BD4680BD00BF26
:102C300080B582B000AF78607B68D3F8E0355B6A1E
:102C400078689847002318460837BD4680BD00BF06
:102C500080B483B000AF786039607B683A689A606E
:102C60007B6800225A60002318460C37BD465DF889
:102C7000047B704780B483B000AF786039600C3754
:102C8000BD465DF8047B704780B582B000AF7860C8
:102C90007B68064A1A607B681033184603F01CFCF8
:102CA0007B6818460837BD4680BD00BFB8150208CE
:102CB00080B582B000AF786039607B681846FFF756
:102CC000E3FF7B68074A1A607B683A68C3F82021F3
:102CD0007B680022C3F81C217B6818460837BD4674
:102CE00080BD00BFC013020880B582B000AF78601D
:102CF0000B46FB707B6803F11002FB781046194607
:102D000003F0FEFB0346002B0CBF01230023DBB2C4
:102D1000002B0AD0FB780D2B13D17B68D3F81C3124
:102D20005A1C7B68C3F81C210BE07B68D3F81C316C
:102D3000002B06D1FB780D2B03D17B680122C3F851
:102D40001C210837BD4680BD80B582B000AF7860D9
:102D50007B681033184603F003FC0346002B0CBFBE
:102D600001230023DBB218460837BD4680BD00BFF3
:102D700080B483B000AF78607B68D3F81C3118460C
:102D80000C37BD465DF8047B704700BF80B582B04C
:102D900000AF78607B681033184603F0F7FB0346FA
:102DA00018460837BD4680BD90B585B000AF786045
:102DB00039607B681033184603F0D2FB0346002BC2
:102DC00014BF01230023DBB2002B08D03B68002294
:102DD0001A707B680022C3F81C21002354E00023F2
:102DE000FB604DE0FB683A68D4187B6810331846E6
:102DF00003F0CCFB03462370FB683A6813441B784E
:102E00000D2B02D0FB68FE2B1FDDFB683A681344D4
:102E100000221A707B681033184603F0A1FB0346AA
:102E2000002B14BF01230023DBB2002B04D07B68EE
:102E30000022C3F81C2106E07B68D3F81C315A1E1F
:102E40007B68C3F81C21FB681EE07B6810331846C2
:102E500003F086FB0346002B14BF01230023DBB2E3
:102E6000002B0AD0FB683A68134400221A707B6872
:102E70000022C3F81C21FB6806E0FB680133FB60FD
:102E8000FB68FF2BAEDD002318461437BD4690BD0E
:102E900080B582B000AF78607B689B68012B06D15B
:102EA0007B685B681846FFF763FF034600E000237A
:102EB00018460837BD4680BD80B582B000AF786047
:102EC00039603B6800221A707B689B68012B07D130
:102ED0007B685B6818463968FFF766FF034600E0C9
:102EE000002318460837BD4680BD00BF80B582B0BC
:102EF00000AF78607B689B68012B06D17B685B68BC
:102F00001846FFF721FF034600E000231846083764
:102F1000BD4680BD80B582B000AF78607B689B689D
:102F2000012B06D17B685B681846FFF72FFF03462D
:102F300000E0002318460837BD4680BD80B584B048
:102F400000AF786039600023FB600DE07B681B6890
:102F500004331B68FA6839680A44127878681146A5
:102F60009847FB680133FB60FB683A6813441B78A1
:102F7000002BEBD11037BD4680BD00BF90B587B0A8
:102F800002AFF860B9607A603B60FB6802229A6029
:102F9000FB681B681C683B680093F868B9687A682E
:102FA0003B6AA047034618461437BD4690BD00BF94
:102FB00090B587B002AFF860B9607A603B60FB689B
:102FC00001229A604FF4927013F01AFA04462046D8
:102FD000F968FFF76DFEFB685C60FB681B681C68A6
:102FE000FB685B681A467B680093F868B9683B68C1
:102FF000A047034618461437BD4690BD80B584B03F
:1030000000AF78607B681B680C331B687868984752
:103010000346FB60FB68002B01D0FB6803E07B6884
:1030200001225A60002318461037BD4680BD00BFFC
:1030300080B584B000AF78607B681B6810331B6874
:10304000786898470346FB60FB68002B01D0FB685B
:1030500003E07B6802225A60002318461037BD4601
:1030600080BD00BF80B584B000AF78607B681B680E
:1030700014331B68786898470346FB60FB68002B95
:1030800001D0FB6803E07B6803225A6000231846E6
:103090001037BD4680BD00BF80B584B000AF7860FA
:1030A0007B681B6818331B68786898470346FB6089
:1030B000FB68002B01D0FB6803E07B6804225A60A8
:1030C000002318461037BD4680BD00BF80B582B0D2
:1030D00000AF786039607B685B68002B00D125E029
:1030E0007B685B68022B07D17B681B6804331B6815
:1030F00078683968984719E03B68012B06D17B68EE
:103100001B6824331B68786898470FE03B68002BE6
:1031100006D17B681B6828331B687868984705E0F0
:103120007B681B681C331B68786898470837BD4666
:1031300080BD00BF80B582B000AF78607B685B68FF
:10314000002B01D1002311E07B685B68012B07D1C4
:103150007B681B6808331B6878689847034605E05E
:103160007B681B681B6878689847034618460837D1
:10317000BD4680BD80B582B000AF78607B681B68BB
:103180002C331B687868012198470837BD4680BDFD
:1031900080B582B000AF78607B681B682C331B68F9
:1031A0007868002198470837BD4680BD90B583B048
:1031B00000AF78607B681B682C331C687B681B68D9
:1031C00030331B68786898470346002B0CBF0123F7
:1031D0000023DBB278681946A0470C37BD4690BD86
:1031E00080B582B000AF78607B681B681B68786828
:1031F0009847034618460837BD4680BD80B582B063
:1032000000AF78607B681B6804331B687868984758
:10321000034618460837BD4680BD00BF80B584B060
:1032200000AFF860B9607A60FB681B681B68F868DB
:10323000B9687A689847034618461037BD4680BD7E
:1032400080B582B000AF786039607B681B6804335A
:103250001B687868396898470837BD4680BD00BF4D
:1032600080B582B000AF78607B681B6808331B684C
:1032700078689847034618460837BD4680BD00BFAA
:1032800080B483B000AF786040F6FF7318460C3707
:10329000BD465DF8047B7047A0F10800F0E700BF71
:1032A00080B483B000AF7860034B18460C37BD463E
:1032B0005DF8047B704700BF33335340A0F1080032
:1032C000EEE700BF80B483B000AF786040F6FF73D4
:1032D00018460C37BD465DF8047B7047A0F1080026
:1032E000F0E700BF80B483B000AF7860034B1846AE
:1032F0000C37BD465DF8047B704700BF3333534045
:10330000A0F10800EEE700BF80B483B000AF7860A2
:1033100040F6FF7318460C37BD465DF8047B7047D6
:10332000A0F10800F0E700BF80B483B000AF786080
:10333000034B18460C37BD465DF8047B704700BF51
:1033400033335340A0F10800EEE700BF80B483B0F0
:1033500000AF786040F6FF7318460C37BD465DF845
:10336000047B7047A0F10800F0E700BF80B483B091
:1033700000AF7860034B18460C37BD465DF8047B00
:10338000704700BF33335340A0F10800EEE700BFA1
:1033900080B483B000AF786040F6FF7318460C37F6
:1033A000BD465DF8047B7047A0F10800F0E700BF60
:1033B00080B483B000AF7860034B18460C37BD462D
:1033C0005DF8047B704700BF33335340A0F1080021
:1033D000EEE700BF80B582B000AF786004484FF4DC
:1033E000805104F08BFE034618460837BD4680BD69
:1033F0000004024080B582B000AF786039603B685D
:10340000002B05D106484FF4805104F09FFE04E0E4
:1034100003484FF4805104F08BFE0837BD4680BD51
:103420000004024080B582B000AF786004484FF4D9
:10343000805104F049FE034618460837BD4680BD5A
:103440000004024080B584B002AF7860002300938E
:10345000002005494FF480520023FDF7B5FD0023FD
:1034600018460837BD4680BD0004024080B584B0D0
:1034700002AF786000230093012005494FF4805289
:103480000023FDF7A1FD002318460837BD4680BD87
:103490000004024080B584B002AF7860002300933E
:1034A000002005494FF480520123FDF78DFD0023D4
:1034B00018460837BD4680BD0004024080B584B080
:1034C00002AF786000230093002005494FF480523A
:1034D0000223FDF779FD002318460837BD4680BD5D
:1034E0000004024080B582B000AF786004484FF419
:1034F000004104F003FE034618460837BD4680BD70
:103500000010024080B582B000AF786039603B683F
:10351000002B05D106484FF4004104F017FE04E0EB
:1035200003484FF4004104F003FE0837BD4680BD58
:103530000010024080B582B000AF786004484FF4BC
:10354000004104F0C1FD034618460837BD4680BD62
:103550000010024080B584B002AF78600023009371
:10356000002005494FF400420023FDF72DFD012303
:1035700018460837BD4680BD0010024080B584B0B3
:1035800002AF786000230093012005494FF4004208
:103590000023FDF719FD002318460837BD4680BDFE
:1035A0000010024080B584B002AF78600023009321
:1035B000002005494FF400420123FDF705FD0123DA
:1035C00018460837BD4680BD0010024080B584B063
:1035D00002AF786000230093002005494FF40042B9
:1035E0000223FDF7F1FC002318460837BD4680BDD5
:1035F0000010024080B582B000AF786004484FF4FC
:10360000804104F07BFD034618460837BD4680BD67
:103610000004024080B582B000AF786039603B683A
:10362000002B05D106484FF4804104F08FFD04E0E3
:1036300003484FF4804104F07BFD0837BD4680BD50
:103640000004024080B582B000AF786004484FF4B7
:10365000804104F039FD034618460837BD4680BD59
:103660000004024080B584B002AF7860002300936C
:10367000002005494FF480420023FDF7A5FC0023FC
:1036800018460837BD4680BD0004024080B584B0AE
:1036900002AF786000230093012005494FF4804277
:1036A0000023FDF791FC002318460837BD4680BD76
:1036B0000004024080B584B002AF7860002300931C
:1036C000002005494FF480420123FDF77DFC0023D3
:1036D00018460837BD4680BD0004024080B584B05E
:1036E00002AF786000230093002005494FF4804228
:1036F0000223FDF769FC002318460837BD4680BD4C
:103700000004024080B582B000AF786004484FF4F6
:10371000004104F0F3FC034618460837BD4680BD5F
:103720000004024080B582B000AF786039603B6829
:10373000002B05D106484FF4004104F007FD04E0DA
:1037400003484FF4004104F0F3FC0837BD4680BD48
:103750000004024080B582B000AF786004484FF4A6
:10376000004104F0B1FC034618460837BD4680BD51
:103770000004024080B584B002AF7860002300935B
:10378000002005494FF400420023FDF71DFC0023F3
:1037900018460837BD4680BD0004024080B584B09D
:1037A00002AF786000230093012005494FF40042E6
:1037B0000023FDF709FC002318460837BD4680BDED
:1037C0000004024080B584B002AF7860002300930B
:1037D000002005494FF400420123FDF7F5FB0023CB
:1037E00018460837BD4680BD0004024080B584B04D
:1037F00002AF786000230093002005494FF4004297
:103800000223FDF7E1FB002318460837BD4680BDC3
:103810000004024080B582B000AF786004484FF4E5
:10382000004104F06BFC034618460837BD4680BDD6
:103830000000024080B582B000AF786039603B681C
:10384000002B05D106484FF4004104F07FFC04E052
:1038500003484FF4004104F06BFC0837BD4680BDBF
:103860000000024080B582B000AF786004484FF499
:10387000004104F029FC034618460837BD4680BDC8
:103880000000024080B584B002AF7860002300934E
:10389000002005494FF400420023FDF795FB00236B
:1038A00018460837BD4680BD0000024080B483B092
:1038B00000AF7860012318460C37BD465DF8047BE5
:1038C000704700BF80B584B002AF786000230093DA
:1038D000002005494FF400420123FDF775FB00234A
:1038E00018460837BD4680BD0000024080B584B050
:1038F00002AF786000230093002005494FF4004296
:103900000223FDF761FB002318460837BD4680BD42
:103910000000024080B582B000AF786004484FF4E8
:10392000005104F0EBFB034618460837BD4680BD46
:103930000004024080B582B000AF786039603B6817
:10394000002B05D106484FF4005104F0FFFB04E0C2
:1039500003484FF4005104F0EBFB0837BD4680BD2F
:103960000004024080B582B000AF786004484FF494
:10397000005104F0A9FB034618460837BD4680BD38
:103980000004024080B584B002AF78600023009349
:10399000002005494FF400520023FDF715FB0023DA
:1039A00018460837BD4680BD0004024080B483B08D
:1039B00000AF7860012318460C37BD465DF8047BE4
:1039C000704700BF80B584B002AF786000230093D9
:1039D000002005494FF400520123FDF7F5FA0023BA
:1039E00018460837BD4680BD0004024080B584B04B
:1039F00002AF786000230093002005494FF4005285
:103A00000223FDF7E1FA002318460837BD4680BDC2
:103A10000004024080B582B000AF786004484FF4E3
:103A2000006104F06BFB034618460837BD4680BDB5
:103A3000000C024080B582B000AF786039603B680E
:103A4000002B05D106484FF4006104F07FFB04E031
:103A500003484FF4006104F06BFB0837BD4680BD9E
:103A6000000C024080B582B000AF786004484FF48B
:103A7000006104F029FB034618460837BD4680BDA7
:103A8000000C024080B584B002AF78600023009340
:103A9000002005494FF400620023FDF795FA00234A
:103AA00018460837BD4680BD000C024080B483B084
:103AB00000AF7860012318460C37BD465DF8047BE3
:103AC000704700BF80B584B002AF786000230093D8
:103AD000002005494FF400620123FDF775FA002329
:103AE00018460837BD4680BD000C024080B584B042
:103AF00002AF786000230093002005494FF4006274
:103B00000223FDF761FA002318460837BD4680BD41
:103B1000000C024080B582B000AF786004484FF4DA
:103B2000806104F0EBFA034618460837BD4680BDB5
:103B3000000C024080B582B000AF786039603B680D
:103B4000002B05D106484FF4806104F0FFFA04E031
:103B500003484FF4806104F0EBFA0837BD4680BD9E
:103B6000000C024080B582B000AF786004484FF48A
:103B7000806104F0A9FA034618460837BD4680BDA7
:103B8000000C024080B584B002AF7860002300933F
:103B9000002005494FF480620023FDF715FA002349
:103BA00018460837BD4680BD000C024080B483B083
:103BB00000AF7860012318460C37BD465DF8047BE2
:103BC000704700BF80B584B002AF786000230093D7
:103BD000002005494FF480620123FDF7F5F9002329
:103BE00018460837BD4680BD000C024080B584B041
:103BF00002AF786000230093002005494FF48062F3
:103C00000223FDF7E1F9002318460837BD4680BDC1
:103C1000000C024080B582B000AF786004480221F9
:103C200004F06CFA034618460837BD4680BD00BF55
:103C30000004024080B582B000AF786039603B6814
:103C4000002B04D10548022104F080FA03E0034868
:103C5000022104F06DFA0837BD4680BD0004024021
:103C600080B582B000AF78600448022104F02CFADD
:103C7000034618460837BD4680BD00BF0004024019
:103C800080B584B002AF786000230093002005491E
:103C900002220023FDF798F9002318460837BD4695
:103CA00080BD00BF0004024080B584B002AF7860E0
:103CB000002300930120054902220023FDF784F927
:103CC000002318460837BD4680BD00BF00040240EF
:103CD00080B584B002AF78600023009300200549CE
:103CE00002220123FDF770F9002318460837BD466C
:103CF00080BD00BF0004024080B584B002AF786090
:103D0000002300930020054902220223FDF75CF9FD
:103D1000002318460837BD4680BD00BF000402409E
:103D200080B582B000AF78600448102104F0E6F955
:103D3000034618460837BD4680BD00BF000002405C
:103D400080B582B000AF786039603B68002B04D149
:103D50000548102104F0FAF903E00348102104F0AB
:103D6000E7F90837BD4680BD0000024080B582B04B
:103D700000AF78600448102104F0A6F90346184605
:103D80000837BD4680BD00BF0000024080B584B04A
:103D900002AF786000230093002005491022002321
:103DA000FDF712F9002318460837BD4680BD00BF55
:103DB0000000024080B584B002AF78600023009319
:103DC0000120054910220023FDF7FEF800231846C4
:103DD0000837BD4680BD00BF0000024080B584B0FA
:103DE00002AF7860002300930020054910220123D0
:103DF000FDF7EAF8002318460837BD4680BD00BF2E
:103E00000000024080B584B002AF786000230093C8
:103E10000020054910220223FDF7D6F8002318469A
:103E20000837BD4680BD00BF0000024080B582B0AB
:103E300000AF78600448012104F060F90346184699
:103E40000837BD4680BD00BF0008024080B582B083
:103E500000AF786039603B68002B04D10548012130
:103E600004F074F903E00348012104F061F9083714
:103E7000BD4680BD0008024080B582B000AF7860CA
:103E80000448012104F020F9034618460837BD46CE
:103E900080BD00BF0008024080B584B002AF7860EA
:103EA000002300930020054901220023FDF78CF830
:103EB000002318460837BD4680BD00BF00080240F9
:103EC00080B584B002AF78600023009301200549DB
:103ED00001220023FDF778F8002318460837BD4675
:103EE00080BD00BF0008024080B584B002AF78609A
:103EF000002300930020054901220123FDF764F807
:103F0000002318460837BD4680BD00BF00080240A8
:103F100080B584B002AF786000230093002005498B
:103F200001220223FDF750F8002318460837BD464A
:103F300080BD00BF0008024080B582B000AF78604D
:103F400004484FF4805104F0D9F803461846083766
:103F5000BD4680BD0010024080B582B000AF7860E1
:103F600039603B68002B05D106484FF4805104F0BE
:103F7000EDF804E003484FF4805104F0D9F8083715
:103F8000BD4680BD0010024080B582B000AF7860B1
:103F900004484FF4805104F097F803461846083758
:103FA000BD4680BD0010024080B584B002AF78608D
:103FB00000230093002005494FF480520023FDF7B1
:103FC00003F8002318460837BD4680BD00100240A4
:103FD00080B584B002AF78600023009301200549CA
:103FE0004FF480520023FCF7EFFF002318460837F8
:103FF000BD4680BD0010024080B584B002AF78603D
:1040000000230093002005494FF480520123FCF760
:10401000DBFF002318460837BD4680BD0010024074
:1040200080B584B002AF786000230093002005497A
:104030004FF480520223FCF7C7FF002318460837CD
:10404000BD4680BD0010024080B582B000AF7860F0
:104050000448202104F052F8034618460837BD46AC
:1040600080BD00BF0000024080B582B000AF786024
:1040700039603B68002B04D10548202104F066F824
:1040800003E00348202104F053F80837BD4680BD03
:104090000000024080B582B000AF78600448202163
:1040A00004F012F8034618460837BD4680BD00BF2D
:1040B0000000024080B584B002AF78600023009316
:1040C0000020054920220023FCF77EFF002318462C
:1040D0000837BD4680BD00BF0000024080B584B0F7
:1040E00002AF7860002300930120054920220023BD
:1040F000FCF76AFF002318460837BD4680BD00BFA5
:104100000000024080B584B002AF786000230093C5
:104110000020054920220123FCF756FF0023184602
:104120000837BD4680BD00BF0000024080B584B0A6
:1041300002AF78600023009300200549202202236B
:10414000FCF742FF002318460837BD4680BD00BF7C
:104150000000024080B582B000AF786004480421BE
:1041600003F0CCFF034618460837BD4680BD00BFAC
:104170000004024080B582B000AF786039603B68CF
:10418000002B04D10548042103F0E0FF03E00348BD
:10419000042103F0CDFF0837BD4680BD0004024076
:1041A00080B582B000AF78600448042103F08CFF32
:1041B000034618460837BD4680BD00BF00040240D4
:1041C00080B584B002AF78600023009300200549D9
:1041D00004220023FCF7F8FE002318460837BD46EA
:1041E00080BD00BF0004024080B584B002AF78609B
:1041F000002300930120054904220023FCF7E4FE7C
:10420000002318460837BD4680BD00BF00040240A9
:1042100080B584B002AF7860002300930020054988
:1042200004220123FCF7D0FE002318460837BD46C0
:1042300080BD00BF0004024080B584B002AF78604A
:10424000002300930020054904220223FCF7BCFE52
:10425000002318460837BD4680BD00BF0004024059
:1042600080B582B000AF78600448802103F046FF3B
:10427000034618460837BD4680BD00BF0010024007
:1042800080B582B000AF786039603B68002B04D104
:104290000548802103F05AFF03E00348802103F022
:1042A00047FF0837BD4680BD0010024080B582B090
:1042B00000AF78600448802103F006FF03461846EB
:1042C0000837BD4680BD00BF0010024080B584B0F5
:1042D00002AF78600023009300200549802200236C
:1042E000FCF772FE002318460837BD4680BD00BFAC
:1042F0000010024080B584B002AF786000230093C4
:104300000120054980220023FCF75EFE00231846A9
:104310000837BD4680BD00BF0010024080B584B0A4
:1043200002AF78600023009300200549802201231A
:10433000FCF74AFE002318460837BD4680BD00BF83
:104340000010024080B584B002AF78600023009373
:104350000020054980220223FCF736FE0023184680
:104360000837BD4680BD00BF0010024080B582B056
:1043700000AF786004484FF4806103F0BFFE03464D
:1043800018460837BD4680BD0010024080B582B097
:1043900000AF786039603B68002B05D106484FF4C8
:1043A000806103F0D3FE04E003484FF4806103F022
:1043B000BFFE0837BD4680BD0010024080B582B008
:1043C00000AF786004484FF4806103F07DFE03463F
:1043D00018460837BD4680BD0010024080B584B045
:1043E00002AF786000230093002005494FF48062FB
:1043F0000023FCF7E9FD002318460837BD4680BDC1
:104400000010024080B584B002AF786000230093B2
:10441000012005494FF480620023FCF7D5FD0023FD
:1044200018460837BD4680BD0010024080B584B0F4
:1044300002AF786000230093002005494FF48062AA
:104440000123FCF7C1FD002318460837BD4680BD97
:104450000010024080B584B002AF78600023009362
:10446000002005494FF480620223FCF7ADFD0023D4
:1044700018460837BD4680BD0010024080B582B0A6
:1044800000AF78600448012103F038FE0346184667
:104490000837BD4680BD00BF0004024080B582B031
:1044A00000AF786039603B68002B04D105480121DA
:1044B00003F04CFE03E00348012103F039FE083706
:1044C000BD4680BD0004024080B582B000AF786078
:1044D0000448012103F0F8FD034618460837BD469D
:1044E00080BD00BF0004024080B584B002AF786098
:1044F000002300930020054901220023FCF764FDFE
:10450000002318460837BD4680BD00BF00040240A6
:1045100080B584B002AF7860002300930120054984
:1045200001220023FCF750FD002318460837BD4642
:1045300080BD00BF0004024080B584B002AF786047
:10454000002300930020054901220123FCF73CFDD4
:10455000002318460837BD4680BD00BF0004024056
:1045600080B584B002AF7860002300930020054935
:1045700001220223FCF728FD002318460837BD4618
:1045800080BD00BF0004024080B582B000AF7860FB
:104590000448102103F0B2FD034618460837BD4613
:1045A00080BD00BF0010024080B582B000AF7860CF
:1045B00039603B68002B04D10548102103F0C6FD8B
:1045C00003E00348102103F0B3FD0837BD4680BD6A
:1045D0000010024080B582B000AF7860044810211E
:1045E00003F072FD034618460837BD4680BD00BF84
:1045F0000010024080B584B002AF786000230093C1
:104600000020054910220023FCF7DEFC0023184699
:104610000837BD4680BD00BF0010024080B584B0A1
:1046200002AF786000230093012005491022002387
:10463000FCF7CAFC002318460837BD4680BD00BF02
:104640000010024080B584B002AF78600023009370
:104650000020054910220123FCF7B6FC0023184670
:104660000837BD4680BD00BF0010024080B584B051
:1046700002AF786000230093002005491022022336
:10468000FCF7A2FC002318460837BD4680BD00BFDA
:104690000010024080B582B000AF78600448042169
:1046A00003F02CFD034618460837BD4680BD00BF09
:1046B0000010024080B582B000AF786039603B687E
:1046C000002B04D10548042103F040FD03E003481A
:1046D000042103F02DFD0837BD4680BD00100240C7
:1046E00080B582B000AF78600448042103F0ECFC90
:1046F000034618460837BD4680BD00BF0010024083
:1047000080B584B002AF7860002300930020054993
:1047100004220023FCF758FC002318460837BD4646
:1047200080BD00BF0010024080B584B002AF786049
:10473000002300930120054904220023FCF744FCD8
:10474000002318460837BD4680BD00BF0010024058
:1047500080B584B002AF7860002300930020054943
:1047600004220123FCF730FC002318460837BD461D
:1047700080BD00BF0010024080B584B002AF7860F9
:10478000002300930020054904220223FCF71CFCAF
:10479000002318460837BD4680BD00BF0010024008
:1047A00080B582B000AF786004484FF4807103F0A8
:1047B000A5FC034618460837BD4680BD00100240E0
:1047C00080B582B000AF786039603B68002B05D1BE
:1047D00006484FF4807103F0B9FC04E003484FF43D
:1047E000807103F0A5FC0837BD4680BD0010024073
:1047F00080B582B000AF786004484FF4807103F058
:1048000063FC034618460837BD4680BD00100240D1
:1048100080B584B002AF7860002300930020054982
:104820004FF480720023FCF7CFFB002318460837B3
:10483000BD4680BD0010024080B584B002AF7860F4
:1048400000230093012005494FF480720023FCF7F8
:10485000BBFB002318460837BD4680BD0010024050
:1048600080B584B002AF7860002300930020054932
:104870004FF480720123FCF7A7FB0023184608378A
:10488000BD4680BD0010024080B584B002AF7860A4
:1048900000230093002005494FF480720223FCF7A7
:1048A00093FB002318460837BD4680BD0010024028
:1048B00080B582B000AF78600448082103F01EFC88
:1048C000034618460837BD4680BD00BF00100240B1
:1048D00080B582B000AF786039603B68002B04D1AE
:1048E0000548082103F032FC03E00348082103F0E7
:1048F0001FFC0837BD4680BD0010024080B582B065
:1049000000AF78600448082103F0DEFB0346184638
:104910000837BD4680BD00BF0010024080B584B09E
:1049200002AF78600023009300200549082200238D
:10493000FCF74AFB002318460837BD4680BD00BF80
:104940000010024080B584B002AF7860002300936D
:104950000120054908220023FCF736FB00231846F6
:104960000837BD4680BD00BF0010024080B584B04E
:1049700002AF78600023009300200549082201233C
:10498000FCF722FB002318460837BD4680BD00BF58
:104990000010024080B584B002AF7860002300931D
:1049A0000020054908220223FCF70EFB00231846CD
:1049B0000837BD4680BD00BF0010024080B582B000
:1049C00000AF78600448202103F098FB03461846A6
:1049D0000837BD4680BD00BF0008024080B582B0E8
:1049E00000AF786039603B68002B04D10548202176
:1049F00003F0ACFB03E00348202103F099FB0837E8
:104A0000BD4680BD0008024080B582B000AF78602E
:104A10000448202103F058FB034618460837BD46DA
:104A200080BD00BF0008024080B584B002AF78604E
:104A3000002300930020054920220023FCF7C4FA3C
:104A4000002318460837BD4680BD00BF000802405D
:104A500080B584B002AF78607B680222DA60002300
:104A600000930120044920220023FCF7ADFA002323
:104A700018460837BD4680BD0008024080B584B0A6
:104A800002AF786000230093002005492022012313
:104A9000FCF79AFA002318460837BD4680BD00BFD0
:104AA0000008024080B584B002AF78600023009314
:104AB0000020054920220223FCF786FA002318462D
:104AC0000837BD4680BD00BF0008024080B582B0F7
:104AD00000AF78600448022103F010FB034618463B
:104AE0000837BD4680BD00BF0008024080B582B0D7
:104AF00000AF786039603B68002B04D10548022183
:104B000003F024FB03E00348022103F011FB083704
:104B1000BD4680BD0008024080B582B000AF78601D
:104B20000448022103F0D0FA034618460837BD4670
:104B300080BD00BF0008024080B584B002AF78603D
:104B4000002300930020054902220023FCF73CFAD1
:104B5000002318460837BD4680BD00BF000802404C
:104B600080B584B002AF78607B680222DA600023EF
:104B700000930120044902220023FCF725FA0023B8
:104B800018460837BD4680BD0008024080B584B095
:104B900002AF786000230093002005490222012320
:104BA000FCF712FA002318460837BD4680BD00BF47
:104BB0000008024080B584B002AF78600023009303
:104BC0000020054902220223FCF7FEF900231846C3
:104BD0000837BD4680BD00BF0008024080B582B0E6
:104BE00000AF78600448042103F088FA03461846B1
:104BF0000837BD4680BD00BF0008024080B582B0C6
:104C000000AF786039603B68002B04D1054804216F
:104C100003F09CFA03E00348042103F089FA083703
:104C2000BD4680BD0008024080B582B000AF78600C
:104C30000448042103F048FA034618460837BD46E5
:104C400080BD00BF0008024080B584B002AF78602C
:104C5000002300930020054904220023FCF7B4F947
:104C6000002318460837BD4680BD00BF000802403B
:104C700080B584B002AF78607B680222DA600023DE
:104C800000930120044904220023FCF79DF900232E
:104C900018460837BD4680BD0008024080B584B084
:104CA00002AF78600023009300200549042201230D
:104CB000FCF78AF9002318460837BD4680BD00BFBF
:104CC0000008024080B584B002AF786000230093F2
:104CD0000020054904220223FCF776F90023184638
:104CE0000837BD4680BD00BF0008024080B582B0D5
:104CF00000AF78600448082103F000FA0346184624
:104D00000837BD4680BD00BF0008024080B582B0B4
:104D100000AF786039603B68002B04D1054808215A
:104D200003F014FA03E00348082103F001FA0837FE
:104D3000BD4680BD0008024080B582B000AF7860FB
:104D40000448082103F0C0F9034618460837BD4659
:104D500080BD00BF0008024080B584B002AF78601B
:104D6000002300930020054908220023FCF72CF9BA
:104D7000002318460837BD4680BD00BF000802402A
:104D800080B584B002AF78607B680222DA600023CD
:104D900000930120044908220023FCF715F90023A1
:104DA00018460837BD4680BD0008024080B584B073
:104DB00002AF7860002300930020054908220123F8
:104DC000FCF702F9002318460837BD4680BD00BF36
:104DD0000008024080B584B002AF786000230093E1
:104DE0000020054908220223FCF7EEF800231846AC
:104DF0000837BD4680BD00BF0008024080B582B0C4
:104E000000AF78600448102103F078F90346184693
:104E10000837BD4680BD00BF0008024080B582B0A3
:104E200000AF786039603B68002B04D10548102141
:104E300003F08CF903E00348102103F079F90837F7
:104E4000BD4680BD0008024080B582B000AF7860EA
:104E50000448102103F038F9034618460837BD46C8
:104E600080BD00BF0008024080B584B002AF78600A
:104E7000002300930020054910220023FCF7A4F82A
:104E8000002318460837BD4680BD00BF0008024019
:104E900080B584B002AF78607B680222DA600023BC
:104EA00000930120044910220023FCF78DF8002311
:104EB00018460837BD4680BD0008024080B584B062
:104EC00002AF7860002300930020054910220123DF
:104ED000FCF77AF8002318460837BD4680BD00BFAE
:104EE0000008024080B584B002AF786000230093D0
:104EF0000020054910220223FCF766F8002318461B
:104F00000837BD4680BD00BF0008024080B582B0B2
:104F100000AF786004484FF4006103F0EFF80346F7
:104F200018460837BD4680BD0010024080B582B0EB
:104F300000AF786039603B68002B05D106484FF41C
:104F4000006103F003F904E003484FF4006103F04B
:104F5000EFF80837BD4680BD0010024080B582B032
:104F600000AF786004484FF4006103F0ADF80346E9
:104F700018460837BD4680BD0010024080B584B099
:104F800002AF786000230093002005494FF40062CF
:104F90000023FCF719F8002318460837BD4680BDEA
:104FA0000010024080B584B002AF78607B680222B6
:104FB000DA6000230093012005494FF400620023CA
:104FC000FCF702F8002318460837BD4680BD00BF35
:104FD0000010024080B584B002AF786000230093D7
:104FE000002005494FF400620123FBF7EDFF002389
:104FF00018460837BD4680BD0010024080B584B019
:1050000002AF786000230093002005494FF400624E
:105010000223FBF7D9FF002318460837BD4680BDA1
:105020000010024080B582B000AF78600448402193
:1050300003F064F8034618460837BD4680BD00BF3C
:105040000010024080B582B000AF786039603B68E4
:10505000002B04D10548402103F078F803E0034811
:10506000402103F065F80837BD4680BD00100240BE
:1050700080B582B000AF78600448402103F024F886
:10508000034618460837BD4680BD00BF00100240E9
:1050900080B584B002AF78600023009300200549FA
:1050A00040220023FBF790FF002318460837BD4637
:1050B00080BD00BF0010024080B584B002AF7860B0
:1050C0007B680222DA600023009301200449402219
:1050D0000023FBF779FF002318460837BD4680BD43
:1050E0000010024080B584B002AF786000230093C6
:1050F0000020054940220123FBF766FF00231846E4
:105100000837BD4680BD00BF0010024080B584B0A6
:1051100002AF78600023009300200549402202235B
:10512000FBF752FF002318460837BD4680BD00BF7D
:105130000010024080B582B000AF786004482021A2
:1051400002F0DCFF034618460837BD4680BD00BFAD
:105150000010024080B582B000AF786039603B68D3
:10516000002B04D10548202102F0F0FF03E00348A2
:10517000202102F0DDFF0837BD4680BD001002404F
:1051800080B582B000AF78600448202102F09CFF17
:10519000034618460837BD4680BD00BF00100240D8
:1051A00080B584B002AF78600023009300200549E9
:1051B00020220023FBF708FF002318460837BD46CE
:1051C00080BD00BF0010024080B584B002AF78609F
:1051D0007B680222DA600023009301200449202228
:1051E0000023FBF7F1FE002318460837BD4680BDBB
:1051F0000010024080B584B002AF786000230093B5
:105200000020054920220123FBF7DEFE002318467B
:105210000837BD4680BD00BF0010024080B584B095
:1052200002AF78600023009300200549202202236A
:10523000FBF7CAFE002318460837BD4680BD00BFF5
:105240000010024080B582B000AF786004484FF48F
:10525000007102F053FF034618460837BD4680BD73
:105260000010024080B582B000AF786039603B68C2
:10527000002B05D106484FF4007102F067FF04E0EF
:1052800003484FF4007102F053FF0837BD4680BD5C
:105290000010024080B582B000AF786004484FF43F
:1052A000007102F011FF034618460837BD4680BD65
:1052B0000010024080B584B002AF786000230093F4
:1052C000002005494FF400720023FBF77DFE002308
:1052D00018460837BD4680BD0010024080B584B036
:1052E00002AF78607B680222DA600023009301201D
:1052F00005494FF400720023FBF766FE00231846B1
:105300000837BD4680BD00BF0010024080B584B0A4
:1053100002AF786000230093002005494FF400722B
:105320000123FBF751FE002318460837BD4680BD18
:105330000010024080B584B002AF78600023009373
:10534000002005494FF400720223FBF73DFE0023C5
:1053500018460837BD4680BD0010024080B582B0B7
:1053600000AF786004484FF4804102F0C7FE034666
:1053700018460837BD4680BD0010024080B582B097
:1053800000AF786039603B68002B05D106484FF4C8
:10539000804102F0DBFE04E003484FF4804102F05C
:1053A000C7FE0837BD4680BD0010024080B582B000
:1053B00000AF786004484FF4804102F085FE034658
:1053C00018460837BD4680BD0010024080B584B045
:1053D00002AF786000230093002005494FF480421B
:1053E0000023FBF7F1FD002318460837BD4680BDBA
:1053F0000010024080B584B002AF78607B68022262
:10540000DA6000230093012005494FF48042002315
:10541000FBF7DAFD002318460837BD4680BD00BF04
:105420000010024080B584B002AF78600023009382
:10543000002005494FF480420123FBF7C5FD0023FE
:1054400018460837BD4680BD0010024080B584B0C4
:1054500002AF786000230093002005494FF480429A
:105460000223FBF7B1FD002318460837BD4680BD77
:105470000010024080B582B000AF786004484FF45D
:10548000005102F03BFE034618460837BD4680BD7A
:105490000010024080B582B000AF786039603B6890
:1054A000002B05D106484FF4005102F04FFE04E0F6
:1054B00003484FF4005102F03BFE0837BD4680BD63
:1054C0000010024080B582B000AF786004484FF40D
:1054D000005102F0F9FD034618460837BD4680BD6D
:1054E0000010024080B584B002AF786000230093C2
:1054F000002005494FF400520023FBF765FD00230F
:1055000018460837BD4680BD0010024080B584B003
:1055100002AF78607B680222DA60002300930120EA
:1055200005494FF400520023FBF74EFD00231846B7
:105530000837BD4680BD00BF0010024080B584B072
:1055400002AF786000230093002005494FF4005219
:105550000123FBF739FD002318460837BD4680BDFF
:105560000010024080B584B002AF78600023009341
:10557000002005494FF400520223FBF725FD0023CC
:1055800018460837BD4680BD0010024080B582B085
:1055900000AF78607B680122DA600448202102F0C5
:1055A0006BFA002318460837BD4680BD000802404C
:1055B000A0F10800FFF7EABF90B583B000AF7860B4
:1055C0000C48202102F040FB04467B681B684833EE
:1055D0001B68786898470346184609F079F903462E
:1055E0002046194609F07CFA034618460C37BD469A
:1055F00090BD00BF00080240A0F10800FFF7DCBF2B
:1056000080B582B000AF78607B680122DA60044820
:10561000022102F031FA002318460837BD4680BD4A
:1056200000080240A0F10800FFF7EABF90B583B080
:1056300000AF78600C48022102F006FB04467B684C
:105640001B6848331B68786898470346184609F07A
:105650003FF903462046194609F042FA0346184628
:105660000C37BD4690BD00BF00080240A0F1080005
:10567000FFF7DCBF80B582B000AF78607B680122A5
:10568000DA600448042102F0F7F9002318460837CD
:10569000BD4680BD00080240A0F10800FFF7EABF48
:1056A00090B583B000AF78600C48042102F0CCFACA
:1056B00004467B681B6848331B6878689847034634
:1056C000184609F005F903462046194609F008FA7C
:1056D000034618460C37BD4690BD00BF0008024087
:1056E000A0F10800FFF7DCBF80B582B000AF7860A2
:1056F0007B680122DA600448082102F0BDF900232A
:1057000018460837BD4680BD00080240A0F10800D9
:10571000FFF7EABF90B583B000AF78600C4808216E
:1057200002F092FA04467B681B6848331B6878686D
:1057300098470346184609F0CBF803462046194619
:1057400009F0CEF9034618460C37BD4690BD00BFA0
:1057500000080240A0F10800FFF7DCBF80B582B06E
:1057600000AF78607B680122DA600448102102F003
:1057700083F9002318460837BD4680BD0008024063
:10578000A0F10800FFF7EABF90B583B000AF7860E2
:105790000C48102102F058FA04467B681B68483315
:1057A0001B68786898470346184609F091F8034645
:1057B0002046194609F094F9034618460C37BD46B1
:1057C00090BD00BF00080240A0F10800FFF7DCBF59
:1057D00080B582B000AF7860054806494FF440526A
:1057E000FBF702FF002318460837BD4680BD00BF07
:1057F00000080040000C024080B582B000AF786025
:105800007B681B7A002B05D00648FBF779FF03461F
:105810005B4203E00348FBF773FF03461846083773
:10582000BD4680BD0008004080B582B000AF786002
:1058300004480549C022FBF7D7FE00231846083765
:10584000BD4680BD000400400000024080B582B02B
:1058500000AF78607B681B7A002B05D00648FBF709
:105860004FFF03465B4203E00348FBF749FF034653
:1058700018460837BD4680BD0004004080B582B0A0
:1058800000AF7860044805490322FBF7ADFE002312
:1058900018460837BD4680BD000C0040000002409D
:1058A00080B582B000AF78607B681B7A002B05D092
:1058B0000648FBF725FF03465B4203E00348FBF77E
:1058C0001FFF034618460837BD4680BD000C004048
:1058D00080B586B000AFF860B9607A60FB680122DD
:1058E000DA60B86809F00EFA0346094809494FF42E
:1058F0000062FAF70DFD03467B61054802217A68D4
:10590000FAF770FC7B6918461837BD4680BD00BFAA
:105910000000014000100240A0F10800FFF7D8BFCE
:1059200080B582B000AF78603960044802213A68DF
:10593000FAF758FC0837BD4680BD00BF00000140A3
:10594000A0F10800FFF7ECBF80B582B000AF78602F
:1059500004480221FAF7A8FC034618460837BD465A
:1059600080BD00BF00000140A0F10800FFF7ECBFC0
:1059700080B586B000AFF860B9607A60FB6801223C
:10598000DA60B86809F0BEF90346084808494022C1
:10599000FAF7BEFC03467B61044802217A68FAF7F5
:1059A00021FC7B6918461837BD4680BD0040014088
:1059B00000100240A0F10800FFF7DABF80B582B006
:1059C00000AF78603960044802213A68FAF70AFCAF
:1059D0000837BD4680BD00BF00400140A0F108006F
:1059E000FFF7ECBF80B582B000AF786004480221B9
:1059F000FAF75AFC034618460837BD4680BD00BF7B
:105A000000400140A0F10800FFF7ECBF80B586B070
:105A100000AFF860B9607A60FB680122DA60B868AC
:105A200009F070F90346084808492022FAF770FC8B
:105A300003467B61044801217A68FAF7D3FB7B694E
:105A400018461837BD4680BD004001400010024096
:105A5000A0F10800FFF7DABF80B582B000AF786030
:105A60003960044801213A68FAF7BCFB0837BD46A3
:105A700080BD00BF00400140A0F10800FFF7ECBF6F
:105A800080B582B000AF786004480121FAF70CFCC1
:105A9000034618460837BD4680BD00BF00400140A0
:105AA000A0F10800FFF7ECBF80B586B000AFF8604A
:105AB000B9607A60FB680122DA60B86809F022F9FF
:105AC0000346094809494FF40072FAF721FC0346DE
:105AD0007B61054801217A68FAF784FB7B691846E7
