:020000040800F2
:10000000C858012095250008F96D0008156E0008F4
:10001000316E00084D6E0008696E00080000000097
:10002000000000000000000000000000856E0008D5
:10003000A16E000800000000BD6E0008A9220008A3
:10004000F5250008F5250008F5250008F525000828
:10005000F5250008F5250008F5250008F525000818
:10006000F5250008F5250008F5250008F525000808
:10007000F5250008F5250008F5250008F5250008F8
:10008000F5250008F5250008F5250008F5250008E8
:10009000B5610008F5250008F5250008F5250008DC
:1000A000F5250008FD100008F5250008F5250008D5
:1000B0004511000891110008D9110008F525000824
:1000C000F5250008F5250008F5250008F5250008A8
:1000D000F5250008F5250008815C0008195D000879
:1000E000F5250008F525000841160008B1120008A2
:1000F00069120008F5250008F5250008F525000817
:10010000F5250008AD70000821120008F52500084B
:10011000F5250008F5250008F5250008F525000857
:10012000F5250008F5250008F5250008B970000838
:10013000F5250008F5250008F5250008F525000837
:10014000F5250008F5250008F525000831160008FA
:10015000F5250008F5250008F5250008F525000817
:10016000F5250008F5250008F5250008F525000807
:10017000F5250008F5250008F5250008F5250008F7
:10018000F5250008F525000810B5054C237833B98E
:10019000044B13B10448AFF300800123237010BD5A
:1001A00010090020000000004CE1010808B5064BD2
:1001B0001BB106480649AFF300800648036813B137
:1001C000054B03B1984708BD000000004CE1010851
:1001D00014090020080900200000000080B584B048
:1001E00000AFF8600B467A60FB72FB7A013B032B91
:1001F00052D801A252F823F0090200082D0200088B
:100200005102000875020008FB68DB6A18460BF013
:10021000F1FE0346184679680BF044FF0346184682
:100220000CF0B6F80246FB685A6336E0FB68DB6AFE
:1002300018460BF0DFFE0346184679680BF032FFD4
:10024000034618460CF0A4F80246FB689A6324E0C3
:10025000FB68DB6A18460BF0CDFE0346184679684A
:100260000BF020FF034618460CF092F80246FB689C
:10027000DA6312E0FB68DB6A18460BF0BBFE03464C
:10028000184679680BF00EFF034618460CF080F80C
:100290000246FB681A6400E000BF1037BD4680BD0F
:1002A00080B582B000AF78600B46FB70FB78012B05
:1002B00006D17B685B6B18460BF09CFE03461FE083
:1002C000FB78022B06D17B689B6B18460BF092FEE5
:1002D000034615E0FB78032B06D17B68DB6B1846E1
:1002E0000BF088FE03460BE0FB78042B06D17B68FD
:1002F0001B6C18460BF07EFE034601E04FF0000336
:1003000018460837BD4680BD90B5ADB002AFF86065
:10031000B9603B601346FB800023C7F8A43000237C
:10032000C7F8A0300023C7F89C300123C7F89830E5
:100330000023A7F8963007F02FF807F1440318467A
:1003400006F006F8FB68B3F1804F03D3FA68954BCB
:100350009A4207D9FA68944B9A4211D9FA68934B9A
:100360009A420DD8FB6C924AD2F88C20120E02F001
:100370000102013202FB03F35B00C7F8A4300CE07A
:100380003B6D8B4AD2F88C20120E02F00102013232
:1003900002FB03F35B00C7F8A4303B68002B0ADDC7
:1003A000D7F8A430834A82FB03125211DB17D21A0A
:1003B0003B689A4201DA0123EFE01FE0D7F8A03052
:1003C0000133C7F8A030D7F8A420D7F8A03092FBAB
:1003D000F3F23B6892FBF3F3C7F89C30D7F89C30FC
:1003E000B3F5803F02DA0023C7F89830D7F8A02091
:1003F0004FF6FE739A4201DD0123CEE0D7F8983024
:10040000002BDBD1D7F8A420D7F8A03092FBF3F271
:10041000D7F89C3092FBF3F33B60F86808F008FED5
:10042000FB88002200920220B9681A46002300F0DF
:10043000C1FDD7F89C30013BFB63D7F8A0309BB2DD
:10044000013B9BB23B870023A7F8403000237B870A
:10045000002387F8423007F13803F868194609F09D
:1004600081FB6023BB8400233B860123FB840423A0
:100470003B8508237B864FF48073BB864FF4007363
:10048000FB8607F12403F868194609F043FCF86875
:10049000002109F02DFE07F12403F868194609F040
:1004A000B3FCF868002109F03FFE07F12403F86867
:1004B000194609F031FDF868002109F053FE07F1F3
:1004C0002403F868194609F0ADFDF868002109F029
:1004D00065FEFA68384B9A4203D0FA68374B9A4265
:1004E00011D107F11403184609F09EFE4FF4804322
:1004F0003B8407F11403F868194609F06DFEF868AB
:10050000012109F0AFFEFA8807F15403104619469D
:1005100008F00CFC0023A7F8963025E0B7F89630D9
:100520005B0007F1A802134433F8543C012B16D1A9
:10053000B7F8963010335B0007F1A8010B4433F88D
:10054000523C184608F0F8FE03461C46F86808F0CE
:1005500069FF0346B86821461A4606F0ABFEB7F8B5
:1005600096300133A7F89630B7F896300F2BD5D9CF
:10057000FB6800225A63FB6800229A63FB68002232
:10058000DA63FB6800221A64F868012109F082FB33
:10059000F868012109F09EFB00231846AC37BD46E0
:1005A00090BD00BF00140040FF1700400020004035
:1005B000003802401F85EB5100000140000401405B
:1005C00080B489B000AFF860B960FA71BB800023D5
:1005D000FB76FB68DB78002B22D100237B610023B4
:1005E000FB61BB880333002B00DA03339B107B6174
:1005F000FB79FA6832339B0013449B683B6100230C
:10060000FB6109E0BB681A683B691A60FB6901334A
:10061000FB61BB680433BB60FA697B699A42F1D322
:10062000FB7E18462437BD465DF8047B704700BF4B
:1006300080B489B000AFF860B9601346FB80002336
:10064000FB61FB880333002B00DA03339B10BB6193
:10065000FB68D3F8D0307B610023FB6109E07B6944
:100660001A68BB681A60FB690133FB61BB6804331D
:10067000BB60FA69BB699A42F1D3BB68184624375C
:10068000BD465DF8047B704780B586B000AF7860EA
:1006900039600023FB7400237B610023FB60FB684F
:1006A00043F02003FB603B68DBB203F01F03DAB2C8
:1006B000FB6862F38A13FB607B68DB68FA681A6187
:1006C0007B68DB681B69FB607B6901337B617A694E
:1006D000094B9A4200D906E0FB685B0903F001036D
:1006E000DBB2012BECD0032007F078F9FB7C184635
:1006F0001837BD4680BD00BF400D030080B483B0F5
:1007000000AF78607B68DB685B6903F00103184623
:100710000C37BD465DF8047B704700BF80B582B0E2
:1007200000AF78607868FFF7E9FF0346012B0CBF44
:1007300000230123DBB218460837BD4680BD00BF49
:1007400080B485B000AF78600023FB607B68DB6815
:100750005B69FB607B68DB689B69FA681340FB6040
:10076000FB6818461437BD465DF8047B704700BF30
:1007700080B485B000AF78600023FB737B681B6991
:100780009B68BB603B7AC3F34103DBB2022B09D009
:10079000032B04D0012B02D00323FB7305E00223BB
:1007A000FB7302E00123FB7300BFFB7B1846143789
:1007B000BD465DF8047B704780B487B000AF7860B9
:1007C0000023FB750023BB607B681B699B683B6152
:1007D0007B689B691B68FB603B7CC3F34103DBB216
:1007E000022B04D0BB896FF30A03BB8105E0BB89F0
:1007F000032262F30A03BB8100BF7B689B69FA682E
:100800001A607B7A43F001037B727B681B697A680C
:1008100012695168BA68D2431140BA680A435A60F3
:10082000FB7D18461C37BD465DF8047B704700BF52
:1008300080B487B000AF786039600023FB74002378
:10084000FB600023BB603B685B78012B0FD13B68EA
:100850001B787A6804339B0013449B687B613B6878
:100860001B78012202FA03F39BB23B810EE03B6846
:100870001B787A6814339B0013445B687B613B6888
:100880001B78012202FA03F39BB27B817B691B6810
:10089000FB607B7BC3F3C013DBB2002B27D13B682B
:1008A0009B689BB2C3F30A039AB2BB8962F30A0343
:1008B000BB813B68DB7803F00303DAB2BB7B62F3F6
:1008C0008303BB733B68DB88DBB203F00F03DAB250
:1008D000FB8962F38913FB81FB7B43F01003FB73FD
:1008E0007B7B43F080037B73FA687B691A607B68CB
:1008F0001B697A681269D169BA680A43DA61FB7CBC
:1009000018461C37BD465DF8047B704780B588B03B
:1009100000AF786039600023FB770023BB610023C0
:100920007B6100233B613B685B78012B40F0AB802F
:100930003B681B787A6804339B0013449B681B68F0
:100940007B613B681B787A6804339B0013449B6887
:100950001B693B613B685B69002B09D13B696FF305
:1009600012033B617B8A012262F3CC037B8222E08B
:100970003B685B69C3F312023B6962F312033B619C
:100980003B685A693B689B6813445A1E3B689B68E6
:10099000B2FBF3F39BB2C3F309039AB27B8A62F30F
:1009A000CC037B823B68DB78012B04D1FB7C0122EA
:1009B00062F34613FB743B681B787A6804339B0030
:1009C00013449B683A691A617B68DB78012B0AD172
:1009D0003B681B787A6804339B0013449B683A6831
:1009E00012695A6115E03B68DB78012B11D03B6836
:1009F0005B69002B0DD03B681B78012202FA03F3E0
:100A0000BB617B681B697A681269516BBA690A43DA
:100A10005A633B68DB78012B14D17B681B699B68A8
:100A2000FB60FB68C3F30D239BB203F00103002BB3
:100A300004D1FB7D43F02003FB7503E0FB7D43F015
:100A40001003FB75FB7D43F00403FB75FB7D43F056
:100A50008003FB753B681B787A6804339B00134462
:100A60009B687A691A603B68DB78012B40F08880CC
:100A70003B68D9683B681A783B685B699BB27868C9
:100A8000FFF79EFD7CE03B681B787A6814339B007F
:100A900013445B681B687B613B681B787A6814337E
:100AA0009B0013445B681B693B613B685B69002BDF
:100AB0000DD13B689B68C3F312023B6962F31203DA
:100AC0003B617B8A012262F3CC037B821FE03B689F
:100AD0005A693B689B6813445A1E3B689B68B2FB8B
:100AE000F3F39BB2C3F309039AB27B8A62F3CC039C
:100AF0007B827B8AC3F3C9039BB23A68926802FB8C
:100B000003F3C3F312023B6962F312033B613B68D8
:100B10001B787A6814339B0013445B683A691A6146
:100B20007B68DB78012B09D13B681B787A6814332A
:100B30009B0013445B683A6812695A613B68DB7832
:100B4000012B0CD13B685B79002B04D0FB7D43F07B
:100B50002003FB7503E0FB7D43F01003FB75FB7D79
:100B600043F00403FB75FB7D43F08003FB753B689A
:100B70001B787A6814339B0013445B687A691A60A7
:100B8000FB7F18462037BD4680BD00BF80B489B0CA
:100B900000AF786039600023FB770023BB6100233E
:100BA0003B610023BB603B685B78012B6FD17B68A6
:100BB0009B697B617B691B683B617B691B69BB60CF
:100BC0003B685B69002B09D13B7A6FF306033B72EC
:100BD000BB7A012262F3C403BB7223E03B685A690B
:100BE0003B689B689A420ED93B689A683B685A6199
:100BF0003B689B68DBB203F07F03DAB23B7A62F3B7
:100C000006033B7209E03B685B69DBB203F07F03DC
:100C1000DAB23B7A62F306033B72BB7A012262F3DB
:100C2000C403BB72BA687B691A617B68DB78012BED
:100C300009D13B681B787A6804339B0013449B6896
:100C40003A6812695A61FB7C43F00403FB74FB7C35
:100C500043F08003FB743A697B691A607B68DB7838
:100C6000002B75D13B685B69002B71D03B681B780A
:100C7000012202FA03F3BA691343BB617B681B6963
:100C80007A681269516BBA690A435A6360E03B683B
:100C90001B787A6814339B0013445B681B683B61C4
:100CA0003B681B787A6814339B0013445B681B69AC
:100CB000BB603B685B69002B0FD13B689B68DBB274
:100CC00003F07F03DAB23B7A62F306033B72BB7A2E
:100CD000012262F3C403BB7212E03B689A683B686E
:100CE0005A613B689B68DBB203F07F03DAB23B7A60
:100CF00062F306033B72BB7A012262F3C403BB7248
:100D00003B681B787A6814339B0013445B68BA68AD
:100D10001A617B68DB78012B09D13B681B787A6804
:100D200014339B0013445B683A6812695A61FB7C78
:100D300043F00403FB74FB7C43F08003FB743B68CB
:100D40001B787A6814339B0013445B683A691A6015
:100D5000FB7F18462437BD465DF8047B704700BF13
:100D600080B487B000AF786039600023FB75002342
:100D7000FB603B685B78012B1CD13B681B787A6871
:100D800004339B0013449B683B613B691B68FB6019
:100D9000FB7BC3F3C013DBB2002B03D0FB7B43F020
:100DA0004003FB73BB7B43F02003BB73FA683B69D2
:100DB0001A6011E03B681B787A6814339B00134477
:100DC0005B683B613B691B68FB60BB7B43F02003B6
:100DD000BB73FA683B691A60FB7D18461C37BD4639
:100DE0005DF8047B704700BF80B487B000AF7860C7
:100DF00039600023FB740023FB603B685B78012BA8
:100E000008D13B681B787A6804339B0013449B68C5
:100E10007B6107E03B681B787A6814339B001344BE
:100E20005B687B617B691B68FB60BB7B6FF3451371
:100E3000BB733B68DB78032B03D03B68DB78022B6A
:100E400003D1FB7B43F01003FB73FA687B691A60E4
:100E5000FB7C18461C37BD465DF8047B704700BF1D
:100E600080B485B000AF78607B681B699B69FB60CC
:100E70007B681B69DB69FA681340FB60FB681B0C2D
:100E800018461437BD465DF8047B704780B485B0C2
:100E900000AF78600B46FB70FB787A6814339B00D8
:100EA00013445B689B68FB607B681B695B69FA683D
:100EB0001340FB60FB6818461437BD465DF8047BA1
:100EC000704700BF80B485B000AF78607B681B6955
:100ED0009B69FB607B681B69DB69FA681340FB60F8
:100EE000FB689BB218461437BD465DF8047B70471B
:100EF00080B487B000AF786000233B61FB7C43F097
:100F0000C003FB74BB7C012262F3C403BB743B7C53
:100F1000182262F306033B747B685B6D3A691A61C1
:100F20007B68DB78012B16D10023FB607B685B6D4F
:100F30007A6802F5B9625A617B685B6D1B68FB6079
:100F4000FB7B43F08003FB734FF08023FB607B68E7
:100F50005B6DFA681A601C37BD465DF8047B70470C
:100F600080B485B000AF78607B689B7A002B1BD083
:100F70007B681B699B68FB603B7BC3F30003DBB2B0
:100F8000012B11D17B6803F586731B68BB603B7A2C
:100F90006FF341033B723B7A6FF300033B727B6854
:100FA000D3F80C31BA681A601437BD465DF8047B7B
:100FB000704700BF80B584B000AF39600146F97159
:100FC000BA80BB713A68254B9A4204D101200121B5
:100FD00005F068FA22E03A68214B9A4204D10220D7
:100FE000012105F05FFA19E03A681E4B9A4204D1DC
:100FF0000420012105F056FA10E03A681A4B9A4293
:1010000004D10820012105F04DFA07E03A68174B9A
:101010009A4203D11020012105F044FA07F1080398
:10102000184606F0DDF8BB88BB60FB793B733B7E5E
:10103000BB73BB79FB7303237B7307F10803386829
:10104000194606F03FF8FB79012B04D1BB883868BC
:10105000194606F021F91037BD4680BD0000024058
:101060000004024000080240000C02400010024050
:1010700080B483B000AF78600B46FB70FB78002B28
:1010800006D0094B084AD16B7A680A43DA6306E056
:10109000054B054AD16B7A68D2430A40DA630C37B4
:1010A000BD465DF8047B7047002C014080B485B0DC
:1010B00000AF78600023FB73084B5A6B7B681340CA
:1010C000002B02D00123FB7301E00023FB73FB7BA9
:1010D00018461437BD465DF8047B7047002C01406C
:1010E00080B483B000AF7860034B7A689A630C37A2
:1010F000BD465DF8047B7047002C014080B500AF11
:101100000E4B1B889BB21B099BB2002B05D00C4BCE
:101110001B685A1E0A4B1A600BE0084B1B889BB2D7
:101120001B099BB2002B04D1054B1B685A1C044BB6
:101130001A600248012109F0DFF880BD000001407B
:101140002C09002080B500AF4FF080431B889BB274
:101150001B099BB2002B05D00C4B1B685A1E0B4B76
:101160001A600CE04FF080431B889BB21B099BB2B6
:10117000002B04D1054B1B685A1C044B1A604FF01E
:101180008040012109F0B8F880BD00BF300900207F
:1011900080B500AF0E4B1B889BB21B099BB2002B86
:1011A00005D00C4B1B685A1E0A4B1A600BE0084B0B
:1011B0001B889BB21B099BB2002B04D1054B1B68FB
:1011C0005A1C044B1A600248012109F095F880BDB1
:1011D000000400403409002080B500AF0E4B1B888E
:1011E0009BB21B099BB2002B05D00C4B1B685A1EEF
:1011F0000A4B1A600BE0084B1B889BB21B099BB281
:10120000002B04D1054B1B685A1C044B1A60024882
:10121000012109F071F880BD000800403809002064
:1012200080B500AF0E4B1B889BB21B099BB2002BF5
:1012300005D00C4B1B685A1E0A4B1A600BE0084B7A
:101240001B889BB21B099BB2002B04D1054B1B686A
:101250005A1C044B1A600248012109F04DF880BD68
:10126000000C00403C09002080B500AF0E4B1B88ED
:101270009BB21B099BB2002B05D00C4B1B685A1E5E
:101280000A4B1A600BE0084B1B889BB21B099BB2F0
:10129000002B04D1054B1B685A1C044B1A600248F2
:1012A000012109F029F880BD000401404009002017
:1012B00080B500AF0E4B1B889BB21B099BB2002B65
:1012C00005D00C4B1B685A1E0A4B1A600BE0084BEA
:1012D0001B889BB21B099BB2002B04D1054B1B68DA
:1012E0005A1C044B1A600248012109F005F880BD20
:1012F000001800404409002080B500AF044808F001
:10130000BDFC0246034B1B681B041344184680BDFA
:10131000000001402C09002080B500AF4FF0804054
:1013200008F0ACFC0246034B1B681B041344184630
:1013300080BD00BF3009002080B500AF044808F030
:101340009DFC0246034B1B681B041344184680BDDA
:10135000000400403409002080B500AF044808F0C4
:101360008DFC0246034B1B681B041344184680BDCA
:10137000000800403809002080B500AF044808F09C
:101380007DFC0246034B1B681B041344184680BDBA
:10139000000C00403C09002080B500AF044808F074
:1013A0006DFC0246034B1B681B041344184680BDAA
:1013B000000401404009002080B500AF044808F057
:1013C0005DFC0246034B1B681B041344184680BD9A
:1013D000001800404409002090B59DB002AFF860AD
:1013E000B9601346FB800023A7F866300023A7F8F6
:1013F0006430F86807F01CFEFB880022009202208F
:10140000B9681A460123FFF7D5FDFA8807F12003D2
:101410001046194607F08AFC0023A7F8663025E03D
:10142000B7F866305B0007F168010B4433F8483CBD
:10143000012B16D1B7F8663010335B0007F1680254
:10144000134433F8463C184607F076FF03461C4623
:10145000F86807F0E7FF0346B86821461A4605F02A
:1014600029FFB7F866300133A7F86630B7F8663061
:101470000F2BD5D91D4B1A681D4BA3FB02135B0E16
:101480009BB2013BA7F864304FF6FE73BB610023AB
:10149000BB820023BB830023FB8207F11403F8689F
:1014A000194608F05FFBB7F86430F8681946012266
:1014B00008F0C2FBF86803210022002308F02CFF8B
:1014C000F8680121012208F0F3FEF868012108F014
:1014D00001FCF86807F062FD0346184607F016FFA6
:1014E00000F056F86C37BD4690BD00BF40000020AC
:1014F00029D9426680B582B000AF78607A681E4B09
:101500009A4203D1FFF7F8FE034630E07B68B3F15F
:10151000804F03D1FFF700FF034628E07A68174B9E
:101520009A4203D1FFF708FF034620E07A68144B84
:101530009A4203D1FFF710FF034618E07A68114B77
:101540009A4203D1FFF718FF034610E07A680E4B6A
:101550009A4203D1FFF720FF034608E07A680B4B5D
:101560009A4203D1FFF728FF034600E00023184604
:101570000837BD4680BD00BF0000014000040040A8
:1015800000080040000C004000040140001800402A
:1015900080B500AF194B00221A60194B00221A6067
:1015A000184B00221A60184B00221A60174B0022B9
:1015B0001A60174B00221A60164B00221A60164858
:1015C000002108F04DFB4FF08040002108F048FB5F
:1015D0001248002108F044FB1148002108F040FBAC
:1015E0001048002108F03CFB0F48002108F038FBB0
:1015F0000E48002108F034FB80BD00BF2C090020FC
:101600003009002034090020380900203C0900205E
:10161000400900204409002000000140000400406F
:1016200000080040000C0040000401400018004089
:1016300080B500AF014806F035FE80BDD012002015
:1016400080B500AF094B9B7A002B0AD0084B084AA3
:10165000126822F006021A6005F072FE0348FFF7D6
:101660007FFC4FF4802007F053FB80BDD012002098
:1016700010ED00E080B58AB000AF786039600023DB
:101680007B6200233B620023FB610023BB617B681C
:101690001B8A9BB27B627B6A23F440537B623B686C
:1016A000DB887A6A13437B627B6A9AB27B681A8210
:1016B0007B689B899BB27B627B6A23F4B05323F0E7
:1016C0000C037B623B689A883B681B8913439AB280
:1016D0003B685B8913439BB27A6A13437B627B6AE4
:1016E0009AB27B689A817B689B8A9BB27B627B6A99
:1016F00023F440737B623B689B897A6A13437B6265
:101700007B6A9AB27B689A8207F10803184604F054
:101710001FFE7A68314B9A4203D07A68304B9A4266
:1017200002D17B693B6201E03B693B627B689B893C
:101730009BB29BB21BB2002B0CDA3A6A13469B0099
:1017400013449A001A443B681B685B00B2FBF3F336
:10175000FB610BE03A6A13469B0013449A001A445B
:101760003B681B689B00B2FBF3F3FB61FA691D4BFE
:10177000A3FB02135B091B017B627B6A1B096422CA
:1017800002FB03F3FA69D31ABB617B689B899BB2A6
:101790009BB21BB2002B0DDABB69DB0003F13202F6
:1017A000104BA3FB02135B0903F007037A6A134390
:1017B0007B620CE0BB691B0103F13202094BA3FB06
:1017C00002135B0903F00F037A6A13437B627B6A9F
:1017D0009AB27B681A812837BD4680BD001001404F
:1017E000001401401F85EB5180B483B000AF7860D6
:1017F0000B46FB70FB78002B08D07B689B899BB263
:1018000043F400539AB27B689A8107E07B689B8916
:101810009BB223F400539AB27B689A810C37BD4681
:101820005DF8047B704700BF80B483B000AF786080
:101830000B467B807B88C3F308039AB27B689A804F
:101840000C37BD465DF8047B704700BF80B483B0A1
:1018500000AF78607B689B889BB2C3F308039BB2A0
:1018600018460C37BD465DF8047B704780B487B0DE
:1018700000AF786013460A467A807B7000233B6194
:101880000023FB600023BB6000237B617B687B61DE
:101890007B88DBB25B09DBB23B617B8803F01F0313
:1018A000FB60FB68012202FA03F3BB603B69012B7A
:1018B00003D17B690C337B6109E03B69022B03D1C7
:1018C0007B6910337B6102E07B6914337B617B7839
:1018D000002B06D07B697A691168BA680A431A60DE
:1018E00006E07B697A691168BA68D2430A401A60D7
:1018F0001C37BD465DF8047B704700BF80B485B0DF
:1019000000AF78600B467B800023FB737B681B88ED
:101910009AB27B8813409BB2002B02D00123FB7349
:1019200001E00023FB73FB7B18461437BD465DF8CE
:10193000047B704780B582B000AF78607A680D4B49
:101940009A420AD14FF00070012104F005FE4FF0D9
:101950000070002104F000FE09E04FF080600121DA
:1019600004F0FAFD4FF08060002104F0F5FD083727
:10197000BD4680BD0064004080B485B000AF786093
:1019800039600023FB730023BB607B681B6823F076
:1019900002027B681A607B681B6843F001027B6867
:1019A0001A6002E0BB680133BB607B685B6803F0D0
:1019B0000103002B04D1BA684FF6FF739A42F1D1AC
:1019C0007B685B6803F00103002B02D10023FB73EB
:1019D0009CE03B689B79012B06D17B681B6843F038
:1019E00080027B681A6005E07B681B6823F0800238
:1019F0007B681A603B68DB79012B06D17B681B682A
:101A000043F040027B681A6005E07B681B6823F0A6
:101A100040027B681A603B681B7A012B06D17B6809
:101A20001B6843F020027B681A6005E07B681B6836
:101A300023F020027B681A603B685B7A012B06D199
:101A40007B681B6843F010027B681A6005E07B68C6
:101A50001B6823F010027B681A603B689B7A012B9D
:101A600006D17B681B6843F008027B681A6005E0BA
:101A70007B681B6823F008027B681A603B68DB7A8E
:101A8000012B06D17B681B6843F004027B681A6057
:101A900005E07B681B6823F004027B681A603B68E2
:101AA0009B789A073B68DB781B061A433B681B79D7
:101AB0001B041A433B685B791B051A433B681B8870
:101AC000013B1A437B68DA617B681B6823F00102E3
:101AD0007B681A600023BB6002E0BB680133BB6017
:101AE0007B685B6803F00103002B04D0BA684FF6F3
:101AF000FF739A42F1D17B685B6803F00103002B0E
:101B000002D00023FB7301E00123FB73FB7B18462B
:101B10001437BD465DF8047B704700BF80B485B0C4
:101B200000AF78600023FB607B689B7A012202FA99
:101B300003F3FB60514B514AD2F8002242F00102FC
:101B4000C3F800224D4B4D4AD2F81C12FA68D2431A
:101B50000A40C3F81C227B681B7B002B21D1474B1A
:101B6000464AD2F80C12FA68D2430A40C3F80C2253
:101B7000424B7A68927A7968C988080479684988FA
:101B80000143483243F832103C497B689B7A7A68BB
:101B9000928810047A68128802434833DB000B44B1
:101BA0005A607B681B7B012B20D1344B334AD2F81F
:101BB0000C12FA680A43C3F80C22304B7A68927A06
:101BC000796809880804796849880143483243F8EC
:101BD00032102A497B689B7A7A68928810047A6866
:101BE000D28802434833DB000B445A607B68DB7ABF
:101BF000002B09D1214B214AD2F80412FA68D243B2
:101C00000A40C3F8042207E01C4B1C4AD2F8041215
:101C1000FA680A43C3F804227B681B89002B08D1A9
:101C2000164B164AD2F81412FA68D2430A40C3F887
:101C300014227B681B89012B07D1104B0F4AD2F865
:101C40001412FA680A43C3F814227B685B7B012BE9
:101C500007D10A4B094AD2F81C12FA680A43C3F8A2
:101C60001C22064B054AD2F8002222F00102C3F8DA
:101C700000221437BD465DF8047B704700640040C5
:101C800080B483B000AF78607B6800229A717B6873
:101C90000022DA717B6800221A727B6800225A7275
:101CA0007B6800229A727B680022DA727B680022CD
:101CB0009A707B680022DA707B6803221A717B6855
:101CC00002225A717B6801221A800C37BD465DF8EA
:101CD000047B704780B485B000AF78603960002322
:101CE000FB737B689B6803F08063002B02D00023AA
:101CF000FB7313E07B689B6803F00063002B02D04A
:101D00000123FB730AE07B689B6803F08053002B80
:101D100002D00223FB7301E00423FB73FB7B042B43
:101D200000F09880FB7BFA7B7968183212010A4434
:101D3000126802F00102796818331B010B441A6023
:101D40003B681B7A002B13D1FB7BFA7B7968183236
:101D500012010A4411683A68126850053A68527ACA
:101D600002430A43796818331B010B441A6015E0DB
:101D7000FB7BFA7B7968183212010A4411683A68D1
:101D80005268D0003A68127A10433A68527A024395
:101D90000A43796818331B010B441A603B689B7A2D
:101DA00003F00F03DAB23B689A72FB7BFA7B796827
:101DB000183212010A44526822F00F02796818336F
:101DC0001B010B445A60FB7BFA7B796818321201C5
:101DD0000A4451683A68927A0A43796818331B01B9
:101DE0000B445A60FB7B3A68927B11063A68527B3F
:101DF000120411433A68127B120211433A68D27AF4
:101E00000A4379681B010B4403F5C4731A60FB7B1A
:101E10003A68927C11063A68527C120411433A687F
:101E2000127C120211433A68D27B0A4379681B0183
:101E30000B4403F5C4735A60FB7BFA7B7968183254
:101E400012010A44126842F00102796818331B013A
:101E50000B441A60FB7B18461437BD465DF8047BC3
:101E6000704700BF80B485B000AF78600B46FB7050
:101E70000023FB60FB78012B09D0022B0DD0002B37
:101E800011D17B689A68264B1340FB600EE07B689B
:101E90009A68244B1340FB6008E07B689A68224BE9
:101EA0001340FB6002E00023FB6000BFFB681F4A99
:101EB00093421BD01D4A934208D81D4A934212D028
:101EC000174A934218D0002B0AD01EE0194A9342B9
:101ED0000FD0154A934215D0124A93420FD014E006
:101EE0000223FB6014E00023FB6011E00023FB6091
:101EF0000EE00023FB600BE00123FB6008E0012300
:101F0000FB6005E00123FB6002E00023FB6000BFF3
:101F1000FB68DBB218461437BD465DF8047B70479A
:101F20000300000400030008000003100001000883
:101F3000010000040000011080B485B000AFF8601B
:101F40000B467A60FB72FB7AFA681B331B01134461
:101F50001B68DBB203F00403DAB27B681A727B6899
:101F60001B7A002B09D1FB7AFA681B331B0113443F
:101F70001B685A0D7B681A6008E0FB7AFA681B330D
:101F80001B0113441B68DA087B685A60FB7AFA6805
:101F90001B331B0113441B68DBB203F00203DAB2EC
:101FA0007B685A72FB7AFA681B331B0113445B6827
:101FB000DBB203F00F03DAB27B689A72FB7AFA683D
:101FC0001B331B0113445B681B0ADAB27B68DA74AB
:101FD000FB7AFA681B01134403F5DC731B68DAB261
:101FE0007B68DA72FB7AFA681B01134403F5DC7331
:101FF0001B681B0ADAB27B681A73FB7AFA681B014A
:10200000134403F5DC731B681B0CDAB27B685A734C
:10201000FB7AFA681B01134403F5DC731B681B0E83
:10202000DAB27B689A73FB7AFA681B01134403F5F2
:10203000DC735B68DAB27B68DA73FB7AFA681B01DF
:10204000134403F5DC735B681B0ADAB27B681A740D
:10205000FB7AFA681B01134403F5DC735B681B0C05
:10206000DAB27B685A74FB7AFA681B01134403F5F1
:10207000DC735B681B0EDAB27B689A74FB7A002B08
:1020800006D1FB68DB6843F02002FB68DA6005E0FC
:10209000FB681B6943F02002FB681A611437BD46D8
:1020A0005DF8047B704700BF80B485B000AFF86076
:1020B000B9601346FB71FB79002B06D0FB685A69A7
:1020C000BB681A43FB685A6106E0FB685A69BB6843
:1020D000DB431A40FB685A611437BD465DF8047B48
:1020E000704700BF80B584B000AF786039600023CE
:1020F000FB737B685A693B681340002B00F0B28089
:102100003B68402B62D0402B0FD8042B3AD0042BD5
:1021100004D8012B24D0022B2BD09FE0102B43D0CE
:10212000202B4AD0082B36D098E0B3F5006F00F092
:102130008380B3F5006F09D8B3F5007F6AD0B3F59B
:10214000806F70D0B3F5807F5BD087E0B3F5803FC0
:1021500045D0B3F5003F4BD0B3F5004F75D07DE0CF
:102160007B689B681846434900F086F80346FB737A
:1021700077E07B68DB681846032100F07DF80346B2
:10218000FB736EE07B68DB681846082100F074F88A
:102190000346FB7365E07B68DB681846102100F09E
:1021A0006BF80346FB735CE07B681B6918460321F0
:1021B00000F062F80346FB7353E07B681B69184626
:1021C000082100F059F80346FB734AE07B681B695D
:1021D0001846102100F050F80346FB7341E07B687D
:1021E0005B681846082100F047F80346FB7338E0A7
:1021F0007B685B681846102100F03EF80346FB73CD
:102200002FE07B689B691846012100F035F80346F2
:10221000FB7326E07B689B691846022100F02CF8CE
:102220000346FB731DE07B689B691846042100F0A0
:1022300023F80346FB7314E07B689B691846702102
:1022400000F01AF80346FB730BE07B685B681846E6
:10225000042100F011F80346FB7302E00023FB7336
:1022600000BF01E00023FB73FB7B18461037BD461F
:1022700080BD00BF0101010080B485B000AF78606F
:1022800039600023FB737A683B681340002B02D04F
:102290000123FB7301E00023FB73FB7B184614371B
:1022A000BD465DF8047B704780B400AF064BD3E9B0
:1022B0000023013243F100030349C1E90023BD4675
:1022C0005DF8047B704700BF4809002080B500AF6F
:1022D00000F010F802460B46104619464FF47A7289
:1022E0004FF000030AF074F802460B4610461946F8
:1022F00080BD00BF80B400AF094BD3E90023921822
:1023000043EB0303990041EA92719000121843EBEA
:10231000010310461946BD465DF8047B704700BFB7
:102320004809002080B500AF014804F021FE80BDBF
:10233000ACC5273780B58AB002AFF8607A600A462C
:10234000FA723B8107F114031846FFF799FCFB680A
:10235000012B08D14D48FFF7EDFA4FF00070012135
:1023600004F0BEF80AE0FB68022B07D14848FFF7EB
:10237000E1FA4FF08060012104F0B2F83B890022BD
:102380000092022079681A460123FEF713FEBB8DE6
:10239000002200920220B96A1A460123FEF70AFEC3
:1023A000FB68012B14D13B89184606F0C5FF034694
:1023B00078681946092204F07DFFBB8D184606F0A7
:1023C000BBFF0346B86A1946092204F073FF16E002
:1023D000FB68022B13D13B89184606F0ADFF03467C
:1023E00078681946092204F065FFBB8D184606F08F
:1023F000A3FF0346B86A1946092204F05BFF0123D4
:10240000BB760023FB7600233B7700237B770023FA
:10241000BB770023FB77FB7ABB750023FB75052395
:102420003B7606237B760323BB82FB68012B06D118
:1024300007F1140315481946FFF79EFA08E0FB68F8
:10244000022B05D107F1140311481946FFF794FA3E
:102450004FF4E06007F042F8FB68012B08D114202C
:1024600006F054FF094802210122FFF71DFE0AE091
:10247000FB68022B07D1402006F048FF04480221E8
:102480000122FFF711FE2037BD4680BD00640040E9
:102490000068004080B586B000AF7860F9703A807F
:1024A000BB700023FB820023FB820EE0FB8ADBB2C1
:1024B000BB7400233B8200237B7507F10803184699
:1024C000FFF72CFBFB8A0133FB82B7F916300D2B8B
:1024D000ECDD7B68DBB2BB7400233B8201237B75A0
:1024E000FB78002B02D10023FB7404E0FB78012B66
:1024F00001D10123FB7400233B75B7F900305B0168
:102500009AB2BB781B019BB213439BB29BB27B81F7
:10251000B7F920305B019AB297F824301B019BB2C7
:1025200013439BB29BB2FB81B7F928305B019AB28F
:1025300097F82C301B019BB213439BB29BB23B819B
:10254000B7F930305B019AB297F834301B019BB277
:1025500013439BB29BB2BB8107F108031846FFF7F8
:10256000DDFA1837BD4680BD80B582B000AF786017
:1025700007487968FFF7AEFB00BF05480021FFF769
:1025800071FC0346012BF8D10837BD4680BD00BF62
:102590000064004080B582B000AF114B7B60114BEE
:1025A0003B6007E03B681A1D3A607A68111D79604C
:1025B00012681A603A680C4B9A42F3D30B480C49E4
:1025C0004FF000028842B8BF40F8042BFFF6FAAF84
:1025D00003F0FEFF03F09EFE0837BD4680BD00BF3E
:1025E000DCEE0108000000200C090020100900208A
:1025F000C418002080B400AFFEE700BF80B584B0EF
:1026000000AF786007F108037868194605F0E0FD2F
:102610003B7A03F01F03012B0AD0022B0FD0002BB3
:1026200014D107F108037868194605F0FBF916E0A4
:1026300007F108037868194605F044FA0FE007F13E
:1026400008037868194605F071FA08E03B7A23F030
:102650007F03DBB27868194607F07AF800BF0023E1
:1026600018461037BD4680BD80B584B000AF786095
:102670000B46FB70FB78002B45D17B6803F55C7340
:10268000FB607B6893F81131032B4FD1FB68DA694B
:10269000FB689B689A4221D9FB68DA69FB689B68F2
:1026A000D21AFB68DA617B68DB78012B06D1FB6804
:1026B000DA68FB689B681A44FB68DA60FB68DA68D2
:1026C000FB689968FB68DB69994238BF0B469BB28F
:1026D000786811461A4607F091F927E07B68D3F82D
:1026E000E0351B69002B0AD07B6893F81231032B6D
:1026F00005D17B68D3F8E0351B697868984778681E
:1027000007F090F912E07B68D3F8E0359B69002B65
:102710000CD07B6893F81231032B07D17B68D3F878
:10272000E0359B69FA787868114698470023184687
:102730001037BD4680BD00BF80B584B000AF786063
:102740000B46FB70FB78002B60D17B6803F58C7324
:10275000FB607B6893F81131022B6AD1FB68DA6960
:10276000FB689B689A421CD9FB68DA69FB689B6826
:10277000D21AFB68DA617B68DB78012B06D1FB6833
:10278000DA68FB689B681A44FB68DA60FB68DA6801
:10279000FB68DB699BB2786811461A4607F01AF9A4
:1027A00047E0FB681B6AFA689268B3FBF2F102FB30
:1027B00001F29B1A002B14D1FB681A6AFB689B6814
:1027C0009A420ED3FB681A6AFB685B6A9A4208D287
:1027D00078680021002207F0FDF8FB6800225A62A9
:1027E00027E07B68D3F8E035DB68002B0AD07B68F4
:1027F00093F81231032B05D17B68D3F8E035DB6801
:1028000078689847786807F025F912E07B68D3F874
:10281000E0355B69002B0CD07B6893F81231032BF9
:1028200007D17B68D3F8E0355B69FA7878681146A0
:102830009847002318461037BD4680BD80B582B04A
:1028400000AF7860786800214022002306F0B6FED1
:10285000786880214022002306F0B0FE7B680122C8
:1028600083F812217B68D3F8E4355B687A68927844
:1028700010469847002318460837BD4680BD00BF64
:1028800080B582B000AF78607B68D3F8E4351B690F
:1028900098477B68032283F81221002318460837E3
:1028A000BD4680BD80B582B000AF78607B680422F1
:1028B00083F812217B68D3F8E435DB68984700235E
:1028C00018460837BD4680BD80B582B000AF78603D
:1028D0007B68D3F8E035DB69002B05D07B68D3F843
:1028E000E035DB6978689847002318460837BD460D
:1028F00080BD00BF80B582B000AF78600B46FB7032
:102900007B68D3F8E0351B68FA78786811469847F9
:102910007B68D3F8E4359B6898470023184608374E
:10292000BD4680BD80B582B000AF78600B46FB70BD
:102930007B68D3F8E0355B68FA7878681146984789
:10294000002318460837BD4680BD00BF80B582B061
:1029500000AF78607B68D3F8E0351B6A78689847E9
:10296000002318460837BD4680BD00BF80B582B041
:1029700000AF78607B68D3F8E0355B6A7868984789
:10298000002318460837BD4680BD00BF80B483B021
:1029900000AF786039607B683A689A607B68002293
:1029A0005A60002318460C37BD465DF8047B70471B
:1029B00080B483B000AF786039600C37BD465DF8F5
:1029C000047B704780B582B000AF78607B68064AB0
:1029D0001A607B681033184603F0F2FB7B681846D8
:1029E0000837BD4680BD00BF58BD010880B582B024
:1029F00000AF786039607B681846FFF7E3FF7B68BB
:102A0000074A1A607B683A68C3F820217B68002275
:102A1000C3F81C217B6818460837BD4680BD00BF3F
:102A200098BB010880B582B000AF78600B46FB70A0
:102A30007B6803F11002FB781046194603F0D4FBC3
:102A40000346002B14BF00230123DBB2002B0AD066
:102A5000FB780D2B13D17B68D3F81C315A1C7B6893
:102A6000C3F81C210BE07B68D3F81C31002B06D186
:102A7000FB780D2B03D17B680122C3F81C2108379A
:102A8000BD4680BD80B582B000AF78607B681033F2
:102A9000184603F0D9FB0346002B14BF0023012383
:102AA000DBB218460837BD4680BD00BF80B483B096
:102AB00000AF78607B68D3F81C3118460C37BD46F0
:102AC0005DF8047B704700BF80B582B000AF7860CE
:102AD0007B681033184603F0CDFB034618460837D1
:102AE000BD4680BD90B585B000AF786039607B6829
:102AF0001033184603F0A8FB0346002B0CBF00233D
:102B00000123DBB2002B08D03B6800221A707B68DF
:102B10000022C3F81C21002354E00023FB604DE099
:102B2000FB683A68D4187B681033184603F0A2FBA0
:102B300003462370FB683A6813441B780D2B02D0C0
:102B4000FB68FE2B1FDDFB683A68134400221A70F5
:102B50007B681033184603F077FB0346002B0CBF4D
:102B600000230123DBB2002B04D07B680022C3F8D2
:102B70001C2106E07B68D3F81C315A1E7B68C3F821
:102B80001C21FB681EE07B681033184603F05CFBD9
:102B90000346002B0CBF00230123DBB2002B0AD01D
:102BA000FB683A68134400221A707B680022C3F85D
:102BB0001C21FB6806E0FB680133FB60FB68FF2B10
:102BC000AEDD002318461437BD4690BD80B582B0F7
:102BD00000AF78607B689B68012B06D17B685B68DF
:102BE0001846FFF763FF034600E000231846083746
:102BF000BD4680BD80B582B000AF786039603B686B
:102C000000221A707B689B68012B07D17B685B6888
:102C100018463968FFF766FF034600E000231846B0
:102C20000837BD4680BD00BF80B582B000AF786078
:102C30007B689B68012B06D17B685B681846FFF7B1
:102C400021FF034600E0002318460837BD4680BD3B
:102C500080B582B000AF78607B689B68012B06D19D
:102C60007B685B681846FFF72FFF034600E00023F0
:102C700018460837BD4680BD80B584B000AF786087
:102C800039600023FB600DE07B681B6804331B6820
:102C9000FA6839680A441278786811469847FB68E0
:102CA0000133FB60FB683A6813441B78002BEBD1BF
:102CB0001037BD4680BD00BF90B587B002AFF86049
:102CC000B9607A603B60FB6802229A60FB681B680F
:102CD0001C683B680093F868B9687A683B6AA0474B
:102CE000034618461437BD4690BD00BF90B587B067
:102CF00002AFF860B9607A603B60FB6801229A60BD
:102D00004FF4927010F0B6FE04462046F968FFF7C3
:102D10006DFEFB685C60FB681B681C68FB685B6899
:102D20007A680092F868B9681A463B68A04703467B
:102D300018461437BD4690BD80B584B000AF7860AA
:102D40007B681B680C331B68786898470346FB60F8
:102D5000FB68002B01D0FB6803E07B6801225A600E
:102D6000002318461037BD4680BD00BF80B584B033
:102D700000AF78607B681B6810331B6878689847E1
:102D80000346FB60FB68002B01D0FB6803E07B6817
:102D900002225A60002318461037BD4680BD00BF8E
:102DA00080B584B000AF78607B681B6814331B6803
:102DB000786898470346FB60FB68002B01D0FB68EE
:102DC00003E07B6803225A60002318461037BD4693
:102DD00080BD00BF80B584B000AF78607B681B68A1
:102DE00018331B68786898470346FB60FB68002B24
:102DF00001D0FB6803E07B6804225A600023184678
:102E00001037BD4680BD00BF80B582B000AF78608E
:102E100039607B685B68002B00D125E07B685B68CC
:102E2000022B07D17B681B6804331B6878683968FC
:102E3000984719E03B68012B06D17B681B68243357
:102E40001B68786898470FE03B68002B06D17B68C9
:102E50001B6828331B687868984705E07B681B6807
:102E60001C331B68786898470837BD4680BD00BF93
:102E700080B582B000AF78607B685B68002B01D1C1
:102E8000002311E07B685B68012B07D17B681B681E
:102E900008331B6878689847034605E07B681B6821
:102EA0001B6878689847034618460837BD4680BDBA
:102EB00080B582B000AF78607B681B682C331B68DC
:102EC0007868012198470837BD4680BD80B582B03B
:102ED00000AF78607B681B682C331B687868002122
:102EE00098470837BD4680BD90B583B000AF786085
:102EF0007B681B682C331C687B681B6830331B683D
:102F0000786898470346002B14BF00230123DBB2E7
:102F100078681946A0470C37BD4690BD80B582B091
:102F200000AF78607B681B681B6878689847034629
:102F300018460837BD4680BD80B582B000AF7860C6
:102F40007B681B6804331B687868984703461846FB
:102F50000837BD4680BD00BF80B584B000AFF860C3
:102F6000B9607A60FB681B681B68F868B9687A68A2
:102F70009847034618461037BD4680BD80B582B0DD
:102F800000AF786039607B681B6804331B68786821
:102F9000396898470837BD4680BD00BF80B582B00C
:102FA00000AF78607B681B6808331B6878689847B7
:102FB000034618460837BD4680BD00BF80B483B0C5
:102FC00000AF786040F6FF7318460C37BD465DF8D9
:102FD000047B7047A0F10800F0E700BF80B483B025
:102FE00000AF7860034B18460C37BD465DF8047B94
:102FF000704700BF33335340A0F10800EEE700BF35
:1030000080B483B000AF786040F6FF7318460C3789
:10301000BD465DF8047B7047A0F10800F0E700BFF3
:1030200080B483B000AF7860034B18460C37BD46C0
:103030005DF8047B704700BF33335340A0F10800B4
:10304000EEE700BF80B483B000AF786040F6FF7356
:1030500018460C37BD465DF8047B7047A0F10800A8
:10306000F0E700BF80B483B000AF7860034B184630
:103070000C37BD465DF8047B704700BF33335340C7
:10308000A0F10800EEE700BF80B483B000AF786025
:1030900040F6FF7318460C37BD465DF8047B704759
:1030A000A0F10800F0E700BF80B483B000AF786003
:1030B000034B18460C37BD465DF8047B704700BFD4
:1030C00033335340A0F10800EEE700BF80B483B073
:1030D00000AF786040F6FF7318460C37BD465DF8C8
:1030E000047B7047A0F10800F0E700BF80B483B014
:1030F00000AF7860034B18460C37BD465DF8047B83
:10310000704700BF33335340A0F10800EEE700BF23
:1031100080B582B000AF786004484FF4805104F06D
:1031200093F8034618460837BD4680BD00040240A8
:1031300080B582B000AF786039603B68002B05D164
:1031400006484FF4805104F0A7F804E003484FF418
:10315000805104F093F80837BD4680BD000402405A
:1031600080B582B000AF786004484FF4805104F01D
:1031700051F8034618460837BD4680BD000402409A
:1031800080B584B002AF7860002300930020054929
:103190004FF480520023FDF70DFF00231846083737
:1031A000BD4680BD0004024080B584B002AF7860A7
:1031B00000230093012005494FF480520023FDF7BE
:1031C000F9FE002318460837BD4680BD00040240C2
:1031D00080B584B002AF78600023009300200549D9
:1031E0004FF480520123FDF7E5FE0023184608370F
:1031F000BD4680BD0004024080B584B002AF786057
:1032000000230093002005494FF480520223FDF76C
:10321000D1FE002318460837BD4680BD0004024099
:1032200080B582B000AF786004484FF4004104F0EC
:103230000BF8034618460837BD4680BD0010024013
:1032400080B582B000AF786039603B68002B05D153
:1032500006484FF4004104F01FF804E003484FF41F
:10326000004104F00BF80837BD4680BD0010024055
:1032700080B582B000AF786004484FF4004103F09D
:10328000C9FF034618460837BD4680BD00100240FE
:1032900080B584B002AF7860002300930020054918
:1032A0004FF400420023FDF785FE0123184608373E
:1032B000BD4680BD0010024080B584B002AF78608A
:1032C00000230093012005494FF400420023FDF73D
:1032D00071FE002318460837BD4680BD001002402D
:1032E00080B584B002AF78600023009300200549C8
:1032F0004FF400420123FDF75DFE01231846083715
:10330000BD4680BD0010024080B584B002AF786039
:1033100000230093002005494FF400420223FDF7EB
:1033200049FE002318460837BD4680BD0010024004
:1033300080B582B000AF786004484FF4804103F05C
:1033400083FF034618460837BD4680BD000402408F
:1033500080B582B000AF786039603B68002B05D142
:1033600006484FF4804103F097FF04E003484FF410
:10337000804103F083FF0837BD4680BD0004024052
:1033800080B582B000AF786004484FF4804103F00C
:1033900041FF034618460837BD4680BD0004024081
:1033A00080B584B002AF7860002300930020054907
:1033B0004FF480420023FDF7FDFD00231846083737
:1033C000BD4680BD0004024080B584B002AF786085
:1033D00000230093012005494FF480420023FDF7AC
:1033E000E9FD002318460837BD4680BD00040240B1
:1033F00080B584B002AF78600023009300200549B7
:103400004FF480420123FDF7D5FD0023184608370D
:10341000BD4680BD0004024080B584B002AF786034
:1034200000230093002005494FF480420223FDF75A
:10343000C1FD002318460837BD4680BD0004024088
:1034400080B582B000AF786004484FF4004103F0CB
:10345000FBFE034618460837BD4680BD0004024007
:1034600080B582B000AF786039603B68002B05D131
:1034700006484FF4004103F00FFF04E003484FF407
:10348000004103F0FBFE0837BD4680BD000402404A
:1034900080B582B000AF786004484FF4004103F07B
:1034A000B9FE034618460837BD4680BD00040240F9
:1034B00080B584B002AF78600023009300200549F6
:1034C0004FF400420023FDF775FD0023184608372E
:1034D000BD4680BD0004024080B584B002AF786074
:1034E00000230093012005494FF400420023FDF71B
:1034F00061FD002318460837BD4680BD0004024028
:1035000080B584B002AF78600023009300200549A5
:103510004FF400420123FDF74DFD00231846083704
:10352000BD4680BD0004024080B584B002AF786023
:1035300000230093002005494FF400420223FDF7C9
:1035400039FD002318460837BD4680BD00040240FF
:1035500080B582B000AF786004484FF4004103F0BA
:1035600073FE034618460837BD4680BD0000024082
:1035700080B582B000AF786039603B68002B05D120
:1035800006484FF4004103F087FE04E003484FF47F
:10359000004103F073FE0837BD4680BD00000240C5
:1035A00080B582B000AF786004484FF4004103F06A
:1035B00031FE034618460837BD4680BD0000024074
:1035C00080B584B002AF78600023009300200549E5
:1035D0004FF400420023FDF7EDFC002318460837A6
:1035E000BD4680BD0000024080B483B000AF78606B
:1035F000012318460C37BD465DF8047B704700BFB9
:1036000080B584B002AF78600023009300200549A4
:103610004FF400420123FDF7CDFC00231846083784
:10362000BD4680BD0000024080B584B002AF786026
:1036300000230093002005494FF400420223FDF7C8
:10364000B9FC002318460837BD4680BD0000024083
:1036500080B582B000AF786004484FF4005103F0A9
:10366000F3FD034618460837BD4680BD00040240FE
:1036700080B582B000AF786039603B68002B05D11F
:1036800006484FF4005103F007FE04E003484FF4EE
:10369000005103F0F3FD0837BD4680BD0004024031
:1036A00080B582B000AF786004484FF4005103F059
:1036B000B1FD034618460837BD4680BD00040240F0
:1036C00080B584B002AF78600023009300200549E4
:1036D0004FF400520023FDF76DFC00231846083715
:1036E000BD4680BD0004024080B483B000AF786066
:1036F000012318460C37BD465DF8047B704700BFB8
:1037000080B584B002AF78600023009300200549A3
:103710004FF400520123FDF74DFC002318460837F3
:10372000BD4680BD0004024080B584B002AF786021
:1037300000230093002005494FF400520223FDF7B7
:1037400039FC002318460837BD4680BD00040240FE
:1037500080B582B000AF786004484FF4006103F098
:1037600073FD034618460837BD4680BD000C024075
:1037700080B582B000AF786039603B68002B05D11E
:1037800006484FF4006103F087FD04E003484FF45E
:10379000006103F073FD0837BD4680BD000C024098
:1037A00080B582B000AF786004484FF4006103F048
:1037B00031FD034618460837BD4680BD000C024067
:1037C00080B584B002AF78600023009300200549E3
:1037D0004FF400620023FDF7EDFB00231846083785
:1037E000BD4680BD000C024080B483B000AF78605D
:1037F000012318460C37BD465DF8047B704700BFB7
:1038000080B584B002AF78600023009300200549A2
:103810004FF400620123FDF7CDFB00231846083763
:10382000BD4680BD000C024080B584B002AF786018
:1038300000230093002005494FF400620223FDF7A6
:10384000B9FB002318460837BD4680BD000C024076
:1038500080B582B000AF786004484FF4806103F017
:10386000F3FC034618460837BD4680BD000C0240F5
:1038700080B582B000AF786039603B68002B05D11D
:1038800006484FF4806103F007FD04E003484FF45D
:10389000806103F0F3FC0837BD4680BD000C024098
:1038A00080B582B000AF786004484FF4806103F0C7
:1038B000B1FC034618460837BD4680BD000C0240E7
:1038C00080B584B002AF78600023009300200549E2
:1038D0004FF480620023FDF76DFB00231846083784
:1038E000BD4680BD000C024080B483B000AF78605C
:1038F000012318460C37BD465DF8047B704700BFB6
:1039000080B584B002AF78600023009300200549A1
:103910004FF480620123FDF74DFB00231846083762
:10392000BD4680BD000C024080B584B002AF786017
:1039300000230093002005494FF480620223FDF725
:1039400039FB002318460837BD4680BD000C0240F5
:1039500080B582B000AF78600448022103F074FCA7
:10396000034618460837BD4680BD00BF000402402C
:1039700080B582B000AF786039603B68002B04D11D
:103980000548022103F088FC03E00348022103F00C
:1039900075FC0837BD4680BD0004024080B582B08A
:1039A00000AF78600448022103F034FC0346184657
:1039B0000837BD4680BD00BF0004024080B584B01A
:1039C00002AF786000230093002005490222002303
:1039D000FDF7F0FA002318460837BD4680BD00BF4A
:1039E0000004024080B584B002AF786000230093E9
:1039F0000120054902220023FDF7DCFA00231846C6
:103A00000837BD4680BD00BF0004024080B584B0C9
:103A100002AF7860002300930020054902220123B1
:103A2000FDF7C8FA002318460837BD4680BD00BF21
:103A30000004024080B584B002AF78600023009398
:103A40000020054902220223FDF7B4FA002318469C
:103A50000837BD4680BD00BF0004024080B582B07B
:103A600000AF78600448102103F0EEFB03461846CF
:103A70000837BD4680BD00BF0000024080B582B05F
:103A800000AF786039603B68002B04D105481021F5
:103A900003F002FC03E00348102103F0EFFB0837BA
:103AA000BD4680BD0000024080B582B000AF7860A6
:103AB0000448102103F0AEFB034618460837BD4604
:103AC00080BD00BF0000024080B584B002AF7860C6
:103AD000002300930020054910220023FDF76AFA15
:103AE000002318460837BD4680BD00BF00000240D5
:103AF00080B584B002AF78600023009301200549AF
:103B000010220023FDF756FA002318460837BD4659
:103B100080BD00BF0000024080B584B002AF786075
:103B2000002300930020054910220123FDF742FAEB
:103B3000002318460837BD4680BD00BF0000024084
:103B400080B584B002AF786000230093002005495F
:103B500010220223FDF72EFA002318460837BD462F
:103B600080BD00BF0000024080B582B000AF786029
:103B70000448012103F068FB034618460837BD4698
:103B800080BD00BF0008024080B582B000AF786001
:103B900039603B68002B04D10548012103F07CFB10
:103BA00003E00348012103F069FB0837BD4680BDEF
:103BB0000008024080B582B000AF7860044801215F
:103BC00003F028FB034618460837BD4680BD00BFFA
:103BD0000008024080B584B002AF786000230093F3
:103BE0000020054901220023FDF7E4F900231846CF
:103BF0000837BD4680BD00BF0008024080B584B0D4
:103C000002AF7860002300930120054901220023C0
:103C1000FDF7D0F9002318460837BD4680BD00BF28
:103C20000008024080B584B002AF786000230093A2
:103C30000020054901220123FDF7BCF900231846A5
:103C40000837BD4680BD00BF0008024080B584B083
:103C500002AF78600023009300200549012202236F
:103C6000FDF7A8F9002318460837BD4680BD00BF00
:103C70000008024080B582B000AF786004484FF47D
:103C8000805103F0E1FA034618460837BD4680BD6F
:103C90000010024080B582B000AF786039603B68A8
:103CA000002B05D106484FF4805103F0F5FA04E0EB
:103CB00003484FF4805103F0E1FA0837BD4680BD58
:103CC0000010024080B582B000AF786004484FF425
:103CD000805103F09FFA034618460837BD4680BD61
:103CE0000010024080B584B002AF786000230093DA
:103CF000002005494FF480520023FDF75BF90023B3
:103D000018460837BD4680BD0010024080B584B01B
:103D100002AF786000230093012005494FF48052E0
:103D20000023FDF747F9002318460837BD4680BD3C
:103D30000010024080B584B002AF78600023009389
:103D4000002005494FF480520123FDF733F9002389
:103D500018460837BD4680BD0010024080B584B0CB
:103D600002AF786000230093002005494FF4805291
:103D70000223FDF71FF9002318460837BD4680BD12
:103D80000010024080B582B000AF78600448202166
:103D900003F05AFA034618460837BD4680BD00BFF7
:103DA0000000024080B582B000AF786039603B68A7
:103DB000002B04D10548202103F06EFA03E00348EC
:103DC000202103F05BFA0837BD4680BD00000240A9
:103DD00080B582B000AF78600448202103F01AFA61
:103DE000034618460837BD4680BD00BF00000240AC
:103DF00080B584B002AF78600023009300200549AD
:103E000020220023FDF7D6F8002318460837BD46C8
:103E100080BD00BF0000024080B584B002AF786072
:103E2000002300930120054920220023FDF7C2F85A
:103E3000002318460837BD4680BD00BF0000024081
:103E400080B584B002AF786000230093002005495C
:103E500020220123FDF7AEF8002318460837BD469F
:103E600080BD00BF0000024080B584B002AF786022
:103E7000002300930020054920220223FDF79AF831
:103E8000002318460837BD4680BD00BF0000024031
:103E900080B582B000AF78600448042103F0D4F903
:103EA000034618460837BD4680BD00BF00040240E7
:103EB00080B582B000AF786039603B68002B04D1D8
:103EC0000548042103F0E8F903E00348042103F066
:103ED000D5F90837BD4680BD0004024080B582B0E8
:103EE00000AF78600448042103F094F903461846B3
:103EF0000837BD4680BD00BF0004024080B584B0D5
:103F000002AF7860002300930020054904220023BB
:103F1000FDF750F8002318460837BD4680BD00BFA6
:103F20000004024080B584B002AF786000230093A3
:103F30000120054904220023FDF73CF80023184620
:103F40000837BD4680BD00BF0004024080B584B084
:103F500002AF78600023009300200549042201236A
:103F6000FDF728F8002318460837BD4680BD00BF7E
:103F70000004024080B584B002AF78600023009353
:103F80000020054904220223FDF714F800231846F7
:103F90000837BD4680BD00BF0004024080B582B036
:103FA00000AF78600448802103F04EF903461846BC
:103FB0000837BD4680BD00BF0010024080B582B00A
:103FC00000AF786039603B68002B04D10548802140
:103FD00003F062F903E00348802103F04FF908374A
:103FE000BD4680BD0010024080B582B000AF786051
:103FF0000448802103F00EF9034618460837BD46F1
:1040000080BD00BF0010024080B584B002AF786070
:10401000002300930020054980220023FCF7CAFFFB
:10402000002318460837BD4680BD00BF001002407F
:1040300080B584B002AF7860002300930120054969
:1040400080220023FCF7B6FF002318460837BD4640
:1040500080BD00BF0010024080B584B002AF786020
:10406000002300930020054980220123FCF7A2FFD2
:10407000002318460837BD4680BD00BF001002402F
:1040800080B584B002AF786000230093002005491A
:1040900080220223FCF78EFF002318460837BD4616
:1040A00080BD00BF0010024080B582B000AF7860D4
:1040B00004484FF4806103F0C7F8034618460837F8
:1040C000BD4680BD0010024080B582B000AF786070
:1040D00039603B68002B05D106484FF4806103F03E
:1040E000DBF804E003484FF4806103F0C7F80837B9
:1040F000BD4680BD0010024080B582B000AF786040
:1041000004484FF4806103F085F8034618460837E9
:10411000BD4680BD0010024080B584B002AF78601B
:1041200000230093002005494FF480620023FCF730
:1041300041FF002318460837BD4680BD00100240ED
:1041400080B584B002AF7860002300930120054958
:104150004FF480620023FCF72DFF00231846083738
:10416000BD4680BD0010024080B584B002AF7860CB
:1041700000230093002005494FF480620123FCF7DF
:1041800019FF002318460837BD4680BD00100240C5
:1041900080B584B002AF7860002300930020054909
:1041A0004FF480620223FCF705FF0023184608370E
:1041B000BD4680BD0010024080B582B000AF78607F
:1041C0000448012103F040F8034618460837BD466D
:1041D00080BD00BF0004024080B582B000AF7860AF
:1041E00039603B68002B04D10548012103F054F8E5
:1041F00003E00348012103F041F80837BD4680BDC4
:104200000004024080B582B000AF7860044801210C
:1042100003F000F8034618460837BD4680BD00BFCE
:104220000004024080B584B002AF786000230093A0
:104230000020054901220023FCF7BCFE002318469C
:104240000837BD4680BD00BF0004024080B584B081
:1042500002AF78600023009301200549012200236A
:10426000FCF7A8FE002318460837BD4680BD00BFF6
:104270000004024080B584B002AF78600023009350
:104280000020054901220123FCF794FE0023184673
:104290000837BD4680BD00BF0004024080B584B031
:1042A00002AF786000230093002005490122022319
:1042B000FCF780FE002318460837BD4680BD00BFCE
:1042C0000004024080B582B000AF7860044810213D
:1042D00002F0BAFF034618460837BD4680BD00BF4E
:1042E0000010024080B582B000AF786039603B6852
:1042F000002B04D10548102102F0CEFF03E0034853
:10430000102102F0BBFF0837BD4680BD00100240FF
:1043100080B582B000AF78600448102102F07AFFC7
:10432000034618460837BD4680BD00BF0010024056
:1043300080B584B002AF7860002300930020054967
:1043400010220023FCF736FE002318460837BD462E
:1043500080BD00BF0010024080B584B002AF78601D
:10436000002300930120054910220023FCF722FEC0
:10437000002318460837BD4680BD00BF001002402C
:1043800080B584B002AF7860002300930020054917
:1043900010220123FCF70EFE002318460837BD4605
:1043A00080BD00BF0010024080B584B002AF7860CD
:1043B000002300930020054910220223FCF7FAFD98
:1043C000002318460837BD4680BD00BF00100240DC
:1043D00080B582B000AF78600448042102F034FF59
:1043E000034618460837BD4680BD00BF0010024096
:1043F00080B582B000AF786039603B68002B04D193
:104400000548042102F048FF03E00348042102F0BC
:1044100035FF0837BD4680BD0010024080B582B030
:1044200000AF78600448042102F0F4FE0346184609
:104430000837BD4680BD00BF0010024080B584B083
:1044400002AF786000230093002005490422002376
:10445000FCF7B0FD002318460837BD4680BD00BFFD
:104460000010024080B584B002AF78600023009352
:104470000120054904220023FCF79CFD0023184677
:104480000837BD4680BD00BF0010024080B584B033
:1044900002AF786000230093002005490422012325
:1044A000FCF788FD002318460837BD4680BD00BFD5
:1044B0000010024080B584B002AF78600023009302
:1044C0000020054904220223FCF774FD002318464E
:1044D0000837BD4680BD00BF0010024080B582B0E5
:1044E00000AF786004484FF4807102F0ADFE0346DF
:1044F00018460837BD4680BD0010024080B582B026
:1045000000AF786039603B68002B05D106484FF456
:10451000807102F0C1FE04E003484FF4807102F0A4
:10452000ADFE0837BD4680BD0010024080B582B0A8
:1045300000AF786004484FF4807102F06BFE0346D0
:1045400018460837BD4680BD0010024080B584B0D3
:1045500002AF786000230093002005494FF4807279
:104560000023FCF727FD002318460837BD4680BD11
:104570000010024080B584B002AF78600023009341
:10458000012005494FF480720023FCF713FD00233E
:1045900018460837BD4680BD0010024080B584B083
:1045A00002AF786000230093002005494FF4807229
:1045B0000123FCF7FFFC002318460837BD4680BDE9
:1045C0000010024080B584B002AF786000230093F1
:1045D000002005494FF480720223FCF7EBFC002316
:1045E00018460837BD4680BD0010024080B582B035
:1045F00000AF78600448082102F026FE0346184602
:104600000837BD4680BD00BF0010024080B582B0B3
:1046100000AF786039603B68002B04D10548082161
:1046200002F03AFE03E00348082102F027FE0837B3
:10463000BD4680BD0010024080B582B000AF7860FA
:104640000448082102F0E6FD034618460837BD4637
:1046500080BD00BF0010024080B584B002AF78601A
:10466000002300930020054908220023FCF7A2FC48
:10467000002318460837BD4680BD00BF0010024029
:1046800080B584B002AF7860002300930120054913
:1046900008220023FCF78EFC002318460837BD468D
:1046A00080BD00BF0010024080B584B002AF7860CA
:1046B000002300930020054908220123FCF77AFC1F
:1046C000002318460837BD4680BD00BF00100240D9
:1046D00080B584B002AF78600023009300200549C4
:1046E00008220223FCF766FC002318460837BD4663
:1046F00080BD00BF0010024080B582B000AF78607E
:104700000448202102F0A0FD034618460837BD46A4
:1047100080BD00BF0008024080B582B000AF786065
:1047200039603B68002B04D10548202102F0B4FD1C
:1047300003E00348202102F0A1FD0837BD4680BDFB
:104740000008024080B582B000AF786004482021A4
:1047500002F060FD034618460837BD4680BD00BF25
:104760000008024080B584B002AF78600023009357
:104770000020054920220023FCF71CFC00231846DA
:104780000837BD4680BD00BF0008024080B584B038
:1047900002AF78607B680222DA6000230093012078
:1047A000044920220023FCF705FC002318460837A3
:1047B000BD4680BD0008024080B584B002AF78607D
:1047C000002300930020054920220123FCF7F2FB7F
:1047D000002318460837BD4680BD00BF00080240D0
:1047E00080B584B002AF78600023009300200549B3
:1047F00020220223FCF7DEFB002318460837BD46C3
:1048000080BD00BF0008024080B582B000AF786074
:104810000448022102F018FD034618460837BD4639
:1048200080BD00BF0008024080B582B000AF786054
:1048300039603B68002B04D10548022102F02CFDB1
:1048400003E00348022102F019FD0837BD4680BD90
:104850000008024080B582B000AF786004480221B1
:1048600002F0D8FC034618460837BD4680BD00BF9D
:104870000008024080B584B002AF78600023009346
:104880000020054902220023FCF794FB0023184670
:104890000837BD4680BD00BF0008024080B584B027
:1048A00002AF78607B680222DA6000230093012067
:1048B000044902220023FCF77DFB00231846083739
:1048C000BD4680BD0008024080B584B002AF78606C
:1048D000002300930020054902220123FCF76AFB14
:1048E000002318460837BD4680BD00BF00080240BF
:1048F00080B584B002AF78600023009300200549A2
:1049000002220223FCF756FB002318460837BD4657
:1049100080BD00BF0008024080B582B000AF786063
:104920000448042102F090FC034618460837BD46AF
:1049300080BD00BF0008024080B582B000AF786043
:1049400039603B68002B04D10548042102F0A4FC27
:1049500003E00348042102F091FC0837BD4680BD06
:104960000008024080B582B000AF7860044804219E
:1049700002F050FC034618460837BD4680BD00BF14
:104980000008024080B584B002AF78600023009335
:104990000020054904220023FCF70CFB00231846E5
:1049A0000837BD4680BD00BF0008024080B584B016
:1049B00002AF78607B680222DA6000230093012056
:1049C000044904220023FCF7F5FA002318460837AF
:1049D000BD4680BD0008024080B584B002AF78605B
:1049E000002300930020054904220123FCF7E2FA8A
:1049F000002318460837BD4680BD00BF00080240AE
:104A000080B584B002AF7860002300930020054990
:104A100004220223FCF7CEFA002318460837BD46CD
:104A200080BD00BF0008024080B582B000AF786052
:104A30000448082102F008FC034618460837BD4622
:104A400080BD00BF0008024080B582B000AF786032
:104A500039603B68002B04D10548082102F01CFC9A
:104A600003E00348082102F009FC0837BD4680BD79
:104A70000008024080B582B000AF78600448082189
:104A800002F0C8FB034618460837BD4680BD00BF8C
:104A90000008024080B584B002AF78600023009324
:104AA0000020054908220023FCF784FA0023184659
:104AB0000837BD4680BD00BF0008024080B584B005
:104AC00002AF78607B680222DA6000230093012045
:104AD000044908220023FCF76DFA00231846083722
:104AE000BD4680BD0008024080B584B002AF78604A
:104AF000002300930020054908220123FCF75AFAFD
:104B0000002318460837BD4680BD00BF000802409C
:104B100080B584B002AF786000230093002005497F
:104B200008220223FCF746FA002318460837BD4640
:104B300080BD00BF0008024080B582B000AF786041
:104B40000448102102F080FB034618460837BD4692
:104B500080BD00BF0008024080B582B000AF786021
:104B600039603B68002B04D10548102102F094FB0A
:104B700003E00348102102F081FB0837BD4680BDE9
:104B80000008024080B582B000AF78600448102170
:104B900002F040FB034618460837BD4680BD00BF03
:104BA0000008024080B584B002AF78600023009313
:104BB0000020054910220023FCF7FCF900231846C9
:104BC0000837BD4680BD00BF0008024080B584B0F4
:104BD00002AF78607B680222DA6000230093012034
:104BE000044910220023FCF7E5F900231846083792
:104BF000BD4680BD0008024080B584B002AF786039
:104C0000002300930020054910220123FCF7D2F96C
:104C1000002318460837BD4680BD00BF000802408B
:104C200080B584B002AF786000230093002005496E
:104C300010220223FCF7BEF9002318460837BD46B0
:104C400080BD00BF0008024080B582B000AF786030
:104C500004484FF4006102F0F7FA0346184608379B
:104C6000BD4680BD0010024080B582B000AF7860C4
:104C700039603B68002B05D106484FF4006102F013
:104C80000BFB04E003484FF4006102F0F7FA083729
:104C9000BD4680BD0010024080B582B000AF786094
:104CA00004484FF4006102F0B5FA0346184608378D
:104CB000BD4680BD0010024080B584B002AF786070
:104CC00000230093002005494FF400620023FCF705
:104CD00071F9002318460837BD4680BD0010024018
:104CE00080B584B002AF78607B680222DA6000236E
:104CF0000093012005494FF400620023FCF75AF9A4
:104D0000002318460837BD4680BD00BF0010024092
:104D100080B584B002AF786000230093002005497D
:104D20004FF400620123FCF745F9002318460837C9
:104D3000BD4680BD0010024080B584B002AF7860EF
:104D400000230093002005494FF400620223FCF782
:104D500031F9002318460837BD4680BD00100240D7
:104D600080B582B000AF78600448402102F06CFA50
:104D7000034618460837BD4680BD00BF00100240FC
:104D800080B582B000AF786039603B68002B04D1F9
:104D90000548402102F080FA03E00348402102F078
:104DA0006DFA0837BD4680BD0010024080B582B064
:104DB00000AF78600448402102F02CFA0346184600
:104DC0000837BD4680BD00BF0010024080B584B0EA
:104DD00002AF7860002300930020054940220023A1
:104DE000FCF7E8F8002318460837BD4680BD00BF31
:104DF0000010024080B584B002AF78607B68022268
:104E0000DA60002300930120044940220023FCF7CC
:104E1000D1F8002318460837BD4680BD0010024077
:104E200080B584B002AF786000230093002005496C
:104E300040220123FCF7BEF8002318460837BD4680
:104E400080BD00BF0010024080B584B002AF786022
:104E5000002300930020054940220223FCF7AAF812
:104E6000002318460837BD4680BD00BF0010024031
:104E700080B582B000AF78600448202102F0E4F9E8
:104E8000034618460837BD4680BD00BF00100240EB
:104E900080B582B000AF786039603B68002B04D1E8
:104EA0000548202102F0F8F903E00348202102F030
:104EB000E5F90837BD4680BD0010024080B582B0DC
:104EC00000AF78600448202102F0A4F90346184698
:104ED0000837BD4680BD00BF0010024080B584B0D9
:104EE00002AF7860002300930020054920220023B0
:104EF000FCF760F8002318460837BD4680BD00BFA8
:104F00000010024080B584B002AF78607B68022256
:104F1000DA60002300930120044920220023FCF7DB
:104F200049F8002318460837BD4680BD00100240EE
:104F300080B584B002AF786000230093002005495B
:104F400020220123FCF736F8002318460837BD4617
:104F500080BD00BF0010024080B584B002AF786011
:104F6000002300930020054920220223FCF722F8A9
:104F7000002318460837BD4680BD00BF0010024020
:104F800080B582B000AF786004484FF4007102F041
:104F90005BF9034618460837BD4680BD0010024045
:104FA00080B582B000AF786039603B68002B05D1D6
:104FB00006484FF4007102F06FF904E003484FF423
:104FC000007102F05BF90837BD4680BD0010024059
:104FD00080B582B000AF786004484FF4007102F0F1
:104FE00019F9034618460837BD4680BD0010024037
:104FF00080B584B002AF786000230093002005499B
:105000004FF400720023FBF7D5FF00231846083742
:10501000BD4680BD0010024080B584B002AF78600C
:105020007B680222DA6000230093012005494FF4D7
:1050300000720023FBF7BEFF002318460837BD4669
:1050400080BD00BF0010024080B584B002AF786020
:1050500000230093002005494FF400720123FBF761
:10506000A9FF002318460837BD4680BD0010024046
:1050700080B584B002AF786000230093002005491A
:105080004FF400720223FBF795FF00231846083700
:10509000BD4680BD0010024080B582B000AF786090
:1050A00004484FF4804102F0CFF803461846083711
:1050B000BD4680BD0010024080B582B000AF786070
:1050C00039603B68002B05D106484FF4804102F05F
:1050D000E3F804E003484FF4804102F0CFF80837CA
:1050E000BD4680BD0010024080B582B000AF786040
:1050F00004484FF4804102F08DF803461846083703
:10510000BD4680BD0010024080B584B002AF78601B
:1051100000230093002005494FF480420023FBF751
:1051200049FF002318460837BD4680BD00100240E5
:1051300080B584B002AF78607B680222DA60002319
:105140000093012005494FF480420023FBF732FF12
:10515000002318460837BD4680BD00BF001002403E
:1051600080B584B002AF7860002300930020054929
:105170004FF480420123FBF71DFF00231846083738
:10518000BD4680BD0010024080B584B002AF78609B
:1051900000230093002005494FF480420223FBF7CF
:1051A00009FF002318460837BD4680BD00100240A5
:1051B00080B582B000AF786004484FF4005102F02F
:1051C00043F8034618460837BD4680BD001002402C
:1051D00080B582B000AF786039603B68002B05D1A4
:1051E00006484FF4005102F057F804E003484FF42A
:1051F000005102F043F80837BD4680BD0010024060
:1052000080B582B000AF786004484FF4005102F0DE
:1052100001F8034618460837BD4680BD001002401D
:1052200080B584B002AF7860002300930020054968
:105230004FF400520023FBF7BDFE00231846083749
:10524000BD4680BD0010024080B584B002AF7860DA
:105250007B680222DA6000230093012005494FF4A5
:1052600000520023FBF7A6FE002318460837BD4670
:1052700080BD00BF0010024080B584B002AF7860EE
:1052800000230093002005494FF400520123FBF74F
:1052900091FE002318460837BD4680BD001002402D
:1052A00080B584B002AF78600023009300200549E8
:1052B0004FF400520223FBF77DFE00231846083707
:1052C000BD4680BD0010024080B582B000AF78605E
:1052D0007B680122DA600448202101F073FC00237E
:1052E00018460837BD4680BD00080240A0F10800FE
:1052F000FFF7EABF90B583B000AF78600C4820217B
:1053000001F048FD04467B681B6848331B687868D9
:1053100098470346184606F071FE03462046194694
:1053200006F074FF034618460C37BD4690BD00BF1B
:1053300000080240A0F10800FFF7DCBF80B582B092
:1053400000AF78607B680122DA600448022101F036
:1053500039FC002318460837BD4680BD00080240CE
:10536000A0F10800FFF7EABF90B583B000AF786006
:105370000C48022101F00EFD04467B681B6848338F
:105380001B68786898470346184606F037FE0346C0
:105390002046194606F03AFF034618460C37BD462C
:1053A00090BD00BF00080240A0F10800FFF7DCBF7D
:1053B00080B582B000AF78607B680122DA60044873
:1053C000042101F0FFFB002318460837BD4680BDCD
:1053D00000080240A0F10800FFF7EABF90B583B0D3
:1053E00000AF78600C48042101F0D4FC04467B68CF
:1053F0001B6848331B68786898470346184606F0D0
:10540000FDFD03462046194606F000FF03461846F8
:105410000C37BD4690BD00BF00080240A0F1080057
:10542000FFF7DCBF80B582B000AF78607B680122F7
:10543000DA600448082101F0C5FB0023184608374C
:10544000BD4680BD00080240A0F10800FFF7EABF9A
:1054500090B583B000AF78600C48082101F09AFC49
:1054600004467B681B6848331B6878689847034686
:10547000184606F0C3FD03462046194606F0C6FE50
:10548000034618460C37BD4690BD00BF00080240D9
:10549000A0F10800FFF7DCBF80B582B000AF7860F4
:1054A0007B680122DA600448102101F08BFB0023A5
:1054B00018460837BD4680BD00080240A0F108002C
:1054C000FFF7EABF90B583B000AF78600C481021B9
:1054D00001F060FC04467B681B6848331B687868F1
:1054E00098470346184606F089FD034620461946AC
:1054F00006F08CFE034618460C37BD4690BD00BF33
:1055000000080240A0F10800FFF7DCBF80B582B0C0
:1055100000AF7860054806494FF44052FBF75CFF46
:10552000002318460837BD4680BD00BF0008004074
:10553000000C024080B582B000AF78607B681B7AB7
:10554000002B05D00648FBF7D5FF03465B4203E07E
:105550000348FBF7CFFF034618460837BD4680BD1A
:105560000008004080B582B000AF7860044805496B
:10557000C022FBF731FF002318460837BD4680BD27
:10558000000400400000024080B582B000AF7860A7
:105590007B681B7A002B05D00648FBF7ABFF034660
:1055A0005B4203E00348FBF7A5FF034618460837B4
:1055B000BD4680BD0004004080B582B000AF786079
:1055C000044805490322FBF707FF00231846083764
:1055D000BD4680BD000C00400000024080B582B096
:1055E00000AF78607B681B7A002B05D00648FBF77C
:1055F00081FF03465B4203E00348FBF77BFF034662
:1056000018460837BD4680BD000C004080B586B006
:1056100000AFF860B9607A60FB680122DA60B868B0
:1056200006F090FE0346094809494FF40062FAF774
:105630006BFE03467B61054802217A68FAF7CEFDCE
:105640007B6918461837BD4680BD00BF0000014089
:1056500000100240A0F10800FFF7D8BF80B582B06B
:1056600000AF78603960044802213A68FAF7B6FD65
:105670000837BD4680BD00BF00000140A0F1080012
:10568000FFF7ECBF80B582B000AF7860044802211C
:10569000FAF706FE034618460837BD4680BD00BF30
:1056A00000000140A0F10800FFF7ECBF80B586B014
:1056B00000AFF860B9607A60FB680122DA60B86810
:1056C00006F040FE0346084808494022FAF71CFE4F
:1056D00003467B61044802217A68FAF77FFD7B6903
:1056E00018461837BD4680BD0040014000100240FA
:1056F000A0F10800FFF7DABF80B582B000AF786094
:105700003960044802213A68FAF768FD0837BD4657
:1057100080BD00BF00400140A0F10800FFF7ECBFD2
:1057200080B582B000AF786004480221FAF7B8FD76
:10573000034618460837BD4680BD00BF0040014003
:10574000A0F10800FFF7ECBF80B586B000AFF860AD
:10575000B9607A60FB680122DA60B86806F0F2FD91
:105760000346084808492022FAF7CEFD03467B612C
:10577000044801217A68FAF731FD7B691846183729
:10578000BD4680BD0040014000100240A0F108006D
:10579000FFF7DABF80B582B000AF786039600448A7
:1057A00001213A68FAF71AFD0837BD4680BD00BFEF
:1057B00000400140A0F10800FFF7ECBF80B582B0C7
:1057C00000AF786004480121FAF76AFD03461846E5
:1057D0000837BD4680BD00BF00400140A0F1080071
:1057E000FFF7ECBF80B586B000AFF860B9607A60B3
:1057F000FB680122DA60B86806F0A4FD0346094898
:1058000009494FF40072FAF77FFD03467B610548B2
:1058100001217A68FAF7E2FC7B6918461837BD4621
:1058200080BD00BF0000014000100240A0F1080050
:10583000FFF7D8BF80B582B000AF78603960044808
:1058400001213A68FAF7CAFC0837BD4680BD00BF9F
:1058500000000140A0F10800FFF7ECBF80B582B066
:1058600000AF786004480121FAF71AFD0346184694
:105870000837BD4680BD00BF00000140A0F1080010
:10588000FFF7ECBF80B586B000AFF860B9607A6012
:10589000FB680122DA60B86806F054FD0346094847
:1058A00009494FF48042FAF72FFD03467B61054812
:1058B00004217A68FAF792FC7B6918461837BD46CE
:1058C00080BD00BF0000014000100240A0F10800B0
:1058D000FFF7D8BF80B582B000AF78603960044868
:1058E00004213A68FAF77AFC0837BD4680BD00BF4C
:1058F00000000140A0F10800FFF7ECBF80B582B0C6
:1059000000AF786004480421FAF7CAFC0346184641
:105910000837BD4680BD00BF00000140A0F108006F
:10592000FFF7ECBF80B586B000AFF860B9607A6071
:10593000FB680122DA60B86806F004FD03460948F6
:1059400009494FF40052FAF7DFFC03467B61054832
:1059500003217A68FAF742FC7B6918461837BD467E
:1059600080BD00BF0000014000100240A0F108000F
:10597000FFF7D8BF80B582B000AF786039600448C7
:1059800003213A68FAF72AFC0837BD4680BD00BFFC
:1059900000000140A0F10800FFF7ECBF80B582B025
:1059A00000AF786004480321FAF77AFC03461846F2
:1059B0000837BD4680BD00BF00000140A0F10800CF
:1059C000FFF7ECBF80B586B000AFF860B9607A60D1
:1059D000FB680122DA60B86806F0B4FC03460948A7
:1059E00009494FF48042FAF78FFC03467B61054872
:1059F00002217A68FAF7F2FB7B6918461837BD4630
:105A000080BD00BF0004014000040240A0F1080076
:105A1000FFF7D8BF80B582B000AF78603960044826
:105A200002213A68FAF7DAFB0837BD4680BD00BFAD
:105A300000040140A0F10800FFF7ECBF80B582B080
:105A400000AF786004480221FAF72AFC03461846A2
:105A50000837BD4680BD00BF00040140A0F108002A
:105A6000FFF7ECBF80B586B000AFF860B9607A6030
:105A7000FB680122DA60B86806F064FC0346094856
:105A800009494FF40042FAF73FFC03467B610548A1
:105A900003217A68FAF7A2FB7B6918461837BD46DE
:105AA00080BD00BF0004014000040240A0F10800D6
:105AB000FFF7D8BF80B582B000AF78603960044886
:105AC00003213A68FAF78AFB0837BD4680BD00BF5C
:105AD00000040140A0F10800FFF7ECBF80B582B0E0
